{
  "contractName": "Patron",
  "abi": [
    {
      "constant": true,
      "inputs": [],
      "name": "name",
      "outputs": [
        {
          "name": "",
          "type": "string"
        }
      ],
      "payable": false,
      "stateMutability": "view",
      "type": "function"
    },
    {
      "constant": false,
      "inputs": [
        {
          "name": "_spender",
          "type": "address"
        },
        {
          "name": "_value",
          "type": "uint256"
        }
      ],
      "name": "approve",
      "outputs": [
        {
          "name": "",
          "type": "bool"
        }
      ],
      "payable": false,
      "stateMutability": "nonpayable",
      "type": "function"
    },
    {
      "constant": true,
      "inputs": [],
      "name": "totalSupply",
      "outputs": [
        {
          "name": "",
          "type": "uint256"
        }
      ],
      "payable": false,
      "stateMutability": "view",
      "type": "function"
    },
    {
      "constant": false,
      "inputs": [
        {
          "name": "_from",
          "type": "address"
        },
        {
          "name": "_to",
          "type": "address"
        },
        {
          "name": "_value",
          "type": "uint256"
        }
      ],
      "name": "transferFrom",
      "outputs": [
        {
          "name": "",
          "type": "bool"
        }
      ],
      "payable": false,
      "stateMutability": "nonpayable",
      "type": "function"
    },
    {
      "constant": true,
      "inputs": [
        {
          "name": "subscriptionKey",
          "type": "uint256"
        }
      ],
      "name": "returnPatronByKey",
      "outputs": [
        {
          "name": "active",
          "type": "bool"
        },
        {
          "name": "amount",
          "type": "uint256"
        },
        {
          "name": "percentToPatron",
          "type": "uint256"
        },
        {
          "name": "toPatronTotal",
          "type": "uint256"
        },
        {
          "name": "toOwnerTotal",
          "type": "uint256"
        },
        {
          "name": "start",
          "type": "uint256"
        },
        {
          "name": "last",
          "type": "uint256"
        }
      ],
      "payable": false,
      "stateMutability": "view",
      "type": "function"
    },
    {
      "constant": false,
      "inputs": [
        {
          "name": "myid",
          "type": "bytes32"
        },
        {
          "name": "result",
          "type": "string"
        }
      ],
      "name": "__callback",
      "outputs": [],
      "payable": false,
      "stateMutability": "nonpayable",
      "type": "function"
    },
    {
      "constant": false,
      "inputs": [
        {
          "name": "newPrice",
          "type": "uint256"
        }
      ],
      "name": "updateOracleGasPrice",
      "outputs": [],
      "payable": false,
      "stateMutability": "nonpayable",
      "type": "function"
    },
    {
      "constant": true,
      "inputs": [],
      "name": "INITIAL_SUPPLY",
      "outputs": [
        {
          "name": "",
          "type": "uint256"
        }
      ],
      "payable": false,
      "stateMutability": "view",
      "type": "function"
    },
    {
      "constant": true,
      "inputs": [],
      "name": "decimals",
      "outputs": [
        {
          "name": "",
          "type": "uint8"
        }
      ],
      "payable": false,
      "stateMutability": "view",
      "type": "function"
    },
    {
      "constant": false,
      "inputs": [
        {
          "name": "patron",
          "type": "address"
        },
        {
          "name": "amount",
          "type": "uint256"
        }
      ],
      "name": "unmint",
      "outputs": [
        {
          "name": "totalCost",
          "type": "uint256"
        }
      ],
      "payable": false,
      "stateMutability": "nonpayable",
      "type": "function"
    },
    {
      "constant": false,
      "inputs": [
        {
          "name": "myid",
          "type": "bytes32"
        },
        {
          "name": "result",
          "type": "string"
        },
        {
          "name": "proof",
          "type": "bytes"
        }
      ],
      "name": "__callback",
      "outputs": [],
      "payable": false,
      "stateMutability": "nonpayable",
      "type": "function"
    },
    {
      "constant": true,
      "inputs": [],
      "name": "costPerToken",
      "outputs": [
        {
          "name": "",
          "type": "uint256"
        }
      ],
      "payable": false,
      "stateMutability": "view",
      "type": "function"
    },
    {
      "constant": false,
      "inputs": [
        {
          "name": "patron",
          "type": "address"
        },
        {
          "name": "amount",
          "type": "uint256"
        }
      ],
      "name": "mint",
      "outputs": [
        {
          "name": "",
          "type": "uint256"
        },
        {
          "name": "",
          "type": "uint256"
        }
      ],
      "payable": false,
      "stateMutability": "nonpayable",
      "type": "function"
    },
    {
      "constant": true,
      "inputs": [
        {
          "name": "amount",
          "type": "uint256"
        }
      ],
      "name": "calculateMintTokenPerToken",
      "outputs": [
        {
          "name": "totalMinted",
          "type": "uint256"
        },
        {
          "name": "totalCost",
          "type": "uint256"
        }
      ],
      "payable": false,
      "stateMutability": "view",
      "type": "function"
    },
    {
      "constant": false,
      "inputs": [
        {
          "name": "patron",
          "type": "address"
        },
        {
          "name": "amount",
          "type": "uint256"
        },
        {
          "name": "interval",
          "type": "uint256"
        },
        {
          "name": "percentToPatron",
          "type": "uint256"
        }
      ],
      "name": "subscribe",
      "outputs": [],
      "payable": true,
      "stateMutability": "payable",
      "type": "function"
    },
    {
      "constant": true,
      "inputs": [],
      "name": "oraclizeGasLimit",
      "outputs": [
        {
          "name": "",
          "type": "uint256"
        }
      ],
      "payable": false,
      "stateMutability": "view",
      "type": "function"
    },
    {
      "constant": false,
      "inputs": [
        {
          "name": "_spender",
          "type": "address"
        },
        {
          "name": "_subtractedValue",
          "type": "uint256"
        }
      ],
      "name": "decreaseApproval",
      "outputs": [
        {
          "name": "success",
          "type": "bool"
        }
      ],
      "payable": false,
      "stateMutability": "nonpayable",
      "type": "function"
    },
    {
      "constant": true,
      "inputs": [
        {
          "name": "_owner",
          "type": "address"
        }
      ],
      "name": "balanceOf",
      "outputs": [
        {
          "name": "balance",
          "type": "uint256"
        }
      ],
      "payable": false,
      "stateMutability": "view",
      "type": "function"
    },
    {
      "constant": true,
      "inputs": [],
      "name": "getOraclePrice",
      "outputs": [
        {
          "name": "",
          "type": "uint256"
        }
      ],
      "payable": false,
      "stateMutability": "view",
      "type": "function"
    },
    {
      "constant": false,
      "inputs": [
        {
          "name": "patron",
          "type": "address"
        },
        {
          "name": "amount",
          "type": "uint256"
        },
        {
          "name": "interval",
          "type": "uint256"
        },
        {
          "name": "percentToPatron",
          "type": "uint256"
        }
      ],
      "name": "updateSubscription",
      "outputs": [],
      "payable": true,
      "stateMutability": "payable",
      "type": "function"
    },
    {
      "constant": true,
      "inputs": [],
      "name": "graphMultiplyerDivisor",
      "outputs": [
        {
          "name": "",
          "type": "uint256"
        }
      ],
      "payable": false,
      "stateMutability": "view",
      "type": "function"
    },
    {
      "constant": true,
      "inputs": [],
      "name": "graphMultiplyer",
      "outputs": [
        {
          "name": "",
          "type": "uint256"
        }
      ],
      "payable": false,
      "stateMutability": "view",
      "type": "function"
    },
    {
      "constant": true,
      "inputs": [
        {
          "name": "patron",
          "type": "address"
        }
      ],
      "name": "returnPatronByAddress",
      "outputs": [
        {
          "name": "active",
          "type": "bool"
        },
        {
          "name": "amount",
          "type": "uint256"
        },
        {
          "name": "percentToPatron",
          "type": "uint256"
        },
        {
          "name": "toPatronTotal",
          "type": "uint256"
        },
        {
          "name": "toOwnerTotal",
          "type": "uint256"
        },
        {
          "name": "start",
          "type": "uint256"
        },
        {
          "name": "last",
          "type": "uint256"
        }
      ],
      "payable": false,
      "stateMutability": "view",
      "type": "function"
    },
    {
      "constant": true,
      "inputs": [],
      "name": "owner",
      "outputs": [
        {
          "name": "",
          "type": "address"
        }
      ],
      "payable": false,
      "stateMutability": "view",
      "type": "function"
    },
    {
      "constant": true,
      "inputs": [],
      "name": "totalEverMinted",
      "outputs": [
        {
          "name": "",
          "type": "uint256"
        }
      ],
      "payable": false,
      "stateMutability": "view",
      "type": "function"
    },
    {
      "constant": true,
      "inputs": [],
      "name": "baseCost",
      "outputs": [
        {
          "name": "",
          "type": "uint256"
        }
      ],
      "payable": false,
      "stateMutability": "view",
      "type": "function"
    },
    {
      "constant": false,
      "inputs": [
        {
          "name": "newPrice",
          "type": "uint256"
        }
      ],
      "name": "updateOracleGasLimit",
      "outputs": [],
      "payable": false,
      "stateMutability": "nonpayable",
      "type": "function"
    },
    {
      "constant": true,
      "inputs": [],
      "name": "symbol",
      "outputs": [
        {
          "name": "",
          "type": "string"
        }
      ],
      "payable": false,
      "stateMutability": "view",
      "type": "function"
    },
    {
      "constant": true,
      "inputs": [],
      "name": "poolBalance",
      "outputs": [
        {
          "name": "",
          "type": "uint256"
        }
      ],
      "payable": false,
      "stateMutability": "view",
      "type": "function"
    },
    {
      "constant": true,
      "inputs": [],
      "name": "baseDivisionHelper",
      "outputs": [
        {
          "name": "",
          "type": "uint256"
        }
      ],
      "payable": false,
      "stateMutability": "view",
      "type": "function"
    },
    {
      "constant": true,
      "inputs": [
        {
          "name": "totalUnminted",
          "type": "uint256"
        }
      ],
      "name": "calculateUnmintTokenPerToken",
      "outputs": [
        {
          "name": "totalCost",
          "type": "uint256"
        }
      ],
      "payable": false,
      "stateMutability": "view",
      "type": "function"
    },
    {
      "constant": false,
      "inputs": [
        {
          "name": "_to",
          "type": "address"
        },
        {
          "name": "_value",
          "type": "uint256"
        }
      ],
      "name": "transfer",
      "outputs": [
        {
          "name": "",
          "type": "bool"
        }
      ],
      "payable": false,
      "stateMutability": "nonpayable",
      "type": "function"
    },
    {
      "constant": true,
      "inputs": [],
      "name": "baseToken",
      "outputs": [
        {
          "name": "",
          "type": "address"
        }
      ],
      "payable": false,
      "stateMutability": "view",
      "type": "function"
    },
    {
      "constant": true,
      "inputs": [],
      "name": "oraclizeGasPrice",
      "outputs": [
        {
          "name": "",
          "type": "uint256"
        }
      ],
      "payable": false,
      "stateMutability": "view",
      "type": "function"
    },
    {
      "constant": true,
      "inputs": [],
      "name": "returnSubscriptionsLength",
      "outputs": [
        {
          "name": "length",
          "type": "uint256"
        }
      ],
      "payable": false,
      "stateMutability": "view",
      "type": "function"
    },
    {
      "constant": false,
      "inputs": [
        {
          "name": "_spender",
          "type": "address"
        },
        {
          "name": "_addedValue",
          "type": "uint256"
        }
      ],
      "name": "increaseApproval",
      "outputs": [
        {
          "name": "success",
          "type": "bool"
        }
      ],
      "payable": false,
      "stateMutability": "nonpayable",
      "type": "function"
    },
    {
      "constant": false,
      "inputs": [
        {
          "name": "queryId",
          "type": "bytes32"
        }
      ],
      "name": "__callback",
      "outputs": [],
      "payable": false,
      "stateMutability": "nonpayable",
      "type": "function"
    },
    {
      "constant": true,
      "inputs": [],
      "name": "totalEverWithdrawn",
      "outputs": [
        {
          "name": "",
          "type": "uint256"
        }
      ],
      "payable": false,
      "stateMutability": "view",
      "type": "function"
    },
    {
      "constant": true,
      "inputs": [
        {
          "name": "_owner",
          "type": "address"
        },
        {
          "name": "_spender",
          "type": "address"
        }
      ],
      "name": "allowance",
      "outputs": [
        {
          "name": "remaining",
          "type": "uint256"
        }
      ],
      "payable": false,
      "stateMutability": "view",
      "type": "function"
    },
    {
      "constant": true,
      "inputs": [
        {
          "name": "x",
          "type": "uint256"
        }
      ],
      "name": "fastlog2",
      "outputs": [
        {
          "name": "y",
          "type": "uint256"
        }
      ],
      "payable": false,
      "stateMutability": "pure",
      "type": "function"
    },
    {
      "constant": true,
      "inputs": [
        {
          "name": "_supply",
          "type": "uint256"
        }
      ],
      "name": "currentCostOfToken",
      "outputs": [
        {
          "name": "_cost",
          "type": "uint256"
        }
      ],
      "payable": false,
      "stateMutability": "view",
      "type": "function"
    },
    {
      "constant": false,
      "inputs": [
        {
          "name": "newOwner",
          "type": "address"
        }
      ],
      "name": "transferOwnership",
      "outputs": [],
      "payable": false,
      "stateMutability": "nonpayable",
      "type": "function"
    },
    {
      "inputs": [
        {
          "name": "_name",
          "type": "string"
        },
        {
          "name": "_symbol",
          "type": "string"
        },
        {
          "name": "_baseToken",
          "type": "address"
        },
        {
          "name": "baseTokenDecimals",
          "type": "uint256"
        },
        {
          "name": "_graphType",
          "type": "uint256"
        },
        {
          "name": "_graphMultiplyer",
          "type": "uint256"
        }
      ],
      "payable": true,
      "stateMutability": "payable",
      "type": "constructor"
    },
    {
      "anonymous": false,
      "inputs": [
        {
          "indexed": false,
          "name": "number",
          "type": "uint256"
        }
      ],
      "name": "LogUint",
      "type": "event"
    },
    {
      "anonymous": false,
      "inputs": [
        {
          "indexed": false,
          "name": "patron",
          "type": "address"
        },
        {
          "indexed": false,
          "name": "amount",
          "type": "uint256"
        }
      ],
      "name": "Paid",
      "type": "event"
    },
    {
      "anonymous": false,
      "inputs": [
        {
          "indexed": false,
          "name": "patron",
          "type": "address"
        }
      ],
      "name": "AlertEmptyPledge",
      "type": "event"
    },
    {
      "anonymous": false,
      "inputs": [
        {
          "indexed": false,
          "name": "patron",
          "type": "address"
        }
      ],
      "name": "AlertEmptyOracle",
      "type": "event"
    },
    {
      "anonymous": false,
      "inputs": [
        {
          "indexed": false,
          "name": "costOfTokenUpdate",
          "type": "uint256"
        }
      ],
      "name": "LogCostOfTokenUpdate",
      "type": "event"
    },
    {
      "anonymous": false,
      "inputs": [
        {
          "indexed": false,
          "name": "totalMinted",
          "type": "uint256"
        },
        {
          "indexed": false,
          "name": "totalCost",
          "type": "uint256"
        }
      ],
      "name": "LogMint",
      "type": "event"
    },
    {
      "anonymous": false,
      "inputs": [
        {
          "indexed": false,
          "name": "totalMinted",
          "type": "uint256"
        },
        {
          "indexed": false,
          "name": "totalCost",
          "type": "uint256"
        }
      ],
      "name": "LogUnmint",
      "type": "event"
    },
    {
      "anonymous": false,
      "inputs": [
        {
          "indexed": true,
          "name": "previousOwner",
          "type": "address"
        },
        {
          "indexed": true,
          "name": "newOwner",
          "type": "address"
        }
      ],
      "name": "OwnershipTransferred",
      "type": "event"
    },
    {
      "anonymous": false,
      "inputs": [
        {
          "indexed": true,
          "name": "owner",
          "type": "address"
        },
        {
          "indexed": true,
          "name": "spender",
          "type": "address"
        },
        {
          "indexed": false,
          "name": "value",
          "type": "uint256"
        }
      ],
      "name": "Approval",
      "type": "event"
    },
    {
      "anonymous": false,
      "inputs": [
        {
          "indexed": true,
          "name": "from",
          "type": "address"
        },
        {
          "indexed": true,
          "name": "to",
          "type": "address"
        },
        {
          "indexed": false,
          "name": "value",
          "type": "uint256"
        }
      ],
      "name": "Transfer",
      "type": "event"
    }
  ],
  "bytecode": "0x606060405262030d40600c5563ee6b2800600d556103e860125560006015556000601655612710601b556040516200556c3803806200556c8339810160405280805182019190602001805182019190602001805190602001909190805190602001909190805190602001909190805190602001909190505033600860006101000a81548173ffffffffffffffffffffffffffffffffffffffff021916908373ffffffffffffffffffffffffffffffffffffffff1602179055508560099080519060200190620000d092919062000779565b5084600a9080519060200190620000e992919062000779565b5083600b60006101000a81548173ffffffffffffffffffffffffffffffffffffffff021916908373ffffffffffffffffffffffffffffffffffffffff16021790555082600a0a60148190555060028214156200016a576002601c60006101000a81548160ff021916908360028111156200015f57fe5b0217905550620001c6565b60018214156200019f576001601c60006101000a81548160ff021916908360028111156200019457fe5b0217905550620001c5565b6000601c60006101000a81548160ff02191690836002811115620001bf57fe5b02179055505b5b80601a81905550620001eb6200024c6401000000000262003514176401000000009004565b736f485c8bf6fc43ea212e93bbf8ce046c7f1cb475600360006101000a81548173ffffffffffffffffffffffffffffffffffffffff021916908373ffffffffffffffffffffffffffffffffffffffff16021790555050505050505062000828565b6200026d600054620002ae6401000000000262002ddd176401000000009004565b6016819055507f6107240b152f88c02cc96226ebe928f44aa7767097ec63deb754607d21162c9d6016546040518082815260200191505060405180910390a1565b6000806000905060006002811115620002c357fe5b601c60009054906101000a900460ff166002811115620002df57fe5b14156200035b576200035360155462000336601b546200031987601a54620004dc6401000000000262003560179091906401000000009004565b6200051264010000000002620040a2179091906401000000009004565b6200052e64010000000002620030ca179091906401000000009004565b9050620004d3565b600160028111156200036957fe5b601c60009054906101000a900460ff1660028111156200038557fe5b14156200040457620003fc601554620003df601b54620003c26002880a601a54620004dc6401000000000262003560179091906401000000009004565b6200051264010000000002620040a2179091906401000000009004565b6200052e64010000000002620030ca179091906401000000009004565b9050620004d2565b6002808111156200041157fe5b601c60009054906101000a900460ff1660028111156200042d57fe5b1415620004d15760008314156200044357600192505b620004ce601554620004b1601b546200049462000474886200054d6401000000000262002bb1176401000000009004565b601a54620004dc6401000000000262003560179091906401000000009004565b6200051264010000000002620040a2179091906401000000009004565b6200052e64010000000002620030ca179091906401000000009004565b90505b5b5b80915050919050565b60008082840290506000841480620004ff5750828482811515620004fc57fe5b04145b15156200050857fe5b8091505092915050565b60008082848115156200052157fe5b0490508091505092915050565b60008082840190508381101515156200054357fe5b8091505092915050565b60008160018303925060028304831792506004830483179250601083048317925061010083048317925062010000830483179250640100000000830483179250680100000000000000008304831792507001000000000000000000000000000000008304831792506001830192506040517ff8f9cbfae6cc78fbefe7cdc3a1793dfcf4f0e8bbd8cec470b6a28a7a5a3e1efd81527ff5ecf1b3e9debc68e1d9cfabc5997135bfb7a7a3938b7b606b5b4b3f2f1f0ffe60208201527ff6e4ed9ff2d6b458eadcdf97bd91692de2d4da8fd2d0ac50c6ae9a827252361660408201527fc8c0b887b0a8a4489c948c7f847c6125746c645c544c444038302820181008ff60608201527ff7cae577eec2a03cf3bad76fb589591debb2dd67e0aa9834bea6925f6a4a2e0e60808201527fe39ed557db96902cd38ed14fad815115c786af479b7e8324736353433727170760a08201527fc976c13bb96e881cb166a933a55e490d9d56952b8d4e801485467d236242260660c08201527f753a6d1b65325d0c552a4d1345224105391a310b29122104190a11030902010060e082015261010081016040527e818283848586878898a8b8c8d8e8f929395969799a9b9d9e9faaeb6bedeeff7f01000000000000000000000000000000000000000000000000000000000000008082870204818160ff038501510495507f8000000000000000000000000000000000000000000000000000000000000000851161010002860195505050505050919050565b828054600181600116156101000203166002900490600052602060002090601f016020900481019282601f10620007bc57805160ff1916838001178555620007ed565b82800160010185558215620007ed579182015b82811115620007ec578251825591602001919060010190620007cf565b5b509050620007fc919062000800565b5090565b6200082591905b808211156200082157600081600090555060010162000807565b5090565b90565b614d3480620008386000396000f300606060405260043610610204576000357c0100000000000000000000000000000000000000000000000000000000900463ffffffff16806306fdde0314610209578063095ea7b31461029757806318160ddd146102f157806323b872dd1461031a578063249e9e121461039357806327dc297e146103f85780632c51114e146104625780632ff2e9dc14610485578063313ce567146104ae5780633537c258146104dd57806338bbfa50146105335780633ba523c7146105e057806340c10f191461060957806343d58c4d146106665780634907cd0f146106a457806350b9c428146106ed578063661884631461071657806370a0823114610770578063796da7af146107bd57806385e4452a146107e6578063870cbbb51461082f57806387288e67146108585780638b1643a7146108815780638da5cb5b146108fc578063924808b414610951578063938225571461097a57806393a3eaab146109a357806395d89b41146109c657806396365d4414610a545780639b7326cc14610a7d5780639cebf47014610aa6578063a9059cbb14610add578063c55dae6314610b37578063ce50740114610b8c578063d2e73c3f14610bb5578063d73dd62314610bde578063dab23f7c14610c38578063db222e9814610c5f578063dd62ed3e14610c88578063e7a858dd14610cf4578063efd49bf814610d2b578063f2fde38b14610d62575b600080fd5b341561021457600080fd5b61021c610d9b565b6040518080602001828103825283818151815260200191508051906020019080838360005b8381101561025c578082015181840152602081019050610241565b50505050905090810190601f1680156102895780820380516001836020036101000a031916815260200191505b509250505060405180910390f35b34156102a257600080fd5b6102d7600480803573ffffffffffffffffffffffffffffffffffffffff16906020019091908035906020019091905050610e39565b604051808215151515815260200191505060405180910390f35b34156102fc57600080fd5b610304610f2b565b6040518082815260200191505060405180910390f35b341561032557600080fd5b610379600480803573ffffffffffffffffffffffffffffffffffffffff1690602001909190803573ffffffffffffffffffffffffffffffffffffffff16906020019091908035906020019091905050610f31565b604051808215151515815260200191505060405180910390f35b341561039e57600080fd5b6103b4600480803590602001909190505061121d565b604051808815151515815260200187815260200186815260200185815260200184815260200183815260200182815260200197505050505050505060405180910390f35b341561040357600080fd5b61046060048080356000191690602001909190803590602001908201803590602001908080601f01602080910402602001604051908101604052809392919081815260200183838082843782019150505050505091905050611289565b005b341561046d57600080fd5b61048360048080359060200190919050506112bb565b005b341561049057600080fd5b61049861132c565b6040518082815260200191505060405180910390f35b34156104b957600080fd5b6104c1611331565b604051808260ff1660ff16815260200191505060405180910390f35b34156104e857600080fd5b61051d600480803573ffffffffffffffffffffffffffffffffffffffff16906020019091908035906020019091905050611336565b6040518082815260200191505060405180910390f35b341561053e57600080fd5b6105de60048080356000191690602001909190803590602001908201803590602001908080601f0160208091040260200160405190810160405280939291908181526020018383808284378201915050505050509190803590602001908201803590602001908080601f016020809104026020016040519081016040528093929190818152602001838380828437820191505050505050919050506116cd565b005b34156105eb57600080fd5b6105f36116d2565b6040518082815260200191505060405180910390f35b341561061457600080fd5b610649600480803573ffffffffffffffffffffffffffffffffffffffff169060200190919080359060200190919050506116d8565b604051808381526020018281526020019250505060405180910390f35b341561067157600080fd5b6106876004808035906020019091905050611a41565b604051808381526020018281526020019250505060405180910390f35b6106eb600480803573ffffffffffffffffffffffffffffffffffffffff16906020019091908035906020019091908035906020019091908035906020019091905050611b2c565b005b34156106f857600080fd5b610700611e1c565b6040518082815260200191505060405180910390f35b341561072157600080fd5b610756600480803573ffffffffffffffffffffffffffffffffffffffff16906020019091908035906020019091905050611e22565b604051808215151515815260200191505060405180910390f35b341561077b57600080fd5b6107a7600480803573ffffffffffffffffffffffffffffffffffffffff169060200190919050506120b3565b6040518082815260200191505060405180910390f35b34156107c857600080fd5b6107d06120fc565b6040518082815260200191505060405180910390f35b61082d600480803573ffffffffffffffffffffffffffffffffffffffff16906020019091908035906020019091908035906020019091908035906020019091905050612155565b005b341561083a57600080fd5b61084261243c565b6040518082815260200191505060405180910390f35b341561086357600080fd5b61086b612442565b6040518082815260200191505060405180910390f35b341561088c57600080fd5b6108b8600480803573ffffffffffffffffffffffffffffffffffffffff16906020019091905050612448565b604051808815151515815260200187815260200186815260200185815260200184815260200183815260200182815260200197505050505050505060405180910390f35b341561090757600080fd5b61090f6124df565b604051808273ffffffffffffffffffffffffffffffffffffffff1673ffffffffffffffffffffffffffffffffffffffff16815260200191505060405180910390f35b341561095c57600080fd5b610964612505565b6040518082815260200191505060405180910390f35b341561098557600080fd5b61098d61250b565b6040518082815260200191505060405180910390f35b34156109ae57600080fd5b6109c46004808035906020019091905050612511565b005b34156109d157600080fd5b6109d9612577565b6040518080602001828103825283818151815260200191508051906020019080838360005b83811015610a195780820151818401526020810190506109fe565b50505050905090810190601f168015610a465780820380516001836020036101000a031916815260200191505b509250505060405180910390f35b3415610a5f57600080fd5b610a67612615565b6040518082815260200191505060405180910390f35b3415610a8857600080fd5b610a9061261b565b6040518082815260200191505060405180910390f35b3415610ab157600080fd5b610ac76004808035906020019091905050612621565b6040518082815260200191505060405180910390f35b3415610ae857600080fd5b610b1d600480803573ffffffffffffffffffffffffffffffffffffffff1690602001909190803590602001909190505061268b565b604051808215151515815260200191505060405180910390f35b3415610b4257600080fd5b610b4a612861565b604051808273ffffffffffffffffffffffffffffffffffffffff1673ffffffffffffffffffffffffffffffffffffffff16815260200191505060405180910390f35b3415610b9757600080fd5b610b9f612887565b6040518082815260200191505060405180910390f35b3415610bc057600080fd5b610bc861288d565b6040518082815260200191505060405180910390f35b3415610be957600080fd5b610c1e600480803573ffffffffffffffffffffffffffffffffffffffff1690602001909190803590602001909190505061289a565b604051808215151515815260200191505060405180910390f35b3415610c4357600080fd5b610c5d600480803560001916906020019091905050612a96565b005b3415610c6a57600080fd5b610c72612b24565b6040518082815260200191505060405180910390f35b3415610c9357600080fd5b610cde600480803573ffffffffffffffffffffffffffffffffffffffff1690602001909190803573ffffffffffffffffffffffffffffffffffffffff16906020019091905050612b2a565b6040518082815260200191505060405180910390f35b3415610cff57600080fd5b610d156004808035906020019091905050612bb1565b6040518082815260200191505060405180910390f35b3415610d3657600080fd5b610d4c6004808035906020019091905050612ddd565b6040518082815260200191505060405180910390f35b3415610d6d57600080fd5b610d99600480803573ffffffffffffffffffffffffffffffffffffffff16906020019091905050612f59565b005b60098054600181600116156101000203166002900480601f016020809104026020016040519081016040528092919081815260200182805460018160011615610100020316600290048015610e315780601f10610e0657610100808354040283529160200191610e31565b820191906000526020600020905b815481529060010190602001808311610e1457829003601f168201915b505050505081565b600081600260003373ffffffffffffffffffffffffffffffffffffffff1673ffffffffffffffffffffffffffffffffffffffff16815260200190815260200160002060008573ffffffffffffffffffffffffffffffffffffffff1673ffffffffffffffffffffffffffffffffffffffff168152602001908152602001600020819055508273ffffffffffffffffffffffffffffffffffffffff163373ffffffffffffffffffffffffffffffffffffffff167f8c5be1e5ebec7d5bd14f71427d1e84f3dd0314c0f7b2291e5b200ac8c7c3b925846040518082815260200191505060405180910390a36001905092915050565b60005481565b600080600073ffffffffffffffffffffffffffffffffffffffff168473ffffffffffffffffffffffffffffffffffffffff1614151515610f7057600080fd5b600260008673ffffffffffffffffffffffffffffffffffffffff1673ffffffffffffffffffffffffffffffffffffffff16815260200190815260200160002060003373ffffffffffffffffffffffffffffffffffffffff1673ffffffffffffffffffffffffffffffffffffffff16815260200190815260200160002054905061104183600160008873ffffffffffffffffffffffffffffffffffffffff1673ffffffffffffffffffffffffffffffffffffffff168152602001908152602001600020546130b190919063ffffffff16565b600160008773ffffffffffffffffffffffffffffffffffffffff1673ffffffffffffffffffffffffffffffffffffffff168152602001908152602001600020819055506110d683600160008773ffffffffffffffffffffffffffffffffffffffff1673ffffffffffffffffffffffffffffffffffffffff168152602001908152602001600020546130ca90919063ffffffff16565b600160008673ffffffffffffffffffffffffffffffffffffffff1673ffffffffffffffffffffffffffffffffffffffff1681526020019081526020016000208190555061112c83826130b190919063ffffffff16565b600260008773ffffffffffffffffffffffffffffffffffffffff1673ffffffffffffffffffffffffffffffffffffffff16815260200190815260200160002060003373ffffffffffffffffffffffffffffffffffffffff1673ffffffffffffffffffffffffffffffffffffffff168152602001908152602001600020819055508373ffffffffffffffffffffffffffffffffffffffff168573ffffffffffffffffffffffffffffffffffffffff167fddf252ad1be2c89b69c2b068fc378daa952ba7f163c4a11628f55a4df523b3ef856040518082815260200191505060405180910390a360019150509392505050565b60008060008060008060008060118981548110151561123857fe5b906000526020600020900160009054906101000a900473ffffffffffffffffffffffffffffffffffffffff16905061126f81612448565b975097509750975097509750975050919395979092949650565b6112b78282600060405180591061129d5750595b9080825280601f01601f19166020018201604052506116cd565b5050565b600860009054906101000a900473ffffffffffffffffffffffffffffffffffffffff1673ffffffffffffffffffffffffffffffffffffffff163373ffffffffffffffffffffffffffffffffffffffff1614151561131757600080fd5b80600d81905550611329600d546130e8565b50565b600a81565b601281565b60008273ffffffffffffffffffffffffffffffffffffffff163373ffffffffffffffffffffffffffffffffffffffff16141580156113a757506113776132fa565b73ffffffffffffffffffffffffffffffffffffffff163373ffffffffffffffffffffffffffffffffffffffff1614155b80156114015750600860009054906101000a900473ffffffffffffffffffffffffffffffffffffffff1673ffffffffffffffffffffffffffffffffffffffff168373ffffffffffffffffffffffffffffffffffffffff1614155b1561140b57600080fd5b600082141561141957600080fd5b600160008473ffffffffffffffffffffffffffffffffffffffff1673ffffffffffffffffffffffffffffffffffffffff1681526020019081526020016000205482111561146557600080fd5b61146e82612621565b9050611485826017546130b190919063ffffffff16565b6017819055506114a0826000546130b190919063ffffffff16565b6000819055506114f882600160008673ffffffffffffffffffffffffffffffffffffffff1673ffffffffffffffffffffffffffffffffffffffff168152602001908152602001600020546130b190919063ffffffff16565b600160008573ffffffffffffffffffffffffffffffffffffffff1673ffffffffffffffffffffffffffffffffffffffff16815260200190815260200160002081905550611550816019546130b190919063ffffffff16565b60198190555061155e613514565b600b60009054906101000a900473ffffffffffffffffffffffffffffffffffffffff1673ffffffffffffffffffffffffffffffffffffffff166323b872dd3085846000604051602001526040518463ffffffff167c0100000000000000000000000000000000000000000000000000000000028152600401808473ffffffffffffffffffffffffffffffffffffffff1673ffffffffffffffffffffffffffffffffffffffff1681526020018373ffffffffffffffffffffffffffffffffffffffff1673ffffffffffffffffffffffffffffffffffffffff1681526020018281526020019350505050602060405180830381600087803b151561165f57600080fd5b6102c65a03f1151561167057600080fd5b50505060405180519050151561168557600080fd5b7f8266e83f1305b5f57d0ea003de4b98085863677f5635419f4e08b60f9a3404798282604051808381526020018281526020019250505060405180910390a180905092915050565b505050565b60165481565b6000806000808573ffffffffffffffffffffffffffffffffffffffff163373ffffffffffffffffffffffffffffffffffffffff161415801561174d575061171d6132fa565b73ffffffffffffffffffffffffffffffffffffffff163373ffffffffffffffffffffffffffffffffffffffff1614155b80156117a75750600860009054906101000a900473ffffffffffffffffffffffffffffffffffffffff1673ffffffffffffffffffffffffffffffffffffffff168673ffffffffffffffffffffffffffffffffffffffff1614155b156117b157600080fd5b60008514156117bf57600080fd5b6117c885611a41565b809250819350505060008114156117de57600080fd5b6117f3826017546130ca90919063ffffffff16565b60178190555061180e826000546130ca90919063ffffffff16565b60008190555061186682600160008973ffffffffffffffffffffffffffffffffffffffff1673ffffffffffffffffffffffffffffffffffffffff168152602001908152602001600020546130ca90919063ffffffff16565b600160008873ffffffffffffffffffffffffffffffffffffffff1673ffffffffffffffffffffffffffffffffffffffff168152602001908152602001600020819055506118be816019546130ca90919063ffffffff16565b6019819055506118cc613514565b600b60009054906101000a900473ffffffffffffffffffffffffffffffffffffffff1673ffffffffffffffffffffffffffffffffffffffff166323b872dd8730846000604051602001526040518463ffffffff167c0100000000000000000000000000000000000000000000000000000000028152600401808473ffffffffffffffffffffffffffffffffffffffff1673ffffffffffffffffffffffffffffffffffffffff1681526020018373ffffffffffffffffffffffffffffffffffffffff1673ffffffffffffffffffffffffffffffffffffffff1681526020018281526020019350505050602060405180830381600087803b15156119cd57600080fd5b6102c65a03f115156119de57600080fd5b5050506040518051905015156119f357600080fd5b7fe7360c0fa1984a85874443100f5b25dd4f84192659660eb199f6c96e11defbcb8282604051808381526020018281526020019250505060405180910390a181819350935050509250929050565b600080600080611a5e60145460165461356090919063ffffffff16565b9150600090505b84831015611b1f5784611a8183856130ca90919063ffffffff16565b111515611aff57611a9b82846130ca90919063ffffffff16565b9250611ac5611ab6600160145461356090919063ffffffff16565b856130ca90919063ffffffff16565b9350611af8611af3611ae26014548461356090919063ffffffff16565b6000546130ca90919063ffffffff16565b612ddd565b9150611b04565b611b1f565b611b186001826130ca90919063ffffffff16565b9050611a65565b8383935093505050915091565b6000831415611b3a57600080fd5b6000341415611b4857600080fd5b3373ffffffffffffffffffffffffffffffffffffffff168473ffffffffffffffffffffffffffffffffffffffff16141515611b8257600080fd5b6224ea00821115611b9257600080fd5b6064811115611ba057600080fd5b600e60008573ffffffffffffffffffffffffffffffffffffffff1673ffffffffffffffffffffffffffffffffffffffff16815260200190815260200160002060000160009054906101000a900460ff1615611c0357611bfe84613593565b611e16565b6001600e60008673ffffffffffffffffffffffffffffffffffffffff1673ffffffffffffffffffffffffffffffffffffffff16815260200190815260200160002060000160006101000a81548160ff02191690831515021790555082600e60008673ffffffffffffffffffffffffffffffffffffffff1673ffffffffffffffffffffffffffffffffffffffff1681526020019081526020016000206001018190555080600e60008673ffffffffffffffffffffffffffffffffffffffff1673ffffffffffffffffffffffffffffffffffffffff1681526020019081526020016000206002018190555081600e60008673ffffffffffffffffffffffffffffffffffffffff1673ffffffffffffffffffffffffffffffffffffffff1681526020019081526020016000206005018190555042600e60008673ffffffffffffffffffffffffffffffffffffffff1673ffffffffffffffffffffffffffffffffffffffff168152602001908152602001600020600601819055506001600e60008673ffffffffffffffffffffffffffffffffffffffff1673ffffffffffffffffffffffffffffffffffffffff16815260200190815260200160002060000160016101000a81548160ff021916908315150217905550611deb6001600f546130ca90919063ffffffff16565b600f81905550611e06836010546130ca90919063ffffffff16565b601081905550611e1584613593565b5b50505050565b600c5481565b600080600260003373ffffffffffffffffffffffffffffffffffffffff1673ffffffffffffffffffffffffffffffffffffffff16815260200190815260200160002060008573ffffffffffffffffffffffffffffffffffffffff1673ffffffffffffffffffffffffffffffffffffffff16815260200190815260200160002054905080831115611f33576000600260003373ffffffffffffffffffffffffffffffffffffffff1673ffffffffffffffffffffffffffffffffffffffff16815260200190815260200160002060008673ffffffffffffffffffffffffffffffffffffffff1673ffffffffffffffffffffffffffffffffffffffff16815260200190815260200160002081905550611fc7565b611f4683826130b190919063ffffffff16565b600260003373ffffffffffffffffffffffffffffffffffffffff1673ffffffffffffffffffffffffffffffffffffffff16815260200190815260200160002060008673ffffffffffffffffffffffffffffffffffffffff1673ffffffffffffffffffffffffffffffffffffffff168152602001908152602001600020819055505b8373ffffffffffffffffffffffffffffffffffffffff163373ffffffffffffffffffffffffffffffffffffffff167f8c5be1e5ebec7d5bd14f71427d1e84f3dd0314c0f7b2291e5b200ac8c7c3b925600260003373ffffffffffffffffffffffffffffffffffffffff1673ffffffffffffffffffffffffffffffffffffffff16815260200190815260200160002060008873ffffffffffffffffffffffffffffffffffffffff1673ffffffffffffffffffffffffffffffffffffffff168152602001908152602001600020546040518082815260200191505060405180910390a3600191505092915050565b6000600160008373ffffffffffffffffffffffffffffffffffffffff1673ffffffffffffffffffffffffffffffffffffffff168152602001908152602001600020549050919050565b6000612150600d546121426040805190810160405280600381526020017f55524c0000000000000000000000000000000000000000000000000000000000815250613e16565b61356090919063ffffffff16565b905090565b600e60008573ffffffffffffffffffffffffffffffffffffffff1673ffffffffffffffffffffffffffffffffffffffff16815260200190815260200160002060000160009054906101000a900460ff1615156121b057600080fd5b60648111156121be57600080fd5b60008314156122e85761221e600e60008673ffffffffffffffffffffffffffffffffffffffff1673ffffffffffffffffffffffffffffffffffffffff168152602001908152602001600020600101546010546130b190919063ffffffff16565b6010819055506000600e60008673ffffffffffffffffffffffffffffffffffffffff1673ffffffffffffffffffffffffffffffffffffffff168152602001908152602001600020600101819055506000600e60008673ffffffffffffffffffffffffffffffffffffffff1673ffffffffffffffffffffffffffffffffffffffff16815260200190815260200160002060000160016101000a81548160ff0219169083151502179055506122dd6001600f546130ca90919063ffffffff16565b600f81905550612436565b61233f600e60008673ffffffffffffffffffffffffffffffffffffffff1673ffffffffffffffffffffffffffffffffffffffff168152602001908152602001600020600101546010546130b190919063ffffffff16565b60108190555082600e60008673ffffffffffffffffffffffffffffffffffffffff1673ffffffffffffffffffffffffffffffffffffffff168152602001908152602001600020600101819055506123a1836010546130ca90919063ffffffff16565b60108190555080600e60008673ffffffffffffffffffffffffffffffffffffffff1673ffffffffffffffffffffffffffffffffffffffff1681526020019081526020016000206002018190555081600e60008673ffffffffffffffffffffffffffffffffffffffff1673ffffffffffffffffffffffffffffffffffffffff168152602001908152602001600020600501819055505b50505050565b601b5481565b601a5481565b600080600080600080600080600e60008a73ffffffffffffffffffffffffffffffffffffffff1673ffffffffffffffffffffffffffffffffffffffff16815260200190815260200160002090508060000160019054906101000a900460ff16816001015482600201548360030154846004015485600601548660070154975097509750975097509750975050919395979092949650565b600860009054906101000a900473ffffffffffffffffffffffffffffffffffffffff1681565b60175481565b60155481565b600860009054906101000a900473ffffffffffffffffffffffffffffffffffffffff1673ffffffffffffffffffffffffffffffffffffffff163373ffffffffffffffffffffffffffffffffffffffff1614151561256d57600080fd5b80600c8190555050565b600a8054600181600116156101000203166002900480601f01602080910402602001604051908101604052809291908181526020018280546001816001161561010002031660029004801561260d5780601f106125e25761010080835404028352916020019161260d565b820191906000526020600020905b8154815290600101906020018083116125f057829003601f168201915b505050505081565b60195481565b60145481565b6000806000806016549250612641856016546130ca90919063ffffffff16565b9150612669600261265b84866130ca90919063ffffffff16565b6140a290919063ffffffff16565b905061267e858261356090919063ffffffff16565b9350839350505050919050565b60008073ffffffffffffffffffffffffffffffffffffffff168373ffffffffffffffffffffffffffffffffffffffff16141515156126c857600080fd5b61271a82600160003373ffffffffffffffffffffffffffffffffffffffff1673ffffffffffffffffffffffffffffffffffffffff168152602001908152602001600020546130b190919063ffffffff16565b600160003373ffffffffffffffffffffffffffffffffffffffff1673ffffffffffffffffffffffffffffffffffffffff168152602001908152602001600020819055506127af82600160008673ffffffffffffffffffffffffffffffffffffffff1673ffffffffffffffffffffffffffffffffffffffff168152602001908152602001600020546130ca90919063ffffffff16565b600160008573ffffffffffffffffffffffffffffffffffffffff1673ffffffffffffffffffffffffffffffffffffffff168152602001908152602001600020819055508273ffffffffffffffffffffffffffffffffffffffff163373ffffffffffffffffffffffffffffffffffffffff167fddf252ad1be2c89b69c2b068fc378daa952ba7f163c4a11628f55a4df523b3ef846040518082815260200191505060405180910390a36001905092915050565b600b60009054906101000a900473ffffffffffffffffffffffffffffffffffffffff1681565b600d5481565b6000601180549050905090565b600061292b82600260003373ffffffffffffffffffffffffffffffffffffffff1673ffffffffffffffffffffffffffffffffffffffff16815260200190815260200160002060008673ffffffffffffffffffffffffffffffffffffffff1673ffffffffffffffffffffffffffffffffffffffff168152602001908152602001600020546130ca90919063ffffffff16565b600260003373ffffffffffffffffffffffffffffffffffffffff1673ffffffffffffffffffffffffffffffffffffffff16815260200190815260200160002060008573ffffffffffffffffffffffffffffffffffffffff1673ffffffffffffffffffffffffffffffffffffffff168152602001908152602001600020819055508273ffffffffffffffffffffffffffffffffffffffff163373ffffffffffffffffffffffffffffffffffffffff167f8c5be1e5ebec7d5bd14f71427d1e84f3dd0314c0f7b2291e5b200ac8c7c3b925600260003373ffffffffffffffffffffffffffffffffffffffff1673ffffffffffffffffffffffffffffffffffffffff16815260200190815260200160002060008773ffffffffffffffffffffffffffffffffffffffff1673ffffffffffffffffffffffffffffffffffffffff168152602001908152602001600020546040518082815260200191505060405180910390a36001905092915050565b6000612aa06132fa565b73ffffffffffffffffffffffffffffffffffffffff163373ffffffffffffffffffffffffffffffffffffffff16141515612ad957600080fd5b60136000836000191660001916815260200190815260200160002060009054906101000a900473ffffffffffffffffffffffffffffffffffffffff169050612b2081613593565b5050565b60185481565b6000600260008473ffffffffffffffffffffffffffffffffffffffff1673ffffffffffffffffffffffffffffffffffffffff16815260200190815260200160002060008373ffffffffffffffffffffffffffffffffffffffff1673ffffffffffffffffffffffffffffffffffffffff16815260200190815260200160002054905092915050565b60008160018303925060028304831792506004830483179250601083048317925061010083048317925062010000830483179250640100000000830483179250680100000000000000008304831792507001000000000000000000000000000000008304831792506001830192506040517ff8f9cbfae6cc78fbefe7cdc3a1793dfcf4f0e8bbd8cec470b6a28a7a5a3e1efd81527ff5ecf1b3e9debc68e1d9cfabc5997135bfb7a7a3938b7b606b5b4b3f2f1f0ffe60208201527ff6e4ed9ff2d6b458eadcdf97bd91692de2d4da8fd2d0ac50c6ae9a827252361660408201527fc8c0b887b0a8a4489c948c7f847c6125746c645c544c444038302820181008ff60608201527ff7cae577eec2a03cf3bad76fb589591debb2dd67e0aa9834bea6925f6a4a2e0e60808201527fe39ed557db96902cd38ed14fad815115c786af479b7e8324736353433727170760a08201527fc976c13bb96e881cb166a933a55e490d9d56952b8d4e801485467d236242260660c08201527f753a6d1b65325d0c552a4d1345224105391a310b29122104190a11030902010060e082015261010081016040527e818283848586878898a8b8c8d8e8f929395969799a9b9d9e9faaeb6bedeeff7f01000000000000000000000000000000000000000000000000000000000000008082870204818160ff038501510495507f8000000000000000000000000000000000000000000000000000000000000000851161010002860195505050505050919050565b6000806000905060006002811115612df157fe5b601c60009054906101000a900460ff166002811115612e0c57fe5b1415612e5657612e4f601554612e41601b54612e3387601a5461356090919063ffffffff16565b6140a290919063ffffffff16565b6130ca90919063ffffffff16565b9050612f50565b60016002811115612e6357fe5b601c60009054906101000a900460ff166002811115612e7e57fe5b1415612ecb57612ec4601554612eb6601b54612ea86002880a601a5461356090919063ffffffff16565b6140a290919063ffffffff16565b6130ca90919063ffffffff16565b9050612f4f565b600280811115612ed757fe5b601c60009054906101000a900460ff166002811115612ef257fe5b1415612f4e576000831415612f0657600192505b612f4b601554612f3d601b54612f2f612f1e88612bb1565b601a5461356090919063ffffffff16565b6140a290919063ffffffff16565b6130ca90919063ffffffff16565b90505b5b5b80915050919050565b600860009054906101000a900473ffffffffffffffffffffffffffffffffffffffff1673ffffffffffffffffffffffffffffffffffffffff163373ffffffffffffffffffffffffffffffffffffffff16141515612fb557600080fd5b600073ffffffffffffffffffffffffffffffffffffffff168173ffffffffffffffffffffffffffffffffffffffff1614151515612ff157600080fd5b8073ffffffffffffffffffffffffffffffffffffffff16600860009054906101000a900473ffffffffffffffffffffffffffffffffffffffff1673ffffffffffffffffffffffffffffffffffffffff167f8be0079c531659141344cd1fd0a4f28419497f9722a3daafe3b4186f6b6457e060405160405180910390a380600860006101000a81548173ffffffffffffffffffffffffffffffffffffffff021916908373ffffffffffffffffffffffffffffffffffffffff16021790555050565b60008282111515156130bf57fe5b818303905092915050565b60008082840190508381101515156130de57fe5b8091505092915050565b6000600360009054906101000a900473ffffffffffffffffffffffffffffffffffffffff1673ffffffffffffffffffffffffffffffffffffffff16148061315957506000613157600360009054906101000a900473ffffffffffffffffffffffffffffffffffffffff166140bd565b145b1561316a5761316860006140c8565b505b600360009054906101000a900473ffffffffffffffffffffffffffffffffffffffff1673ffffffffffffffffffffffffffffffffffffffff166338cc48316000604051602001526040518163ffffffff167c0100000000000000000000000000000000000000000000000000000000028152600401602060405180830381600087803b15156131f857600080fd5b6102c65a03f1151561320957600080fd5b50505060405180519050600460006101000a81548173ffffffffffffffffffffffffffffffffffffffff021916908373ffffffffffffffffffffffffffffffffffffffff160217905550600460009054906101000a900473ffffffffffffffffffffffffffffffffffffffff1673ffffffffffffffffffffffffffffffffffffffff1663ca6ad1e4826040518263ffffffff167c010000000000000000000000000000000000000000000000000000000002815260040180828152602001915050600060405180830381600087803b15156132e357600080fd5b6102c65a03f115156132f457600080fd5b50505050565b600080600360009054906101000a900473ffffffffffffffffffffffffffffffffffffffff1673ffffffffffffffffffffffffffffffffffffffff16148061336c5750600061336a600360009054906101000a900473ffffffffffffffffffffffffffffffffffffffff166140bd565b145b1561337d5761337b60006140c8565b505b600360009054906101000a900473ffffffffffffffffffffffffffffffffffffffff1673ffffffffffffffffffffffffffffffffffffffff166338cc48316000604051602001526040518163ffffffff167c0100000000000000000000000000000000000000000000000000000000028152600401602060405180830381600087803b151561340b57600080fd5b6102c65a03f1151561341c57600080fd5b50505060405180519050600460006101000a81548173ffffffffffffffffffffffffffffffffffffffff021916908373ffffffffffffffffffffffffffffffffffffffff160217905550600460009054906101000a900473ffffffffffffffffffffffffffffffffffffffff1673ffffffffffffffffffffffffffffffffffffffff1663c281d19e6000604051602001526040518163ffffffff167c0100000000000000000000000000000000000000000000000000000000028152600401602060405180830381600087803b15156134f457600080fd5b6102c65a03f1151561350557600080fd5b50505060405180519050905090565b61351f600054612ddd565b6016819055507f6107240b152f88c02cc96226ebe928f44aa7767097ec63deb754607d21162c9d6016546040518082815260200191505060405180910390a1565b60008082840290506000841480613581575082848281151561357e57fe5b04145b151561358957fe5b8091505092915050565b6000806000806000806000600e60008973ffffffffffffffffffffffffffffffffffffffff1673ffffffffffffffffffffffffffffffffffffffff16815260200190815260200160002060010154965060008714156135f157600080fd5b86600b60009054906101000a900473ffffffffffffffffffffffffffffffffffffffff1673ffffffffffffffffffffffffffffffffffffffff1663dd62ed3e8a306000604051602001526040518363ffffffff167c0100000000000000000000000000000000000000000000000000000000028152600401808373ffffffffffffffffffffffffffffffffffffffff1673ffffffffffffffffffffffffffffffffffffffff1681526020018273ffffffffffffffffffffffffffffffffffffffff1673ffffffffffffffffffffffffffffffffffffffff16815260200192505050602060405180830381600087803b15156136eb57600080fd5b6102c65a03f115156136fc57600080fd5b50505060405180519050101561384857613763600e60008a73ffffffffffffffffffffffffffffffffffffffff1673ffffffffffffffffffffffffffffffffffffffff168152602001908152602001600020600101546010546130b190919063ffffffff16565b6010819055506000600e60008a73ffffffffffffffffffffffffffffffffffffffff1673ffffffffffffffffffffffffffffffffffffffff16815260200190815260200160002060000160016101000a81548160ff0219169083151502179055506137da6001600f546130ca90919063ffffffff16565b600f819055507fc36312e417227e43b5137e72ded3ad9810ddf4447e9590ba2b433ce90cab9fb788604051808273ffffffffffffffffffffffffffffffffffffffff1673ffffffffffffffffffffffffffffffffffffffff16815260200191505060405180910390a1613e0c565b61385288886116d8565b809650819750505061386f6012548761356090919063ffffffff16565b93506138c8601254600e60008b73ffffffffffffffffffffffffffffffffffffffff1673ffffffffffffffffffffffffffffffffffffffff1681526020019081526020016000206002015461356090919063ffffffff16565b92506138dd83856140a290919063ffffffff16565b91506138f282876130b190919063ffffffff16565b905061394982600e60008b73ffffffffffffffffffffffffffffffffffffffff1673ffffffffffffffffffffffffffffffffffffffff168152602001908152602001600020600301546130ca90919063ffffffff16565b600e60008a73ffffffffffffffffffffffffffffffffffffffff1673ffffffffffffffffffffffffffffffffffffffff168152602001908152602001600020600301819055506139e481600e60008b73ffffffffffffffffffffffffffffffffffffffff1673ffffffffffffffffffffffffffffffffffffffff168152602001908152602001600020600401546130ca90919063ffffffff16565b600e60008a73ffffffffffffffffffffffffffffffffffffffff1673ffffffffffffffffffffffffffffffffffffffff1681526020019081526020016000206004018190555042600e60008a73ffffffffffffffffffffffffffffffffffffffff1673ffffffffffffffffffffffffffffffffffffffff16815260200190815260200160002060070181905550613ac381600160008b73ffffffffffffffffffffffffffffffffffffffff1673ffffffffffffffffffffffffffffffffffffffff168152602001908152602001600020546130b190919063ffffffff16565b600160008a73ffffffffffffffffffffffffffffffffffffffff1673ffffffffffffffffffffffffffffffffffffffff16815260200190815260200160002081905550613b7a8160016000600860009054906101000a900473ffffffffffffffffffffffffffffffffffffffff1673ffffffffffffffffffffffffffffffffffffffff1673ffffffffffffffffffffffffffffffffffffffff168152602001908152602001600020546130ca90919063ffffffff16565b60016000600860009054906101000a900473ffffffffffffffffffffffffffffffffffffffff1673ffffffffffffffffffffffffffffffffffffffff1673ffffffffffffffffffffffffffffffffffffffff16815260200190815260200160002081905550600e60008973ffffffffffffffffffffffffffffffffffffffff1673ffffffffffffffffffffffffffffffffffffffff16815260200190815260200160002060000160019054906101000a900460ff161515613d0a576001600e60008a73ffffffffffffffffffffffffffffffffffffffff1673ffffffffffffffffffffffffffffffffffffffff16815260200190815260200160002060000160016101000a81548160ff021916908315150217905550613ce7600e60008a73ffffffffffffffffffffffffffffffffffffffff1673ffffffffffffffffffffffffffffffffffffffff168152602001908152602001600020600101546010546130ca90919063ffffffff16565b601081905550613d036001600f546130ca90919063ffffffff16565b600f819055505b7f737c69225d647e5994eab1a6c301bf6d9232beb2759ae1e27a8966b4732bc4898883604051808373ffffffffffffffffffffffffffffffffffffffff1673ffffffffffffffffffffffffffffffffffffffff1681526020018281526020019250505060405180910390a17f737c69225d647e5994eab1a6c301bf6d9232beb2759ae1e27a8966b4732bc489600860009054906101000a900473ffffffffffffffffffffffffffffffffffffffff1682604051808373ffffffffffffffffffffffffffffffffffffffff1673ffffffffffffffffffffffffffffffffffffffff1681526020018281526020019250505060405180910390a1613e0b88614560565b5b5050505050505050565b600080600360009054906101000a900473ffffffffffffffffffffffffffffffffffffffff1673ffffffffffffffffffffffffffffffffffffffff161480613e8857506000613e86600360009054906101000a900473ffffffffffffffffffffffffffffffffffffffff166140bd565b145b15613e9957613e9760006140c8565b505b600360009054906101000a900473ffffffffffffffffffffffffffffffffffffffff1673ffffffffffffffffffffffffffffffffffffffff166338cc48316000604051602001526040518163ffffffff167c0100000000000000000000000000000000000000000000000000000000028152600401602060405180830381600087803b1515613f2757600080fd5b6102c65a03f11515613f3857600080fd5b50505060405180519050600460006101000a81548173ffffffffffffffffffffffffffffffffffffffff021916908373ffffffffffffffffffffffffffffffffffffffff160217905550600460009054906101000a900473ffffffffffffffffffffffffffffffffffffffff1673ffffffffffffffffffffffffffffffffffffffff1663524f3889836000604051602001526040518263ffffffff167c01000000000000000000000000000000000000000000000000000000000281526004018080602001828103825283818151815260200191508051906020019080838360005b8381101561403557808201518184015260208101905061401a565b50505050905090810190601f1680156140625780820380516001836020036101000a031916815260200191505b5092505050602060405180830381600087803b151561408057600080fd5b6102c65a03f1151561409157600080fd5b505050604051805190509050919050565b60008082848115156140b057fe5b0490508091505092915050565b6000813b9050919050565b6000806140e8731d3b2638a7cc9f2cb3d298a3da7a90b67e5506ed6140bd565b111561418a57731d3b2638a7cc9f2cb3d298a3da7a90b67e5506ed600360006101000a81548173ffffffffffffffffffffffffffffffffffffffff021916908373ffffffffffffffffffffffffffffffffffffffff1602179055506141816040805190810160405280600b81526020017f6574685f6d61696e6e65740000000000000000000000000000000000000000008152506147f5565b6001905061455b565b60006141a973c03a2615d5efaf5f49f60b7bb6583eaec212fdf16140bd565b111561424b5773c03a2615d5efaf5f49f60b7bb6583eaec212fdf1600360006101000a81548173ffffffffffffffffffffffffffffffffffffffff021916908373ffffffffffffffffffffffffffffffffffffffff1602179055506142426040805190810160405280600c81526020017f6574685f726f707374656e3300000000000000000000000000000000000000008152506147f5565b6001905061455b565b600061426a73b7a07bcf2ba2f2703b24c0691b5278999c59ac7e6140bd565b111561430c5773b7a07bcf2ba2f2703b24c0691b5278999c59ac7e600360006101000a81548173ffffffffffffffffffffffffffffffffffffffff021916908373ffffffffffffffffffffffffffffffffffffffff1602179055506143036040805190810160405280600981526020017f6574685f6b6f76616e00000000000000000000000000000000000000000000008152506147f5565b6001905061455b565b600061432b73146500cfd35b22e4a392fe0adc06de1a1368ed486140bd565b11156143cd5773146500cfd35b22e4a392fe0adc06de1a1368ed48600360006101000a81548173ffffffffffffffffffffffffffffffffffffffff021916908373ffffffffffffffffffffffffffffffffffffffff1602179055506143c46040805190810160405280600b81526020017f6574685f72696e6b6562790000000000000000000000000000000000000000008152506147f5565b6001905061455b565b60006143ec736f485c8bf6fc43ea212e93bbf8ce046c7f1cb4756140bd565b111561445057736f485c8bf6fc43ea212e93bbf8ce046c7f1cb475600360006101000a81548173ffffffffffffffffffffffffffffffffffffffff021916908373ffffffffffffffffffffffffffffffffffffffff1602179055506001905061455b565b600061446f7320e12a1f859b3feae5fb2a0a32c18f5a65555bbf6140bd565b11156144d3577320e12a1f859b3feae5fb2a0a32c18f5a65555bbf600360006101000a81548173ffffffffffffffffffffffffffffffffffffffff021916908373ffffffffffffffffffffffffffffffffffffffff1602179055506001905061455b565b60006144f27351efaf4c8b3c9afbd5ab9f4bbc82784ab6ef8faa6140bd565b1115614556577351efaf4c8b3c9afbd5ab9f4bbc82784ab6ef8faa600360006101000a81548173ffffffffffffffffffffffffffffffffffffffff021916908373ffffffffffffffffffffffffffffffffffffffff1602179055506001905061455b565b600090505b919050565b6000803073ffffffffffffffffffffffffffffffffffffffff16316145b96040805190810160405280600381526020017f55524c0000000000000000000000000000000000000000000000000000000000815250613e16565b11156146fb576000600e60008573ffffffffffffffffffffffffffffffffffffffff1673ffffffffffffffffffffffffffffffffffffffff16815260200190815260200160002060000160016101000a81548160ff021916908315150217905550614671600e60008573ffffffffffffffffffffffffffffffffffffffff1673ffffffffffffffffffffffffffffffffffffffff168152602001908152602001600020600101546010546130b190919063ffffffff16565b60108190555061468d6001600f546130ca90919063ffffffff16565b600f819055507fb10231f33db4fec56f59c6d6715b0c4cbf2586c2d743cad823185d6cfce5570683604051808273ffffffffffffffffffffffffffffffffffffffff1673ffffffffffffffffffffffffffffffffffffffff16815260200191505060405180910390a16147f0565b600e60008473ffffffffffffffffffffffffffffffffffffffff1673ffffffffffffffffffffffffffffffffffffffff168152602001908152602001600020600501549150614793826040805190810160405280600381526020017f55524c00000000000000000000000000000000000000000000000000000000008152506020604051908101604052806000815250600c5461480f565b90508260136000836000191660001916815260200190815260200160002060006101000a81548173ffffffffffffffffffffffffffffffffffffffff021916908373ffffffffffffffffffffffffffffffffffffffff1602179055505b505050565b806005908051906020019061480b929190614c63565b5050565b6000806000600360009054906101000a900473ffffffffffffffffffffffffffffffffffffffff1673ffffffffffffffffffffffffffffffffffffffff16148061488357506000614881600360009054906101000a900473ffffffffffffffffffffffffffffffffffffffff166140bd565b145b156148945761489260006140c8565b505b600360009054906101000a900473ffffffffffffffffffffffffffffffffffffffff1673ffffffffffffffffffffffffffffffffffffffff166338cc48316000604051602001526040518163ffffffff167c0100000000000000000000000000000000000000000000000000000000028152600401602060405180830381600087803b151561492257600080fd5b6102c65a03f1151561493357600080fd5b50505060405180519050600460006101000a81548173ffffffffffffffffffffffffffffffffffffffff021916908373ffffffffffffffffffffffffffffffffffffffff160217905550600460009054906101000a900473ffffffffffffffffffffffffffffffffffffffff1673ffffffffffffffffffffffffffffffffffffffff16632ef3accc86856000604051602001526040518363ffffffff167c01000000000000000000000000000000000000000000000000000000000281526004018080602001838152602001828103825284818151815260200191508051906020019080838360005b83811015614a37578082015181840152602081019050614a1c565b50505050905090810190601f168015614a645780820380516001836020036101000a031916815260200191505b509350505050602060405180830381600087803b1515614a8357600080fd5b6102c65a03f11515614a9457600080fd5b505050604051805190509050823a02670de0b6b3a764000001811115614ac05760006001029150614c5a565b600460009054906101000a900473ffffffffffffffffffffffffffffffffffffffff1673ffffffffffffffffffffffffffffffffffffffff1663c51be90f82888888886000604051602001526040518663ffffffff167c0100000000000000000000000000000000000000000000000000000000028152600401808581526020018060200180602001848152602001838103835286818151815260200191508051906020019080838360005b83811015614b87578082015181840152602081019050614b6c565b50505050905090810190601f168015614bb45780820380516001836020036101000a031916815260200191505b50838103825285818151815260200191508051906020019080838360005b83811015614bed578082015181840152602081019050614bd2565b50505050905090810190601f168015614c1a5780820380516001836020036101000a031916815260200191505b5096505050505050506020604051808303818588803b1515614c3b57600080fd5b6125ee5a03f11515614c4c57600080fd5b505050506040518051905091505b50949350505050565b828054600181600116156101000203166002900490600052602060002090601f016020900481019282601f10614ca457805160ff1916838001178555614cd2565b82800160010185558215614cd2579182015b82811115614cd1578251825591602001919060010190614cb6565b5b509050614cdf9190614ce3565b5090565b614d0591905b80821115614d01576000816000905550600101614ce9565b5090565b905600a165627a7a723058206a6efa135a5e2f897a469d51283ec4b56072c135813e0e479a6b71a695f832f90029",
  "source": "pragma solidity ^0.4.17;\n/**\n * The Patron contract does this and that...\n */\n\n import 'zeppelin/contracts/token/StandardToken.sol';\n import 'zeppelin/contracts/ownership/Ownable.sol';\n import 'oraclize/contracts/usingOraclize.sol';\n\n contract Patron is StandardToken, usingOraclize, Ownable {\n\n  string public name ;\n  string public symbol;\n  uint8 public constant decimals = 18;\n  uint256 public constant INITIAL_SUPPLY = 10;\n\n  StandardToken public baseToken;\n\n  uint256 public oraclizeGasLimit = 200000;\n  uint256 public oraclizeGasPrice = 4000000000;\n\n  mapping (address => Subscription) subscriptions;\n  uint256 activeSubscribers;\n  uint256 monthlyProjected;\n\n  address[] subscriptionKeys;\n  uint256 subscriptionPercentMultiplyer = 1000;\n  struct Subscription {\n    bool exists;\n    bool active;\n\n    uint256 amount;\n    uint256 percentToPatron; //  max 100\n\n    uint256 toPatronTotal;\n    uint256 toOwnerTotal;\n    uint256 interval;\n    uint256 start;\n    uint256 last;\n  }\n  mapping (bytes32 => address) oraclizeIds;\n\n  uint256 public baseDivisionHelper;\n  uint256 public baseCost = 0; // 1 ETH / baseToken\n  uint256 public costPerToken = 0; // 1 baseToken / token\n  uint256 public totalEverMinted;\n  uint256 public totalEverWithdrawn;\n  uint256 public poolBalance;\n  uint256 public graphMultiplyer; // max 10000 (fraction)\n  uint256 public graphMultiplyerDivisor = 10000;\n  enum GraphType { GraphLinear, GraphExponential, GraphLogarithmic }\n  GraphType graphType;\n\n\n  /* events */\n  event LogUint(uint number);\n  event Paid(address patron, uint256 amount);\n  event AlertEmptyPledge(address patron);\n  event AlertEmptyOracle(address patron);\n  event LogCostOfTokenUpdate(uint costOfTokenUpdate);\n  event LogMint(uint256 totalMinted, uint256 totalCost);\n  event LogUnmint(uint256 totalMinted, uint256 totalCost);\n\n  function Patron (string _name, string _symbol, address _baseToken, uint256 baseTokenDecimals, uint256 _graphType, uint256 _graphMultiplyer) payable {\n    name = _name;\n    symbol = _symbol;\n\n    baseToken = StandardToken(_baseToken);\n    baseDivisionHelper = 10**baseTokenDecimals;\n\n    if (_graphType == 2) {\n      graphType = GraphType.GraphLogarithmic;\n    } else if (_graphType == 1) {\n      graphType = GraphType.GraphExponential;\n    } else {\n      graphType = GraphType.GraphLinear;\n    }\n\n    graphMultiplyer =_graphMultiplyer;\n    updateCostOfToken();\n    OAR = OraclizeAddrResolverI(0x6f485C8BF6fc43eA212E93BBF8ce046C7f1cb475);\n  }\n\n\n  function returnSubscriptionsLength() public constant returns(uint256 length) {\n    return subscriptionKeys.length;\n  }\n  function returnPatronByKey(uint256 subscriptionKey) public constant returns(bool active, uint256 amount, uint256 percentToPatron, uint256 toPatronTotal, uint256 toOwnerTotal, uint256 start, uint256 last) {\n    address patron = subscriptionKeys[subscriptionKey];\n    return returnPatronByAddress(patron);\n  }\n  function returnPatronByAddress(address patron) public constant returns(bool active, uint256 amount, uint256 percentToPatron, uint256 toPatronTotal, uint256 toOwnerTotal, uint256 start, uint256 last) {\n    Subscription s = subscriptions[patron];\n    return (s.active, s.amount, s.percentToPatron, s.toPatronTotal, s.toOwnerTotal, s.start, s.last);\n  }\n\n\n  function mint(address patron, uint256 amount) public returns (uint256, uint256) {\n    if (msg.sender != patron && msg.sender != oraclize_cbAddress() && patron != owner) revert();\n    if (amount == 0) revert();\n\n    uint256 totalMinted;\n    uint256 totalCost;\n\n    (totalMinted, totalCost) = calculateMintTokenPerToken(amount);\n    if (totalCost == 0) revert();\n\n    totalEverMinted = totalEverMinted.add(totalMinted);\n    totalSupply = totalSupply.add(totalMinted);\n    balances[patron] = balances[patron].add(totalMinted);\n    poolBalance = poolBalance.add(totalCost);\n\n    updateCostOfToken();\n\n    if (!baseToken.transferFrom(patron, address(this), totalCost)) revert();\n\n    LogMint(totalMinted, totalCost);\n    return (totalMinted, totalCost);\n  }\n\n  function calculateMintTokenPerToken (uint256 amount) public constant returns (uint256 totalMinted, uint256 totalCost) {\n    // uint256 totalMinted = 0;\n    // uint256 totalCost = 0;\n    //for loop to determine cost at each point.\n    uint256 tmpCostPerToken = costPerToken.mul(baseDivisionHelper);\n    for(uint i = 0; totalCost < amount; i = i.add(1)) {\n      if(totalCost.add(tmpCostPerToken) <= amount) {\n        totalCost = totalCost.add(tmpCostPerToken);\n        totalMinted = totalMinted.add(baseDivisionHelper.mul(1));\n        tmpCostPerToken = currentCostOfToken(totalSupply.add(i.mul(baseDivisionHelper)));\n      } else {\n        break;\n      }\n    }\n    return (totalMinted, totalCost);\n  }\n\n  // sell\n  function unmint (address patron, uint256 amount) public returns(uint256 totalCost){\n    if (msg.sender != patron && msg.sender != oraclize_cbAddress() && patron != owner) revert();\n    if (amount == 0) revert();\n    if (amount > balances[patron]) revert();\n\n\n    totalCost = calculateUnmintTokenPerToken(amount);\n\n\n    totalEverMinted = totalEverMinted.sub(amount);\n    totalSupply = totalSupply.sub(amount);\n    balances[patron] = balances[patron].sub(amount);\n    poolBalance = poolBalance.sub(totalCost);\n    \n    updateCostOfToken();\n    if (!baseToken.transferFrom(address(this), patron, totalCost)) revert();\n    LogUnmint(amount, totalCost);\n    return totalCost;\n  }\n\n  // function calculateUnmintTokenPerToken (uint256 amount) public constant returns (uint256 totalUnminted, uint256 totalCost) {\n  //   // uint256 totalUnminted = 0;\n  //   // uint256 totalCost = 0;\n  //   //for loop to determine cost at each point.\n  //   uint256 tmpCostPerToken = costPerToken.mul(baseDivisionHelper);\n  //   for(uint i = 0; totalUnminted <= amount; i = i.add(1)) {\n  //     totalCost = totalCost.add(tmpCostPerToken);\n  //     totalUnminted = totalUnminted.add(baseDivisionHelper.mul(1));\n  //     tmpCostPerToken = currentCostOfToken(totalSupply.sub(i.mul(baseDivisionHelper)));\n  //   }\n  //   return (totalUnminted, totalCost);\n  // }\n\n  function calculateUnmintTokenPerToken (uint256 totalUnminted) public constant returns (uint256 totalCost) {\n    uint256 beginCostPerToken = costPerToken;\n    uint256 endCostPerToken = costPerToken.add(totalUnminted);\n    uint256 averageCostPerToken = beginCostPerToken.add(endCostPerToken).div(2);\n    totalCost = averageCostPerToken.mul(totalUnminted);\n    return totalCost;\n  }\n\n\n  function updateCostOfToken() internal {\n    costPerToken = currentCostOfToken(totalSupply);\n    LogCostOfTokenUpdate(costPerToken);\n  }\n\n  function currentCostOfToken(uint256 _supply) public constant returns (uint _cost) {\n  // function currentCostOfToken(uint256 _supply) internal constant returns (uint _cost) {\n    uint cost = 0;\n\n    if ( graphType == GraphType.GraphLinear ) {\n      // mx + b\n      cost = ( graphMultiplyer.mul(_supply).div(graphMultiplyerDivisor) ).add(baseCost);\n    }\n    else if ( graphType == GraphType.GraphExponential ) {\n      // mx^2 + b\n      cost = ( graphMultiplyer.mul(_supply ** 2).div(graphMultiplyerDivisor) ).add(baseCost);\n    }\n    else if ( graphType == GraphType.GraphLogarithmic ) {\n      // m * log2(x) + b\n      if ( _supply == 0 ) {\n        _supply = 1;\n      }\n      cost = ( graphMultiplyer.mul( fastlog2(_supply) ).div(graphMultiplyerDivisor) ).add(baseCost);\n    }\n    return cost;\n  }\n\n  // SPECTIAL CURVES\n\n  //log based 2 taylor series in assembly\n  function fastlog2(uint x) public pure returns (uint y) {\n    assembly {\n      let arg := x\n      x := sub(x,1)\n      x := or(x, div(x, 0x02))\n      x := or(x, div(x, 0x04))\n      x := or(x, div(x, 0x10))\n      x := or(x, div(x, 0x100))\n      x := or(x, div(x, 0x10000))\n      x := or(x, div(x, 0x100000000))\n      x := or(x, div(x, 0x10000000000000000))\n      x := or(x, div(x, 0x100000000000000000000000000000000))\n      x := add(x, 1)\n      let m := mload(0x40)\n      mstore(m,           0xf8f9cbfae6cc78fbefe7cdc3a1793dfcf4f0e8bbd8cec470b6a28a7a5a3e1efd)\n      mstore(add(m,0x20), 0xf5ecf1b3e9debc68e1d9cfabc5997135bfb7a7a3938b7b606b5b4b3f2f1f0ffe)\n      mstore(add(m,0x40), 0xf6e4ed9ff2d6b458eadcdf97bd91692de2d4da8fd2d0ac50c6ae9a8272523616)\n      mstore(add(m,0x60), 0xc8c0b887b0a8a4489c948c7f847c6125746c645c544c444038302820181008ff)\n      mstore(add(m,0x80), 0xf7cae577eec2a03cf3bad76fb589591debb2dd67e0aa9834bea6925f6a4a2e0e)\n      mstore(add(m,0xa0), 0xe39ed557db96902cd38ed14fad815115c786af479b7e83247363534337271707)\n      mstore(add(m,0xc0), 0xc976c13bb96e881cb166a933a55e490d9d56952b8d4e801485467d2362422606)\n      mstore(add(m,0xe0), 0x753a6d1b65325d0c552a4d1345224105391a310b29122104190a110309020100)\n      mstore(0x40, add(m, 0x100))\n      let magic := 0x818283848586878898a8b8c8d8e8f929395969799a9b9d9e9faaeb6bedeeff\n      let shift := 0x100000000000000000000000000000000000000000000000000000000000000\n      let a := div(mul(x, magic), shift)\n      y := div(mload(add(m,sub(255,a))), shift)\n      y := add(y, mul(256, gt(arg, 0x8000000000000000000000000000000000000000000000000000000000000000)))\n    }\n  }\n\n\n  // subscribe\n  function subscribe (address patron, uint256 amount, uint256 interval, uint256 percentToPatron) public payable {\n    if (amount == 0) revert();\n    if (msg.value == 0) revert();\n    if (patron != msg.sender) revert();\n    if (interval > 4 weeks) revert();\n    if (percentToPatron > 100) revert();\n    if (subscriptions[patron].exists) {\n      executePayment(patron);\n    } else {\n      subscriptions[patron].exists = true;\n      subscriptions[patron].amount = amount;\n      subscriptions[patron].percentToPatron = percentToPatron;\n      subscriptions[patron].interval = interval;\n      subscriptions[patron].start = now;\n      subscriptions[patron].active = true;\n\n      activeSubscribers = activeSubscribers.add(1);\n      monthlyProjected = monthlyProjected.add(amount);\n\n      executePayment(patron);\n    }\n  }\n\n  function updateSubscription (address patron, uint256 amount, uint256 interval, uint256 percentToPatron) public payable {\n    if (!subscriptions[patron].exists) revert();\n    if (percentToPatron > 100) revert();\n    if (amount == 0) {\n      monthlyProjected = monthlyProjected.sub(subscriptions[patron].amount);\n\n      subscriptions[patron].amount = 0;\n      subscriptions[patron].active = false;\n      activeSubscribers = activeSubscribers.add(1);\n    } else {\n      monthlyProjected = monthlyProjected.sub(subscriptions[patron].amount);\n\n      subscriptions[patron].amount = amount;\n      monthlyProjected = monthlyProjected.add(amount);\n\n      subscriptions[patron].percentToPatron = percentToPatron;\n      subscriptions[patron].interval = interval;\n    }\n  }\n\n  function getOraclePrice () public constant returns(uint256) {\n    return oraclize_getPrice(\"URL\").mul(oraclizeGasPrice);\n  }\n\n  function oracle (address patron) private {\n    if (oraclize_getPrice(\"URL\") > this.balance) {\n      subscriptions[patron].active = false;\n      monthlyProjected = monthlyProjected.sub(subscriptions[patron].amount);\n      activeSubscribers = activeSubscribers.add(1);\n      AlertEmptyOracle(patron);\n    } else {\n      uint256 interval = subscriptions[patron].interval;\n      bytes32 queryId = oraclize_query(interval, \"URL\", \"\", oraclizeGasLimit);\n      oraclizeIds[queryId] = patron;\n    }\n  }\n\n  function updateOracleGasPrice (uint newPrice) onlyOwner {\n    oraclizeGasPrice = newPrice;\n    oraclize_setCustomGasPrice(oraclizeGasPrice);\n  }\n\n  function updateOracleGasLimit (uint newPrice) onlyOwner {\n    oraclizeGasLimit = newPrice;\n  }\n\n  function executePayment (address patron) private {\n    uint256 amount = subscriptions[patron].amount;\n    if (amount == 0) revert();\n\n    if (baseToken.allowance(patron, address(this)) < amount) {\n      monthlyProjected = monthlyProjected.sub(subscriptions[patron].amount);\n      subscriptions[patron].active = false;\n      activeSubscribers = activeSubscribers.add(1);\n      AlertEmptyPledge(patron);\n    } else {\n      uint256 totalMinted;\n      uint256 totalCost;\n\n      (totalMinted, totalCost) = mint(patron, amount);\n\n      uint256 amountMultiplied = totalMinted.mul(subscriptionPercentMultiplyer);\n      uint256 percentToPatronMultiplied = subscriptions[patron].percentToPatron.mul(subscriptionPercentMultiplyer);\n\n      uint256 amountToPatron = amountMultiplied.div(percentToPatronMultiplied);\n      uint256 amountToOwner = totalMinted.sub(amountToPatron);\n\n      subscriptions[patron].toPatronTotal = subscriptions[patron].toPatronTotal.add(amountToPatron);\n      subscriptions[patron].toOwnerTotal = subscriptions[patron].toOwnerTotal.add(amountToOwner);\n      subscriptions[patron].last = now;\n\n      balances[patron] = balances[patron].sub(amountToOwner);\n      balances[owner] = balances[owner].add(amountToOwner);\n\n      if (!subscriptions[patron].active) {\n        subscriptions[patron].active = true;\n        monthlyProjected = monthlyProjected.add(subscriptions[patron].amount);\n        activeSubscribers = activeSubscribers.add(1);\n      }\n\n      Paid(patron, amountToPatron);\n      Paid(owner, amountToOwner);\n      oracle(patron);\n    }\n  }\n\n  function __callback(bytes32 queryId) public {\n    if (msg.sender != oraclize_cbAddress()) revert();\n    address patron = oraclizeIds[queryId];\n    executePayment(patron);\n  }\n\n}\n",
  "sourcePath": "/Users/billy/sol/patreth/contracts/Patron.sol",
  "compiler": {
    "name": "solc",
    "version": "0.4.18+commit.9cf6e910.Emscripten.clang"
  },
  "schemaVersion": "1.0.1",
  "updatedAt": "2018-01-30T21:18:15.681Z"
}