{
  "contractName": "Patron",
  "abi": [
    {
      "constant": true,
      "inputs": [],
      "name": "name",
      "outputs": [
        {
          "name": "",
          "type": "string"
        }
      ],
      "payable": false,
      "stateMutability": "view",
      "type": "function"
    },
    {
      "constant": false,
      "inputs": [
        {
          "name": "_spender",
          "type": "address"
        },
        {
          "name": "_value",
          "type": "uint256"
        }
      ],
      "name": "approve",
      "outputs": [
        {
          "name": "",
          "type": "bool"
        }
      ],
      "payable": false,
      "stateMutability": "nonpayable",
      "type": "function"
    },
    {
      "constant": true,
      "inputs": [],
      "name": "totalSupply",
      "outputs": [
        {
          "name": "",
          "type": "uint256"
        }
      ],
      "payable": false,
      "stateMutability": "view",
      "type": "function"
    },
    {
      "constant": false,
      "inputs": [
        {
          "name": "_from",
          "type": "address"
        },
        {
          "name": "_to",
          "type": "address"
        },
        {
          "name": "_value",
          "type": "uint256"
        }
      ],
      "name": "transferFrom",
      "outputs": [
        {
          "name": "",
          "type": "bool"
        }
      ],
      "payable": false,
      "stateMutability": "nonpayable",
      "type": "function"
    },
    {
      "constant": false,
      "inputs": [
        {
          "name": "myid",
          "type": "bytes32"
        },
        {
          "name": "result",
          "type": "string"
        }
      ],
      "name": "__callback",
      "outputs": [],
      "payable": false,
      "stateMutability": "nonpayable",
      "type": "function"
    },
    {
      "constant": false,
      "inputs": [
        {
          "name": "newPrice",
          "type": "uint256"
        }
      ],
      "name": "updateOracleGasPrice",
      "outputs": [],
      "payable": false,
      "stateMutability": "nonpayable",
      "type": "function"
    },
    {
      "constant": true,
      "inputs": [],
      "name": "INITIAL_SUPPLY",
      "outputs": [
        {
          "name": "",
          "type": "uint256"
        }
      ],
      "payable": false,
      "stateMutability": "view",
      "type": "function"
    },
    {
      "constant": true,
      "inputs": [],
      "name": "decimals",
      "outputs": [
        {
          "name": "",
          "type": "uint8"
        }
      ],
      "payable": false,
      "stateMutability": "view",
      "type": "function"
    },
    {
      "constant": false,
      "inputs": [
        {
          "name": "patron",
          "type": "address"
        },
        {
          "name": "amount",
          "type": "uint256"
        }
      ],
      "name": "unmint",
      "outputs": [
        {
          "name": "",
          "type": "bool"
        }
      ],
      "payable": false,
      "stateMutability": "nonpayable",
      "type": "function"
    },
    {
      "constant": false,
      "inputs": [
        {
          "name": "myid",
          "type": "bytes32"
        },
        {
          "name": "result",
          "type": "string"
        },
        {
          "name": "proof",
          "type": "bytes"
        }
      ],
      "name": "__callback",
      "outputs": [],
      "payable": false,
      "stateMutability": "nonpayable",
      "type": "function"
    },
    {
      "constant": true,
      "inputs": [],
      "name": "costPerToken",
      "outputs": [
        {
          "name": "",
          "type": "uint256"
        }
      ],
      "payable": false,
      "stateMutability": "view",
      "type": "function"
    },
    {
      "constant": false,
      "inputs": [
        {
          "name": "patron",
          "type": "address"
        },
        {
          "name": "amount",
          "type": "uint256"
        }
      ],
      "name": "mint",
      "outputs": [
        {
          "name": "",
          "type": "bool"
        }
      ],
      "payable": false,
      "stateMutability": "nonpayable",
      "type": "function"
    },
    {
      "constant": true,
      "inputs": [
        {
          "name": "amount",
          "type": "uint256"
        }
      ],
      "name": "calculateMintTokenPerToken",
      "outputs": [
        {
          "name": "totalMinted",
          "type": "uint256"
        },
        {
          "name": "totalCost",
          "type": "uint256"
        }
      ],
      "payable": false,
      "stateMutability": "view",
      "type": "function"
    },
    {
      "constant": false,
      "inputs": [
        {
          "name": "patron",
          "type": "address"
        },
        {
          "name": "amount",
          "type": "uint256"
        },
        {
          "name": "interval",
          "type": "uint256"
        },
        {
          "name": "percentToPatron",
          "type": "uint256"
        }
      ],
      "name": "subscribe",
      "outputs": [],
      "payable": true,
      "stateMutability": "payable",
      "type": "function"
    },
    {
      "constant": true,
      "inputs": [],
      "name": "oraclizeGasLimit",
      "outputs": [
        {
          "name": "",
          "type": "uint256"
        }
      ],
      "payable": false,
      "stateMutability": "view",
      "type": "function"
    },
    {
      "constant": false,
      "inputs": [
        {
          "name": "_spender",
          "type": "address"
        },
        {
          "name": "_subtractedValue",
          "type": "uint256"
        }
      ],
      "name": "decreaseApproval",
      "outputs": [
        {
          "name": "success",
          "type": "bool"
        }
      ],
      "payable": false,
      "stateMutability": "nonpayable",
      "type": "function"
    },
    {
      "constant": true,
      "inputs": [
        {
          "name": "_owner",
          "type": "address"
        }
      ],
      "name": "balanceOf",
      "outputs": [
        {
          "name": "balance",
          "type": "uint256"
        }
      ],
      "payable": false,
      "stateMutability": "view",
      "type": "function"
    },
    {
      "constant": false,
      "inputs": [
        {
          "name": "patron",
          "type": "address"
        },
        {
          "name": "amount",
          "type": "uint256"
        },
        {
          "name": "interval",
          "type": "uint256"
        },
        {
          "name": "percentToPatron",
          "type": "uint256"
        }
      ],
      "name": "updateSubscription",
      "outputs": [],
      "payable": true,
      "stateMutability": "payable",
      "type": "function"
    },
    {
      "constant": true,
      "inputs": [],
      "name": "graphMultiplyerDivisor",
      "outputs": [
        {
          "name": "",
          "type": "uint256"
        }
      ],
      "payable": false,
      "stateMutability": "view",
      "type": "function"
    },
    {
      "constant": true,
      "inputs": [],
      "name": "graphMultiplyer",
      "outputs": [
        {
          "name": "",
          "type": "uint256"
        }
      ],
      "payable": false,
      "stateMutability": "view",
      "type": "function"
    },
    {
      "constant": true,
      "inputs": [],
      "name": "owner",
      "outputs": [
        {
          "name": "",
          "type": "address"
        }
      ],
      "payable": false,
      "stateMutability": "view",
      "type": "function"
    },
    {
      "constant": true,
      "inputs": [],
      "name": "totalEverMinted",
      "outputs": [
        {
          "name": "",
          "type": "uint256"
        }
      ],
      "payable": false,
      "stateMutability": "view",
      "type": "function"
    },
    {
      "constant": true,
      "inputs": [],
      "name": "baseCost",
      "outputs": [
        {
          "name": "",
          "type": "uint256"
        }
      ],
      "payable": false,
      "stateMutability": "view",
      "type": "function"
    },
    {
      "constant": false,
      "inputs": [
        {
          "name": "newPrice",
          "type": "uint256"
        }
      ],
      "name": "updateOracleGasLimit",
      "outputs": [],
      "payable": false,
      "stateMutability": "nonpayable",
      "type": "function"
    },
    {
      "constant": true,
      "inputs": [],
      "name": "symbol",
      "outputs": [
        {
          "name": "",
          "type": "string"
        }
      ],
      "payable": false,
      "stateMutability": "view",
      "type": "function"
    },
    {
      "constant": true,
      "inputs": [],
      "name": "poolBalance",
      "outputs": [
        {
          "name": "",
          "type": "uint256"
        }
      ],
      "payable": false,
      "stateMutability": "view",
      "type": "function"
    },
    {
      "constant": true,
      "inputs": [],
      "name": "baseDivisionHelper",
      "outputs": [
        {
          "name": "",
          "type": "uint256"
        }
      ],
      "payable": false,
      "stateMutability": "view",
      "type": "function"
    },
    {
      "constant": true,
      "inputs": [
        {
          "name": "amount",
          "type": "uint256"
        }
      ],
      "name": "calculateUnmintTokenPerToken",
      "outputs": [
        {
          "name": "totalUnminted",
          "type": "uint256"
        },
        {
          "name": "totalCost",
          "type": "uint256"
        }
      ],
      "payable": false,
      "stateMutability": "view",
      "type": "function"
    },
    {
      "constant": false,
      "inputs": [
        {
          "name": "_to",
          "type": "address"
        },
        {
          "name": "_value",
          "type": "uint256"
        }
      ],
      "name": "transfer",
      "outputs": [
        {
          "name": "",
          "type": "bool"
        }
      ],
      "payable": false,
      "stateMutability": "nonpayable",
      "type": "function"
    },
    {
      "constant": true,
      "inputs": [],
      "name": "baseToken",
      "outputs": [
        {
          "name": "",
          "type": "address"
        }
      ],
      "payable": false,
      "stateMutability": "view",
      "type": "function"
    },
    {
      "constant": true,
      "inputs": [],
      "name": "oraclizeGasPrice",
      "outputs": [
        {
          "name": "",
          "type": "uint256"
        }
      ],
      "payable": false,
      "stateMutability": "view",
      "type": "function"
    },
    {
      "constant": false,
      "inputs": [
        {
          "name": "_spender",
          "type": "address"
        },
        {
          "name": "_addedValue",
          "type": "uint256"
        }
      ],
      "name": "increaseApproval",
      "outputs": [
        {
          "name": "success",
          "type": "bool"
        }
      ],
      "payable": false,
      "stateMutability": "nonpayable",
      "type": "function"
    },
    {
      "constant": false,
      "inputs": [
        {
          "name": "queryId",
          "type": "bytes32"
        }
      ],
      "name": "__callback",
      "outputs": [],
      "payable": false,
      "stateMutability": "nonpayable",
      "type": "function"
    },
    {
      "constant": true,
      "inputs": [],
      "name": "totalEverWithdrawn",
      "outputs": [
        {
          "name": "",
          "type": "uint256"
        }
      ],
      "payable": false,
      "stateMutability": "view",
      "type": "function"
    },
    {
      "constant": true,
      "inputs": [
        {
          "name": "_owner",
          "type": "address"
        },
        {
          "name": "_spender",
          "type": "address"
        }
      ],
      "name": "allowance",
      "outputs": [
        {
          "name": "remaining",
          "type": "uint256"
        }
      ],
      "payable": false,
      "stateMutability": "view",
      "type": "function"
    },
    {
      "constant": true,
      "inputs": [
        {
          "name": "x",
          "type": "uint256"
        }
      ],
      "name": "fastlog2",
      "outputs": [
        {
          "name": "y",
          "type": "uint256"
        }
      ],
      "payable": false,
      "stateMutability": "pure",
      "type": "function"
    },
    {
      "constant": true,
      "inputs": [
        {
          "name": "_supply",
          "type": "uint256"
        }
      ],
      "name": "currentCostOfToken",
      "outputs": [
        {
          "name": "_cost",
          "type": "uint256"
        }
      ],
      "payable": false,
      "stateMutability": "view",
      "type": "function"
    },
    {
      "constant": false,
      "inputs": [
        {
          "name": "newOwner",
          "type": "address"
        }
      ],
      "name": "transferOwnership",
      "outputs": [],
      "payable": false,
      "stateMutability": "nonpayable",
      "type": "function"
    },
    {
      "inputs": [
        {
          "name": "_name",
          "type": "string"
        },
        {
          "name": "_symbol",
          "type": "string"
        },
        {
          "name": "_baseToken",
          "type": "address"
        },
        {
          "name": "baseTokenDecimals",
          "type": "uint256"
        },
        {
          "name": "_graphType",
          "type": "uint256"
        },
        {
          "name": "_graphMultiplyer",
          "type": "uint256"
        }
      ],
      "payable": true,
      "stateMutability": "payable",
      "type": "constructor"
    },
    {
      "anonymous": false,
      "inputs": [
        {
          "indexed": false,
          "name": "number",
          "type": "uint256"
        }
      ],
      "name": "LogUint",
      "type": "event"
    },
    {
      "anonymous": false,
      "inputs": [
        {
          "indexed": false,
          "name": "patron",
          "type": "address"
        },
        {
          "indexed": false,
          "name": "amount",
          "type": "uint256"
        }
      ],
      "name": "Paid",
      "type": "event"
    },
    {
      "anonymous": false,
      "inputs": [
        {
          "indexed": false,
          "name": "patron",
          "type": "address"
        }
      ],
      "name": "AlertEmptyPledge",
      "type": "event"
    },
    {
      "anonymous": false,
      "inputs": [
        {
          "indexed": false,
          "name": "patron",
          "type": "address"
        }
      ],
      "name": "AlertEmptyOracle",
      "type": "event"
    },
    {
      "anonymous": false,
      "inputs": [
        {
          "indexed": false,
          "name": "costOfTokenUpdate",
          "type": "uint256"
        }
      ],
      "name": "LogCostOfTokenUpdate",
      "type": "event"
    },
    {
      "anonymous": false,
      "inputs": [
        {
          "indexed": false,
          "name": "totalMinted",
          "type": "uint256"
        },
        {
          "indexed": false,
          "name": "totalCost",
          "type": "uint256"
        }
      ],
      "name": "LogMint",
      "type": "event"
    },
    {
      "anonymous": false,
      "inputs": [
        {
          "indexed": false,
          "name": "totalMinted",
          "type": "uint256"
        },
        {
          "indexed": false,
          "name": "totalCost",
          "type": "uint256"
        }
      ],
      "name": "LogUnmint",
      "type": "event"
    },
    {
      "anonymous": false,
      "inputs": [
        {
          "indexed": true,
          "name": "previousOwner",
          "type": "address"
        },
        {
          "indexed": true,
          "name": "newOwner",
          "type": "address"
        }
      ],
      "name": "OwnershipTransferred",
      "type": "event"
    },
    {
      "anonymous": false,
      "inputs": [
        {
          "indexed": true,
          "name": "owner",
          "type": "address"
        },
        {
          "indexed": true,
          "name": "spender",
          "type": "address"
        },
        {
          "indexed": false,
          "name": "value",
          "type": "uint256"
        }
      ],
      "name": "Approval",
      "type": "event"
    },
    {
      "anonymous": false,
      "inputs": [
        {
          "indexed": true,
          "name": "from",
          "type": "address"
        },
        {
          "indexed": true,
          "name": "to",
          "type": "address"
        },
        {
          "indexed": false,
          "name": "value",
          "type": "uint256"
        }
      ],
      "name": "Transfer",
      "type": "event"
    }
  ],
  "bytecode": "0x606060405262030d40600c5563ee6b2800600d556103e860125560006015556000601655612710601b556040516200511c3803806200511c8339810160405280805182019190602001805182019190602001805190602001909190805190602001909190805190602001909190805190602001909190505033600860006101000a81548173ffffffffffffffffffffffffffffffffffffffff021916908373ffffffffffffffffffffffffffffffffffffffff1602179055508560099080519060200190620000d0929190620007b1565b5084600a9080519060200190620000e9929190620007b1565b5083600b60006101000a81548173ffffffffffffffffffffffffffffffffffffffff021916908373ffffffffffffffffffffffffffffffffffffffff16021790555082600a0a60148190555060028214156200016a576002601c60006101000a81548160ff021916908360028111156200015f57fe5b0217905550620001c6565b60018214156200019f576001601c60006101000a81548160ff021916908360028111156200019457fe5b0217905550620001c5565b6000601c60006101000a81548160ff02191690836002811115620001bf57fe5b02179055505b5b80601a81905550620001eb6200024c640100000000026200323e176401000000009004565b736f485c8bf6fc43ea212e93bbf8ce046c7f1cb475600360006101000a81548173ffffffffffffffffffffffffffffffffffffffff021916908373ffffffffffffffffffffffffffffffffffffffff16021790555050505050505062000860565b6200026d600054620002ae6401000000000262002acf176401000000009004565b6016819055507f6107240b152f88c02cc96226ebe928f44aa7767097ec63deb754607d21162c9d6016546040518082815260200191505060405180910390a1565b6000806000905060006002811115620002c357fe5b601c60009054906101000a900460ff166002811115620002df57fe5b141562000393577f0ac68d08c5119b8cdb4058edbf0d4168f208ec3935d26a8f1f0d92eb9d4de8bf60016040518082815260200191505060405180910390a16200038b6015546200036e601b546200035187601a5462000514640100000000026200328a179091906401000000009004565b6200054a640100000000026200398e179091906401000000009004565b620005666401000000000262002df4179091906401000000009004565b90506200050b565b60016002811115620003a157fe5b601c60009054906101000a900460ff166002811115620003bd57fe5b14156200043c576200043460155462000417601b54620003fa6002880a601a5462000514640100000000026200328a179091906401000000009004565b6200054a640100000000026200398e179091906401000000009004565b620005666401000000000262002df4179091906401000000009004565b90506200050a565b6002808111156200044957fe5b601c60009054906101000a900460ff1660028111156200046557fe5b1415620005095760008314156200047b57600192505b62000506601554620004e9601b54620004cc620004ac886200058564010000000002620028a3176401000000009004565b601a5462000514640100000000026200328a179091906401000000009004565b6200054a640100000000026200398e179091906401000000009004565b620005666401000000000262002df4179091906401000000009004565b90505b5b5b80915050919050565b600080828402905060008414806200053757508284828115156200053457fe5b04145b15156200054057fe5b8091505092915050565b60008082848115156200055957fe5b0490508091505092915050565b60008082840190508381101515156200057b57fe5b8091505092915050565b60008160018303925060028304831792506004830483179250601083048317925061010083048317925062010000830483179250640100000000830483179250680100000000000000008304831792507001000000000000000000000000000000008304831792506001830192506040517ff8f9cbfae6cc78fbefe7cdc3a1793dfcf4f0e8bbd8cec470b6a28a7a5a3e1efd81527ff5ecf1b3e9debc68e1d9cfabc5997135bfb7a7a3938b7b606b5b4b3f2f1f0ffe60208201527ff6e4ed9ff2d6b458eadcdf97bd91692de2d4da8fd2d0ac50c6ae9a827252361660408201527fc8c0b887b0a8a4489c948c7f847c6125746c645c544c444038302820181008ff60608201527ff7cae577eec2a03cf3bad76fb589591debb2dd67e0aa9834bea6925f6a4a2e0e60808201527fe39ed557db96902cd38ed14fad815115c786af479b7e8324736353433727170760a08201527fc976c13bb96e881cb166a933a55e490d9d56952b8d4e801485467d236242260660c08201527f753a6d1b65325d0c552a4d1345224105391a310b29122104190a11030902010060e082015261010081016040527e818283848586878898a8b8c8d8e8f929395969799a9b9d9e9faaeb6bedeeff7f01000000000000000000000000000000000000000000000000000000000000008082870204818160ff038501510495507f8000000000000000000000000000000000000000000000000000000000000000851161010002860195505050505050919050565b828054600181600116156101000203166002900490600052602060002090601f016020900481019282601f10620007f457805160ff191683800117855562000825565b8280016001018555821562000825579182015b828111156200082457825182559160200191906001019062000807565b5b50905062000834919062000838565b5090565b6200085d91905b80821115620008595760008160009055506001016200083f565b5090565b90565b6148ac80620008706000396000f3006060604052600436106101d8576000357c0100000000000000000000000000000000000000000000000000000000900463ffffffff16806306fdde03146101dd578063095ea7b31461026b57806318160ddd146102c557806323b872dd146102ee57806327dc297e146103675780632c51114e146103d15780632ff2e9dc146103f4578063313ce5671461041d5780633537c2581461044c57806338bbfa50146104a65780633ba523c71461055357806340c10f191461057c57806343d58c4d146105d65780634907cd0f1461061457806350b9c4281461065d578063661884631461068657806370a08231146106e057806385e4452a1461072d578063870cbbb51461077657806387288e671461079f5780638da5cb5b146107c8578063924808b41461081d578063938225571461084657806393a3eaab1461086f57806395d89b411461089257806396365d44146109205780639b7326cc146109495780639cebf47014610972578063a9059cbb146109b0578063c55dae6314610a0a578063ce50740114610a5f578063d73dd62314610a88578063dab23f7c14610ae2578063db222e9814610b09578063dd62ed3e14610b32578063e7a858dd14610b9e578063efd49bf814610bd5578063f2fde38b14610c0c575b600080fd5b34156101e857600080fd5b6101f0610c45565b6040518080602001828103825283818151815260200191508051906020019080838360005b83811015610230578082015181840152602081019050610215565b50505050905090810190601f16801561025d5780820380516001836020036101000a031916815260200191505b509250505060405180910390f35b341561027657600080fd5b6102ab600480803573ffffffffffffffffffffffffffffffffffffffff16906020019091908035906020019091905050610ce3565b604051808215151515815260200191505060405180910390f35b34156102d057600080fd5b6102d8610dd5565b6040518082815260200191505060405180910390f35b34156102f957600080fd5b61034d600480803573ffffffffffffffffffffffffffffffffffffffff1690602001909190803573ffffffffffffffffffffffffffffffffffffffff16906020019091908035906020019091905050610ddb565b604051808215151515815260200191505060405180910390f35b341561037257600080fd5b6103cf60048080356000191690602001909190803590602001908201803590602001908080601f016020809104026020016040519081016040528093929190818152602001838380828437820191505050505050919050506110c7565b005b34156103dc57600080fd5b6103f260048080359060200190919050506110f9565b005b34156103ff57600080fd5b61040761116a565b6040518082815260200191505060405180910390f35b341561042857600080fd5b61043061116f565b604051808260ff1660ff16815260200191505060405180910390f35b341561045757600080fd5b61048c600480803573ffffffffffffffffffffffffffffffffffffffff16906020019091908035906020019091905050611174565b604051808215151515815260200191505060405180910390f35b34156104b157600080fd5b61055160048080356000191690602001909190803590602001908201803590602001908080601f0160208091040260200160405190810160405280939291908181526020018383808284378201915050505050509190803590602001908201803590602001908080601f016020809104026020016040519081016040528093929190818152602001838380828437820191505050505050919050506114bd565b005b341561055e57600080fd5b6105666114c2565b6040518082815260200191505060405180910390f35b341561058757600080fd5b6105bc600480803573ffffffffffffffffffffffffffffffffffffffff169060200190919080359060200190919050506114c8565b604051808215151515815260200191505060405180910390f35b34156105e157600080fd5b6105f760048080359060200190919050506117d3565b604051808381526020018281526020019250505060405180910390f35b61065b600480803573ffffffffffffffffffffffffffffffffffffffff169060200190919080359060200190919080359060200190919080359060200190919050506118be565b005b341561066857600080fd5b610670611bae565b6040518082815260200191505060405180910390f35b341561069157600080fd5b6106c6600480803573ffffffffffffffffffffffffffffffffffffffff16906020019091908035906020019091905050611bb4565b604051808215151515815260200191505060405180910390f35b34156106eb57600080fd5b610717600480803573ffffffffffffffffffffffffffffffffffffffff16906020019091905050611e45565b6040518082815260200191505060405180910390f35b610774600480803573ffffffffffffffffffffffffffffffffffffffff16906020019091908035906020019091908035906020019091908035906020019091905050611e8e565b005b341561078157600080fd5b610789612175565b6040518082815260200191505060405180910390f35b34156107aa57600080fd5b6107b261217b565b6040518082815260200191505060405180910390f35b34156107d357600080fd5b6107db612181565b604051808273ffffffffffffffffffffffffffffffffffffffff1673ffffffffffffffffffffffffffffffffffffffff16815260200191505060405180910390f35b341561082857600080fd5b6108306121a7565b6040518082815260200191505060405180910390f35b341561085157600080fd5b6108596121ad565b6040518082815260200191505060405180910390f35b341561087a57600080fd5b61089060048080359060200190919050506121b3565b005b341561089d57600080fd5b6108a5612219565b6040518080602001828103825283818151815260200191508051906020019080838360005b838110156108e55780820151818401526020810190506108ca565b50505050905090810190601f1680156109125780820380516001836020036101000a031916815260200191505b509250505060405180910390f35b341561092b57600080fd5b6109336122b7565b6040518082815260200191505060405180910390f35b341561095457600080fd5b61095c6122bd565b6040518082815260200191505060405180910390f35b341561097d57600080fd5b61099360048080359060200190919050506122c3565b604051808381526020018281526020019250505060405180910390f35b34156109bb57600080fd5b6109f0600480803573ffffffffffffffffffffffffffffffffffffffff1690602001909190803590602001909190505061238a565b604051808215151515815260200191505060405180910390f35b3415610a1557600080fd5b610a1d612560565b604051808273ffffffffffffffffffffffffffffffffffffffff1673ffffffffffffffffffffffffffffffffffffffff16815260200191505060405180910390f35b3415610a6a57600080fd5b610a72612586565b6040518082815260200191505060405180910390f35b3415610a9357600080fd5b610ac8600480803573ffffffffffffffffffffffffffffffffffffffff1690602001909190803590602001909190505061258c565b604051808215151515815260200191505060405180910390f35b3415610aed57600080fd5b610b07600480803560001916906020019091905050612788565b005b3415610b1457600080fd5b610b1c612816565b6040518082815260200191505060405180910390f35b3415610b3d57600080fd5b610b88600480803573ffffffffffffffffffffffffffffffffffffffff1690602001909190803573ffffffffffffffffffffffffffffffffffffffff1690602001909190505061281c565b6040518082815260200191505060405180910390f35b3415610ba957600080fd5b610bbf60048080359060200190919050506128a3565b6040518082815260200191505060405180910390f35b3415610be057600080fd5b610bf66004808035906020019091905050612acf565b6040518082815260200191505060405180910390f35b3415610c1757600080fd5b610c43600480803573ffffffffffffffffffffffffffffffffffffffff16906020019091905050612c83565b005b60098054600181600116156101000203166002900480601f016020809104026020016040519081016040528092919081815260200182805460018160011615610100020316600290048015610cdb5780601f10610cb057610100808354040283529160200191610cdb565b820191906000526020600020905b815481529060010190602001808311610cbe57829003601f168201915b505050505081565b600081600260003373ffffffffffffffffffffffffffffffffffffffff1673ffffffffffffffffffffffffffffffffffffffff16815260200190815260200160002060008573ffffffffffffffffffffffffffffffffffffffff1673ffffffffffffffffffffffffffffffffffffffff168152602001908152602001600020819055508273ffffffffffffffffffffffffffffffffffffffff163373ffffffffffffffffffffffffffffffffffffffff167f8c5be1e5ebec7d5bd14f71427d1e84f3dd0314c0f7b2291e5b200ac8c7c3b925846040518082815260200191505060405180910390a36001905092915050565b60005481565b600080600073ffffffffffffffffffffffffffffffffffffffff168473ffffffffffffffffffffffffffffffffffffffff1614151515610e1a57600080fd5b600260008673ffffffffffffffffffffffffffffffffffffffff1673ffffffffffffffffffffffffffffffffffffffff16815260200190815260200160002060003373ffffffffffffffffffffffffffffffffffffffff1673ffffffffffffffffffffffffffffffffffffffff168152602001908152602001600020549050610eeb83600160008873ffffffffffffffffffffffffffffffffffffffff1673ffffffffffffffffffffffffffffffffffffffff16815260200190815260200160002054612ddb90919063ffffffff16565b600160008773ffffffffffffffffffffffffffffffffffffffff1673ffffffffffffffffffffffffffffffffffffffff16815260200190815260200160002081905550610f8083600160008773ffffffffffffffffffffffffffffffffffffffff1673ffffffffffffffffffffffffffffffffffffffff16815260200190815260200160002054612df490919063ffffffff16565b600160008673ffffffffffffffffffffffffffffffffffffffff1673ffffffffffffffffffffffffffffffffffffffff16815260200190815260200160002081905550610fd68382612ddb90919063ffffffff16565b600260008773ffffffffffffffffffffffffffffffffffffffff1673ffffffffffffffffffffffffffffffffffffffff16815260200190815260200160002060003373ffffffffffffffffffffffffffffffffffffffff1673ffffffffffffffffffffffffffffffffffffffff168152602001908152602001600020819055508373ffffffffffffffffffffffffffffffffffffffff168573ffffffffffffffffffffffffffffffffffffffff167fddf252ad1be2c89b69c2b068fc378daa952ba7f163c4a11628f55a4df523b3ef856040518082815260200191505060405180910390a360019150509392505050565b6110f5828260006040518059106110db5750595b9080825280601f01601f19166020018201604052506114bd565b5050565b600860009054906101000a900473ffffffffffffffffffffffffffffffffffffffff1673ffffffffffffffffffffffffffffffffffffffff163373ffffffffffffffffffffffffffffffffffffffff1614151561115557600080fd5b80600d81905550611167600d54612e12565b50565b600a81565b601281565b60008060008473ffffffffffffffffffffffffffffffffffffffff163373ffffffffffffffffffffffffffffffffffffffff16141580156111e857506111b8613024565b73ffffffffffffffffffffffffffffffffffffffff163373ffffffffffffffffffffffffffffffffffffffff1614155b156111f257600080fd5b600084141561120057600080fd5b600160008673ffffffffffffffffffffffffffffffffffffffff1673ffffffffffffffffffffffffffffffffffffffff1681526020019081526020016000205484111561124c57600080fd5b611255846122c3565b8092508193505050600b60009054906101000a900473ffffffffffffffffffffffffffffffffffffffff1673ffffffffffffffffffffffffffffffffffffffff166323b872dd3087846000604051602001526040518463ffffffff167c0100000000000000000000000000000000000000000000000000000000028152600401808473ffffffffffffffffffffffffffffffffffffffff1673ffffffffffffffffffffffffffffffffffffffff1681526020018373ffffffffffffffffffffffffffffffffffffffff1673ffffffffffffffffffffffffffffffffffffffff1681526020018281526020019350505050602060405180830381600087803b151561135e57600080fd5b6102c65a03f1151561136f57600080fd5b50505060405180519050151561138457600080fd5b61139982601754612ddb90919063ffffffff16565b6017819055506113b482600054612ddb90919063ffffffff16565b60008190555061140c82600160008873ffffffffffffffffffffffffffffffffffffffff1673ffffffffffffffffffffffffffffffffffffffff16815260200190815260200160002054612ddb90919063ffffffff16565b600160008773ffffffffffffffffffffffffffffffffffffffff1673ffffffffffffffffffffffffffffffffffffffff1681526020019081526020016000208190555061146481601954612ddb90919063ffffffff16565b60198190555061147261323e565b7f8266e83f1305b5f57d0ea003de4b98085863677f5635419f4e08b60f9a3404798282604051808381526020018281526020019250505060405180910390a160019250505092915050565b505050565b60165481565b60008060008473ffffffffffffffffffffffffffffffffffffffff163373ffffffffffffffffffffffffffffffffffffffff161415801561153c575061150c613024565b73ffffffffffffffffffffffffffffffffffffffff163373ffffffffffffffffffffffffffffffffffffffff1614155b1561154657600080fd5b600084141561155457600080fd5b61155d846117d3565b8092508193505050600081141561157357600080fd5b600b60009054906101000a900473ffffffffffffffffffffffffffffffffffffffff1673ffffffffffffffffffffffffffffffffffffffff166323b872dd8630846000604051602001526040518463ffffffff167c0100000000000000000000000000000000000000000000000000000000028152600401808473ffffffffffffffffffffffffffffffffffffffff1673ffffffffffffffffffffffffffffffffffffffff1681526020018373ffffffffffffffffffffffffffffffffffffffff1673ffffffffffffffffffffffffffffffffffffffff1681526020018281526020019350505050602060405180830381600087803b151561167457600080fd5b6102c65a03f1151561168557600080fd5b50505060405180519050151561169a57600080fd5b6116af82601754612df490919063ffffffff16565b6017819055506116ca82600054612df490919063ffffffff16565b60008190555061172282600160008873ffffffffffffffffffffffffffffffffffffffff1673ffffffffffffffffffffffffffffffffffffffff16815260200190815260200160002054612df490919063ffffffff16565b600160008773ffffffffffffffffffffffffffffffffffffffff1673ffffffffffffffffffffffffffffffffffffffff1681526020019081526020016000208190555061177a81601954612df490919063ffffffff16565b60198190555061178861323e565b7fe7360c0fa1984a85874443100f5b25dd4f84192659660eb199f6c96e11defbcb8282604051808381526020018281526020019250505060405180910390a160019250505092915050565b6000806000806117f060145460165461328a90919063ffffffff16565b9150600090505b848310156118b157846118138385612df490919063ffffffff16565b1115156118915761182d8284612df490919063ffffffff16565b9250611857611848600260145461328a90919063ffffffff16565b85612df490919063ffffffff16565b935061188a6118856118746014548461328a90919063ffffffff16565b600054612df490919063ffffffff16565b612acf565b9150611896565b6118b1565b6118aa600182612df490919063ffffffff16565b90506117f7565b8383935093505050915091565b60008314156118cc57600080fd5b60003414156118da57600080fd5b3373ffffffffffffffffffffffffffffffffffffffff168473ffffffffffffffffffffffffffffffffffffffff1614151561191457600080fd5b6224ea0082111561192457600080fd5b606481111561193257600080fd5b600e60008573ffffffffffffffffffffffffffffffffffffffff1673ffffffffffffffffffffffffffffffffffffffff16815260200190815260200160002060000160009054906101000a900460ff161561199557611990846132bd565b611ba8565b6001600e60008673ffffffffffffffffffffffffffffffffffffffff1673ffffffffffffffffffffffffffffffffffffffff16815260200190815260200160002060000160006101000a81548160ff02191690831515021790555082600e60008673ffffffffffffffffffffffffffffffffffffffff1673ffffffffffffffffffffffffffffffffffffffff1681526020019081526020016000206002018190555080600e60008673ffffffffffffffffffffffffffffffffffffffff1673ffffffffffffffffffffffffffffffffffffffff1681526020019081526020016000206003018190555081600e60008673ffffffffffffffffffffffffffffffffffffffff1673ffffffffffffffffffffffffffffffffffffffff1681526020019081526020016000206006018190555042600e60008673ffffffffffffffffffffffffffffffffffffffff1673ffffffffffffffffffffffffffffffffffffffff168152602001908152602001600020600701819055506001600e60008673ffffffffffffffffffffffffffffffffffffffff1673ffffffffffffffffffffffffffffffffffffffff16815260200190815260200160002060000160016101000a81548160ff021916908315150217905550611b7d6001600f54612df490919063ffffffff16565b600f81905550611b9883601054612df490919063ffffffff16565b601081905550611ba7846132bd565b5b50505050565b600c5481565b600080600260003373ffffffffffffffffffffffffffffffffffffffff1673ffffffffffffffffffffffffffffffffffffffff16815260200190815260200160002060008573ffffffffffffffffffffffffffffffffffffffff1673ffffffffffffffffffffffffffffffffffffffff16815260200190815260200160002054905080831115611cc5576000600260003373ffffffffffffffffffffffffffffffffffffffff1673ffffffffffffffffffffffffffffffffffffffff16815260200190815260200160002060008673ffffffffffffffffffffffffffffffffffffffff1673ffffffffffffffffffffffffffffffffffffffff16815260200190815260200160002081905550611d59565b611cd88382612ddb90919063ffffffff16565b600260003373ffffffffffffffffffffffffffffffffffffffff1673ffffffffffffffffffffffffffffffffffffffff16815260200190815260200160002060008673ffffffffffffffffffffffffffffffffffffffff1673ffffffffffffffffffffffffffffffffffffffff168152602001908152602001600020819055505b8373ffffffffffffffffffffffffffffffffffffffff163373ffffffffffffffffffffffffffffffffffffffff167f8c5be1e5ebec7d5bd14f71427d1e84f3dd0314c0f7b2291e5b200ac8c7c3b925600260003373ffffffffffffffffffffffffffffffffffffffff1673ffffffffffffffffffffffffffffffffffffffff16815260200190815260200160002060008873ffffffffffffffffffffffffffffffffffffffff1673ffffffffffffffffffffffffffffffffffffffff168152602001908152602001600020546040518082815260200191505060405180910390a3600191505092915050565b6000600160008373ffffffffffffffffffffffffffffffffffffffff1673ffffffffffffffffffffffffffffffffffffffff168152602001908152602001600020549050919050565b600e60008573ffffffffffffffffffffffffffffffffffffffff1673ffffffffffffffffffffffffffffffffffffffff16815260200190815260200160002060000160009054906101000a900460ff161515611ee957600080fd5b6064811115611ef757600080fd5b600083141561202157611f57600e60008673ffffffffffffffffffffffffffffffffffffffff1673ffffffffffffffffffffffffffffffffffffffff16815260200190815260200160002060020154601054612ddb90919063ffffffff16565b6010819055506000600e60008673ffffffffffffffffffffffffffffffffffffffff1673ffffffffffffffffffffffffffffffffffffffff168152602001908152602001600020600201819055506000600e60008673ffffffffffffffffffffffffffffffffffffffff1673ffffffffffffffffffffffffffffffffffffffff16815260200190815260200160002060000160016101000a81548160ff0219169083151502179055506120166002600f54612df490919063ffffffff16565b600f8190555061216f565b612078600e60008673ffffffffffffffffffffffffffffffffffffffff1673ffffffffffffffffffffffffffffffffffffffff16815260200190815260200160002060020154601054612ddb90919063ffffffff16565b60108190555082600e60008673ffffffffffffffffffffffffffffffffffffffff1673ffffffffffffffffffffffffffffffffffffffff168152602001908152602001600020600201819055506120da83601054612df490919063ffffffff16565b60108190555080600e60008673ffffffffffffffffffffffffffffffffffffffff1673ffffffffffffffffffffffffffffffffffffffff1681526020019081526020016000206003018190555081600e60008673ffffffffffffffffffffffffffffffffffffffff1673ffffffffffffffffffffffffffffffffffffffff168152602001908152602001600020600601819055505b50505050565b601b5481565b601a5481565b600860009054906101000a900473ffffffffffffffffffffffffffffffffffffffff1681565b60175481565b60155481565b600860009054906101000a900473ffffffffffffffffffffffffffffffffffffffff1673ffffffffffffffffffffffffffffffffffffffff163373ffffffffffffffffffffffffffffffffffffffff1614151561220f57600080fd5b80600c8190555050565b600a8054600181600116156101000203166002900480601f0160208091040260200160405190810160405280929190818152602001828054600181600116156101000203166002900480156122af5780601f10612284576101008083540402835291602001916122af565b820191906000526020600020905b81548152906001019060200180831161229257829003601f168201915b505050505081565b60195481565b60145481565b6000806000806122e060145460165461328a90919063ffffffff16565b9150600090505b848411151561237d576123038284612df490919063ffffffff16565b925061232d61231e600160145461328a90919063ffffffff16565b85612df490919063ffffffff16565b935061236061235b61234a6014548461328a90919063ffffffff16565b600054612ddb90919063ffffffff16565b612acf565b9150612376600182612df490919063ffffffff16565b90506122e7565b8383935093505050915091565b60008073ffffffffffffffffffffffffffffffffffffffff168373ffffffffffffffffffffffffffffffffffffffff16141515156123c757600080fd5b61241982600160003373ffffffffffffffffffffffffffffffffffffffff1673ffffffffffffffffffffffffffffffffffffffff16815260200190815260200160002054612ddb90919063ffffffff16565b600160003373ffffffffffffffffffffffffffffffffffffffff1673ffffffffffffffffffffffffffffffffffffffff168152602001908152602001600020819055506124ae82600160008673ffffffffffffffffffffffffffffffffffffffff1673ffffffffffffffffffffffffffffffffffffffff16815260200190815260200160002054612df490919063ffffffff16565b600160008573ffffffffffffffffffffffffffffffffffffffff1673ffffffffffffffffffffffffffffffffffffffff168152602001908152602001600020819055508273ffffffffffffffffffffffffffffffffffffffff163373ffffffffffffffffffffffffffffffffffffffff167fddf252ad1be2c89b69c2b068fc378daa952ba7f163c4a11628f55a4df523b3ef846040518082815260200191505060405180910390a36001905092915050565b600b60009054906101000a900473ffffffffffffffffffffffffffffffffffffffff1681565b600d5481565b600061261d82600260003373ffffffffffffffffffffffffffffffffffffffff1673ffffffffffffffffffffffffffffffffffffffff16815260200190815260200160002060008673ffffffffffffffffffffffffffffffffffffffff1673ffffffffffffffffffffffffffffffffffffffff16815260200190815260200160002054612df490919063ffffffff16565b600260003373ffffffffffffffffffffffffffffffffffffffff1673ffffffffffffffffffffffffffffffffffffffff16815260200190815260200160002060008573ffffffffffffffffffffffffffffffffffffffff1673ffffffffffffffffffffffffffffffffffffffff168152602001908152602001600020819055508273ffffffffffffffffffffffffffffffffffffffff163373ffffffffffffffffffffffffffffffffffffffff167f8c5be1e5ebec7d5bd14f71427d1e84f3dd0314c0f7b2291e5b200ac8c7c3b925600260003373ffffffffffffffffffffffffffffffffffffffff1673ffffffffffffffffffffffffffffffffffffffff16815260200190815260200160002060008773ffffffffffffffffffffffffffffffffffffffff1673ffffffffffffffffffffffffffffffffffffffff168152602001908152602001600020546040518082815260200191505060405180910390a36001905092915050565b6000612792613024565b73ffffffffffffffffffffffffffffffffffffffff163373ffffffffffffffffffffffffffffffffffffffff161415156127cb57600080fd5b60136000836000191660001916815260200190815260200160002060009054906101000a900473ffffffffffffffffffffffffffffffffffffffff169050612812816132bd565b5050565b60185481565b6000600260008473ffffffffffffffffffffffffffffffffffffffff1673ffffffffffffffffffffffffffffffffffffffff16815260200190815260200160002060008373ffffffffffffffffffffffffffffffffffffffff1673ffffffffffffffffffffffffffffffffffffffff16815260200190815260200160002054905092915050565b60008160018303925060028304831792506004830483179250601083048317925061010083048317925062010000830483179250640100000000830483179250680100000000000000008304831792507001000000000000000000000000000000008304831792506001830192506040517ff8f9cbfae6cc78fbefe7cdc3a1793dfcf4f0e8bbd8cec470b6a28a7a5a3e1efd81527ff5ecf1b3e9debc68e1d9cfabc5997135bfb7a7a3938b7b606b5b4b3f2f1f0ffe60208201527ff6e4ed9ff2d6b458eadcdf97bd91692de2d4da8fd2d0ac50c6ae9a827252361660408201527fc8c0b887b0a8a4489c948c7f847c6125746c645c544c444038302820181008ff60608201527ff7cae577eec2a03cf3bad76fb589591debb2dd67e0aa9834bea6925f6a4a2e0e60808201527fe39ed557db96902cd38ed14fad815115c786af479b7e8324736353433727170760a08201527fc976c13bb96e881cb166a933a55e490d9d56952b8d4e801485467d236242260660c08201527f753a6d1b65325d0c552a4d1345224105391a310b29122104190a11030902010060e082015261010081016040527e818283848586878898a8b8c8d8e8f929395969799a9b9d9e9faaeb6bedeeff7f01000000000000000000000000000000000000000000000000000000000000008082870204818160ff038501510495507f8000000000000000000000000000000000000000000000000000000000000000851161010002860195505050505050919050565b6000806000905060006002811115612ae357fe5b601c60009054906101000a900460ff166002811115612afe57fe5b1415612b80577f0ac68d08c5119b8cdb4058edbf0d4168f208ec3935d26a8f1f0d92eb9d4de8bf60016040518082815260200191505060405180910390a1612b79601554612b6b601b54612b5d87601a5461328a90919063ffffffff16565b61398e90919063ffffffff16565b612df490919063ffffffff16565b9050612c7a565b60016002811115612b8d57fe5b601c60009054906101000a900460ff166002811115612ba857fe5b1415612bf557612bee601554612be0601b54612bd26002880a601a5461328a90919063ffffffff16565b61398e90919063ffffffff16565b612df490919063ffffffff16565b9050612c79565b600280811115612c0157fe5b601c60009054906101000a900460ff166002811115612c1c57fe5b1415612c78576000831415612c3057600192505b612c75601554612c67601b54612c59612c48886128a3565b601a5461328a90919063ffffffff16565b61398e90919063ffffffff16565b612df490919063ffffffff16565b90505b5b5b80915050919050565b600860009054906101000a900473ffffffffffffffffffffffffffffffffffffffff1673ffffffffffffffffffffffffffffffffffffffff163373ffffffffffffffffffffffffffffffffffffffff16141515612cdf57600080fd5b600073ffffffffffffffffffffffffffffffffffffffff168173ffffffffffffffffffffffffffffffffffffffff1614151515612d1b57600080fd5b8073ffffffffffffffffffffffffffffffffffffffff16600860009054906101000a900473ffffffffffffffffffffffffffffffffffffffff1673ffffffffffffffffffffffffffffffffffffffff167f8be0079c531659141344cd1fd0a4f28419497f9722a3daafe3b4186f6b6457e060405160405180910390a380600860006101000a81548173ffffffffffffffffffffffffffffffffffffffff021916908373ffffffffffffffffffffffffffffffffffffffff16021790555050565b6000828211151515612de957fe5b818303905092915050565b6000808284019050838110151515612e0857fe5b8091505092915050565b6000600360009054906101000a900473ffffffffffffffffffffffffffffffffffffffff1673ffffffffffffffffffffffffffffffffffffffff161480612e8357506000612e81600360009054906101000a900473ffffffffffffffffffffffffffffffffffffffff166139a9565b145b15612e9457612e9260006139b4565b505b600360009054906101000a900473ffffffffffffffffffffffffffffffffffffffff1673ffffffffffffffffffffffffffffffffffffffff166338cc48316000604051602001526040518163ffffffff167c0100000000000000000000000000000000000000000000000000000000028152600401602060405180830381600087803b1515612f2257600080fd5b6102c65a03f11515612f3357600080fd5b50505060405180519050600460006101000a81548173ffffffffffffffffffffffffffffffffffffffff021916908373ffffffffffffffffffffffffffffffffffffffff160217905550600460009054906101000a900473ffffffffffffffffffffffffffffffffffffffff1673ffffffffffffffffffffffffffffffffffffffff1663ca6ad1e4826040518263ffffffff167c010000000000000000000000000000000000000000000000000000000002815260040180828152602001915050600060405180830381600087803b151561300d57600080fd5b6102c65a03f1151561301e57600080fd5b50505050565b600080600360009054906101000a900473ffffffffffffffffffffffffffffffffffffffff1673ffffffffffffffffffffffffffffffffffffffff16148061309657506000613094600360009054906101000a900473ffffffffffffffffffffffffffffffffffffffff166139a9565b145b156130a7576130a560006139b4565b505b600360009054906101000a900473ffffffffffffffffffffffffffffffffffffffff1673ffffffffffffffffffffffffffffffffffffffff166338cc48316000604051602001526040518163ffffffff167c0100000000000000000000000000000000000000000000000000000000028152600401602060405180830381600087803b151561313557600080fd5b6102c65a03f1151561314657600080fd5b50505060405180519050600460006101000a81548173ffffffffffffffffffffffffffffffffffffffff021916908373ffffffffffffffffffffffffffffffffffffffff160217905550600460009054906101000a900473ffffffffffffffffffffffffffffffffffffffff1673ffffffffffffffffffffffffffffffffffffffff1663c281d19e6000604051602001526040518163ffffffff167c0100000000000000000000000000000000000000000000000000000000028152600401602060405180830381600087803b151561321e57600080fd5b6102c65a03f1151561322f57600080fd5b50505060405180519050905090565b613249600054612acf565b6016819055507f6107240b152f88c02cc96226ebe928f44aa7767097ec63deb754607d21162c9d6016546040518082815260200191505060405180910390a1565b600080828402905060008414806132ab57508284828115156132a857fe5b04145b15156132b357fe5b8091505092915050565b6000806000806000600e60008773ffffffffffffffffffffffffffffffffffffffff1673ffffffffffffffffffffffffffffffffffffffff168152602001908152602001600020600201549450600085141561331857600080fd5b84600b60009054906101000a900473ffffffffffffffffffffffffffffffffffffffff1673ffffffffffffffffffffffffffffffffffffffff1663dd62ed3e88306000604051602001526040518363ffffffff167c0100000000000000000000000000000000000000000000000000000000028152600401808373ffffffffffffffffffffffffffffffffffffffff1673ffffffffffffffffffffffffffffffffffffffff1681526020018273ffffffffffffffffffffffffffffffffffffffff1673ffffffffffffffffffffffffffffffffffffffff16815260200192505050602060405180830381600087803b151561341257600080fd5b6102c65a03f1151561342357600080fd5b50505060405180519050101561356f5761348a600e60008873ffffffffffffffffffffffffffffffffffffffff1673ffffffffffffffffffffffffffffffffffffffff16815260200190815260200160002060020154601054612ddb90919063ffffffff16565b6010819055506000600e60008873ffffffffffffffffffffffffffffffffffffffff1673ffffffffffffffffffffffffffffffffffffffff16815260200190815260200160002060000160016101000a81548160ff0219169083151502179055506135016002600f54612df490919063ffffffff16565b600f819055507fc36312e417227e43b5137e72ded3ad9810ddf4447e9590ba2b433ce90cab9fb786604051808273ffffffffffffffffffffffffffffffffffffffff1673ffffffffffffffffffffffffffffffffffffffff16815260200191505060405180910390a1613986565b6135846012548661328a90919063ffffffff16565b93506135dd601254600e60008973ffffffffffffffffffffffffffffffffffffffff1673ffffffffffffffffffffffffffffffffffffffff1681526020019081526020016000206003015461328a90919063ffffffff16565b92506135f2838561398e90919063ffffffff16565b91506136078286612ddb90919063ffffffff16565b905060008211156136285761361c86836114c8565b151561362757600080fd5b5b60008111156136695761365d600860009054906101000a900473ffffffffffffffffffffffffffffffffffffffff16826114c8565b151561366857600080fd5b5b6136be82600e60008973ffffffffffffffffffffffffffffffffffffffff1673ffffffffffffffffffffffffffffffffffffffff16815260200190815260200160002060040154612df490919063ffffffff16565b600e60008873ffffffffffffffffffffffffffffffffffffffff1673ffffffffffffffffffffffffffffffffffffffff1681526020019081526020016000206004018190555061375981600e60008973ffffffffffffffffffffffffffffffffffffffff1673ffffffffffffffffffffffffffffffffffffffff16815260200190815260200160002060050154612df490919063ffffffff16565b600e60008873ffffffffffffffffffffffffffffffffffffffff1673ffffffffffffffffffffffffffffffffffffffff1681526020019081526020016000206005018190555042600e60008873ffffffffffffffffffffffffffffffffffffffff1673ffffffffffffffffffffffffffffffffffffffff16815260200190815260200160002060080181905550600e60008773ffffffffffffffffffffffffffffffffffffffff1673ffffffffffffffffffffffffffffffffffffffff16815260200190815260200160002060000160019054906101000a900460ff161515613911576001600e60008873ffffffffffffffffffffffffffffffffffffffff1673ffffffffffffffffffffffffffffffffffffffff16815260200190815260200160002060000160016101000a81548160ff0219169083151502179055506138ee600e60008873ffffffffffffffffffffffffffffffffffffffff1673ffffffffffffffffffffffffffffffffffffffff16815260200190815260200160002060020154601054612df490919063ffffffff16565b60108190555061390a6002600f54612df490919063ffffffff16565b600f819055505b7f737c69225d647e5994eab1a6c301bf6d9232beb2759ae1e27a8966b4732bc4898686604051808373ffffffffffffffffffffffffffffffffffffffff1673ffffffffffffffffffffffffffffffffffffffff1681526020018281526020019250505060405180910390a161398586613e4c565b5b505050505050565b600080828481151561399c57fe5b0490508091505092915050565b6000813b9050919050565b6000806139d4731d3b2638a7cc9f2cb3d298a3da7a90b67e5506ed6139a9565b1115613a7657731d3b2638a7cc9f2cb3d298a3da7a90b67e5506ed600360006101000a81548173ffffffffffffffffffffffffffffffffffffffff021916908373ffffffffffffffffffffffffffffffffffffffff160217905550613a6d6040805190810160405280600b81526020017f6574685f6d61696e6e65740000000000000000000000000000000000000000008152506140e1565b60019050613e47565b6000613a9573c03a2615d5efaf5f49f60b7bb6583eaec212fdf16139a9565b1115613b375773c03a2615d5efaf5f49f60b7bb6583eaec212fdf1600360006101000a81548173ffffffffffffffffffffffffffffffffffffffff021916908373ffffffffffffffffffffffffffffffffffffffff160217905550613b2e6040805190810160405280600c81526020017f6574685f726f707374656e3300000000000000000000000000000000000000008152506140e1565b60019050613e47565b6000613b5673b7a07bcf2ba2f2703b24c0691b5278999c59ac7e6139a9565b1115613bf85773b7a07bcf2ba2f2703b24c0691b5278999c59ac7e600360006101000a81548173ffffffffffffffffffffffffffffffffffffffff021916908373ffffffffffffffffffffffffffffffffffffffff160217905550613bef6040805190810160405280600981526020017f6574685f6b6f76616e00000000000000000000000000000000000000000000008152506140e1565b60019050613e47565b6000613c1773146500cfd35b22e4a392fe0adc06de1a1368ed486139a9565b1115613cb95773146500cfd35b22e4a392fe0adc06de1a1368ed48600360006101000a81548173ffffffffffffffffffffffffffffffffffffffff021916908373ffffffffffffffffffffffffffffffffffffffff160217905550613cb06040805190810160405280600b81526020017f6574685f72696e6b6562790000000000000000000000000000000000000000008152506140e1565b60019050613e47565b6000613cd8736f485c8bf6fc43ea212e93bbf8ce046c7f1cb4756139a9565b1115613d3c57736f485c8bf6fc43ea212e93bbf8ce046c7f1cb475600360006101000a81548173ffffffffffffffffffffffffffffffffffffffff021916908373ffffffffffffffffffffffffffffffffffffffff16021790555060019050613e47565b6000613d5b7320e12a1f859b3feae5fb2a0a32c18f5a65555bbf6139a9565b1115613dbf577320e12a1f859b3feae5fb2a0a32c18f5a65555bbf600360006101000a81548173ffffffffffffffffffffffffffffffffffffffff021916908373ffffffffffffffffffffffffffffffffffffffff16021790555060019050613e47565b6000613dde7351efaf4c8b3c9afbd5ab9f4bbc82784ab6ef8faa6139a9565b1115613e42577351efaf4c8b3c9afbd5ab9f4bbc82784ab6ef8faa600360006101000a81548173ffffffffffffffffffffffffffffffffffffffff021916908373ffffffffffffffffffffffffffffffffffffffff16021790555060019050613e47565b600090505b919050565b6000803073ffffffffffffffffffffffffffffffffffffffff1631613ea56040805190810160405280600381526020017f55524c00000000000000000000000000000000000000000000000000000000008152506140fb565b1115613fe7576000600e60008573ffffffffffffffffffffffffffffffffffffffff1673ffffffffffffffffffffffffffffffffffffffff16815260200190815260200160002060000160016101000a81548160ff021916908315150217905550613f5d600e60008573ffffffffffffffffffffffffffffffffffffffff1673ffffffffffffffffffffffffffffffffffffffff16815260200190815260200160002060020154601054612ddb90919063ffffffff16565b601081905550613f796002600f54612df490919063ffffffff16565b600f819055507fb10231f33db4fec56f59c6d6715b0c4cbf2586c2d743cad823185d6cfce5570683604051808273ffffffffffffffffffffffffffffffffffffffff1673ffffffffffffffffffffffffffffffffffffffff16815260200191505060405180910390a16140dc565b600e60008473ffffffffffffffffffffffffffffffffffffffff1673ffffffffffffffffffffffffffffffffffffffff16815260200190815260200160002060060154915061407f826040805190810160405280600381526020017f55524c00000000000000000000000000000000000000000000000000000000008152506020604051908101604052806000815250600c54614387565b90508260136000836000191660001916815260200190815260200160002060006101000a81548173ffffffffffffffffffffffffffffffffffffffff021916908373ffffffffffffffffffffffffffffffffffffffff1602179055505b505050565b80600590805190602001906140f79291906147db565b5050565b600080600360009054906101000a900473ffffffffffffffffffffffffffffffffffffffff1673ffffffffffffffffffffffffffffffffffffffff16148061416d5750600061416b600360009054906101000a900473ffffffffffffffffffffffffffffffffffffffff166139a9565b145b1561417e5761417c60006139b4565b505b600360009054906101000a900473ffffffffffffffffffffffffffffffffffffffff1673ffffffffffffffffffffffffffffffffffffffff166338cc48316000604051602001526040518163ffffffff167c0100000000000000000000000000000000000000000000000000000000028152600401602060405180830381600087803b151561420c57600080fd5b6102c65a03f1151561421d57600080fd5b50505060405180519050600460006101000a81548173ffffffffffffffffffffffffffffffffffffffff021916908373ffffffffffffffffffffffffffffffffffffffff160217905550600460009054906101000a900473ffffffffffffffffffffffffffffffffffffffff1673ffffffffffffffffffffffffffffffffffffffff1663524f3889836000604051602001526040518263ffffffff167c01000000000000000000000000000000000000000000000000000000000281526004018080602001828103825283818151815260200191508051906020019080838360005b8381101561431a5780820151818401526020810190506142ff565b50505050905090810190601f1680156143475780820380516001836020036101000a031916815260200191505b5092505050602060405180830381600087803b151561436557600080fd5b6102c65a03f1151561437657600080fd5b505050604051805190509050919050565b6000806000600360009054906101000a900473ffffffffffffffffffffffffffffffffffffffff1673ffffffffffffffffffffffffffffffffffffffff1614806143fb575060006143f9600360009054906101000a900473ffffffffffffffffffffffffffffffffffffffff166139a9565b145b1561440c5761440a60006139b4565b505b600360009054906101000a900473ffffffffffffffffffffffffffffffffffffffff1673ffffffffffffffffffffffffffffffffffffffff166338cc48316000604051602001526040518163ffffffff167c0100000000000000000000000000000000000000000000000000000000028152600401602060405180830381600087803b151561449a57600080fd5b6102c65a03f115156144ab57600080fd5b50505060405180519050600460006101000a81548173ffffffffffffffffffffffffffffffffffffffff021916908373ffffffffffffffffffffffffffffffffffffffff160217905550600460009054906101000a900473ffffffffffffffffffffffffffffffffffffffff1673ffffffffffffffffffffffffffffffffffffffff16632ef3accc86856000604051602001526040518363ffffffff167c01000000000000000000000000000000000000000000000000000000000281526004018080602001838152602001828103825284818151815260200191508051906020019080838360005b838110156145af578082015181840152602081019050614594565b50505050905090810190601f1680156145dc5780820380516001836020036101000a031916815260200191505b509350505050602060405180830381600087803b15156145fb57600080fd5b6102c65a03f1151561460c57600080fd5b505050604051805190509050823a02670de0b6b3a76400000181111561463857600060010291506147d2565b600460009054906101000a900473ffffffffffffffffffffffffffffffffffffffff1673ffffffffffffffffffffffffffffffffffffffff1663c51be90f82888888886000604051602001526040518663ffffffff167c0100000000000000000000000000000000000000000000000000000000028152600401808581526020018060200180602001848152602001838103835286818151815260200191508051906020019080838360005b838110156146ff5780820151818401526020810190506146e4565b50505050905090810190601f16801561472c5780820380516001836020036101000a031916815260200191505b50838103825285818151815260200191508051906020019080838360005b8381101561476557808201518184015260208101905061474a565b50505050905090810190601f1680156147925780820380516001836020036101000a031916815260200191505b5096505050505050506020604051808303818588803b15156147b357600080fd5b6125ee5a03f115156147c457600080fd5b505050506040518051905091505b50949350505050565b828054600181600116156101000203166002900490600052602060002090601f016020900481019282601f1061481c57805160ff191683800117855561484a565b8280016001018555821561484a579182015b8281111561484957825182559160200191906001019061482e565b5b509050614857919061485b565b5090565b61487d91905b80821115614879576000816000905550600101614861565b5090565b905600a165627a7a72305820cf88379cd25f08eee1d47d0ac5992d1e7ca7c78c680d273496cb359999aefe880029",
  "source": "pragma solidity ^0.4.17;\n/**\n * The Patron contract does this and that...\n */\n\n import 'zeppelin/contracts/token/StandardToken.sol';\n import 'zeppelin/contracts/ownership/Ownable.sol';\n import 'oraclize/contracts/usingOraclize.sol';\n\n contract Patron is StandardToken, usingOraclize, Ownable {\n\n  string public name ;\n  string public symbol;\n  uint8 public constant decimals = 18;\n  uint256 public constant INITIAL_SUPPLY = 10;\n\n  StandardToken public baseToken;\n\n  uint256 public oraclizeGasLimit = 200000;\n  uint256 public oraclizeGasPrice = 4000000000;\n  mapping (address => Subscription) subscriptions;\n\n  uint256 activeSubscribers;\n  uint256 monthlyProjected;\n\n  address[] subscriptionKeys;\n  uint256 subscriptionPercentMultiplyer = 1000;\n  struct Subscription {\n    bool exists;\n    bool active;\n    bytes32 lastQueryId;\n    uint256 amount;\n    uint256 percentToPatron; //  max 100\n\n    uint256 toPatronTotal;\n    uint256 toOwnerTotal;\n    uint256 interval;\n    uint256 start;\n    uint256 last;\n  }\n  mapping (bytes32 => address) oraclizeIds;\n\n  uint256 public baseDivisionHelper;\n  uint256 public baseCost = 0; // 1 ETH / baseToken\n  uint256 public costPerToken = 0; // 1 baseToken / token\n  uint256 public totalEverMinted;\n  uint256 public totalEverWithdrawn;\n  uint256 public poolBalance;\n  uint256 public graphMultiplyer; // max 10000 (fraction)\n  uint256 public graphMultiplyerDivisor = 10000;\n  enum GraphType { GraphLinear, GraphExponential, GraphLogarithmic }\n  GraphType graphType;\n\n\n  /* events */\n  event LogUint(uint number);\n  event Paid(address patron, uint256 amount);\n  event AlertEmptyPledge(address patron);\n  event AlertEmptyOracle(address patron);\n  event LogCostOfTokenUpdate(uint costOfTokenUpdate);\n  event LogMint(uint256 totalMinted, uint256 totalCost);\n  event LogUnmint(uint256 totalMinted, uint256 totalCost);\n\n  function Patron (string _name, string _symbol, address _baseToken, uint256 baseTokenDecimals, uint256 _graphType, uint256 _graphMultiplyer) payable {\n    name = _name;\n    symbol = _symbol;\n\n    baseToken = StandardToken(_baseToken);\n    baseDivisionHelper = 10**baseTokenDecimals;\n\n    if (_graphType == 2) {\n      graphType = GraphType.GraphLogarithmic;\n    } else if (_graphType == 1) {\n      graphType = GraphType.GraphExponential;\n    } else {\n      graphType = GraphType.GraphLinear;\n    }\n\n    graphMultiplyer =_graphMultiplyer;\n    updateCostOfToken();\n    OAR = OraclizeAddrResolverI(0x6f485C8BF6fc43eA212E93BBF8ce046C7f1cb475);\n  }\n\n  function mint(address patron, uint256 amount) public returns (bool) {\n    if (msg.sender != patron && msg.sender != oraclize_cbAddress()) revert();\n    if (amount == 0) revert();\n\n    uint256 totalMinted;\n    uint256 totalCost;\n\n    (totalMinted, totalCost) = calculateMintTokenPerToken(amount);\n    if (totalCost == 0) revert();\n    if (!baseToken.transferFrom(patron, address(this), totalCost)) revert();\n\n    totalEverMinted = totalEverMinted.add(totalMinted);\n    totalSupply = totalSupply.add(totalMinted);\n    balances[patron] = balances[patron].add(totalMinted);\n    poolBalance = poolBalance.add(totalCost);\n\n    updateCostOfToken();\n\n    LogMint(totalMinted, totalCost);\n    return true;\n  }\n\n  function calculateMintTokenPerToken (uint256 amount) public constant returns (uint256 totalMinted, uint256 totalCost) {\n    // uint256 totalMinted = 0;\n    // uint256 totalCost = 0;\n    //for loop to determine cost at each point.\n    uint256 tmpCostPerToken = costPerToken.mul(baseDivisionHelper);\n    for(uint i = 0; totalCost < amount; i = i.add(1)) {\n      if(totalCost.add(tmpCostPerToken) <= amount) {\n        totalCost = totalCost.add(tmpCostPerToken);\n        totalMinted = totalMinted.add(baseDivisionHelper.mul(2));\n        tmpCostPerToken = currentCostOfToken(totalSupply.add(i.mul(baseDivisionHelper)));\n      } else {\n        break;\n      }\n    }\n    return (totalMinted, totalCost);\n  }\n\n  // sell\n  function unmint (address patron, uint256 amount) public returns(bool){\n    if (msg.sender != patron && msg.sender != oraclize_cbAddress()) revert();\n    if (amount == 0) revert();\n    if (amount > balances[patron]) revert();\n\n    uint256 totalUnminted;\n    uint256 totalCost;\n\n    (totalUnminted, totalCost) = calculateUnmintTokenPerToken(amount);\n\n    if (!baseToken.transferFrom(address(this), patron, totalCost)) revert();\n\n    totalEverMinted = totalEverMinted.sub(totalUnminted);\n    totalSupply = totalSupply.sub(totalUnminted);\n    balances[patron] = balances[patron].sub(totalUnminted);\n    poolBalance = poolBalance.sub(totalCost);\n    \n    updateCostOfToken();\n\n    LogUnmint(totalUnminted, totalCost);\n    return true;\n  }\n\n  function calculateUnmintTokenPerToken (uint256 amount) public constant returns (uint256 totalUnminted, uint256 totalCost) {\n    // uint256 totalUnminted = 0;\n    // uint256 totalCost = 0;\n    //for loop to determine cost at each point.\n    uint256 tmpCostPerToken = costPerToken.mul(baseDivisionHelper);\n    for(uint i = 0; totalUnminted <= amount; i = i.add(1)) {\n      totalCost = totalCost.add(tmpCostPerToken);\n      totalUnminted = totalUnminted.add(baseDivisionHelper.mul(1));\n      tmpCostPerToken = currentCostOfToken(totalSupply.sub(i.mul(baseDivisionHelper)));\n    }\n    return (totalUnminted, totalCost);\n  }\n\n  function updateCostOfToken() internal {\n    costPerToken = currentCostOfToken(totalSupply);\n    LogCostOfTokenUpdate(costPerToken);\n  }\n\n  function currentCostOfToken(uint256 _supply) public constant returns (uint _cost) {\n  // function currentCostOfToken(uint256 _supply) internal constant returns (uint _cost) {\n    uint cost = 0;\n\n    if ( graphType == GraphType.GraphLinear ) {\n      LogUint(1);\n      // mx + b\n      cost = ( graphMultiplyer.mul(_supply).div(graphMultiplyerDivisor) ).add(baseCost);\n    }\n    else if ( graphType == GraphType.GraphExponential ) {\n      // mx^2 + b\n      cost = ( graphMultiplyer.mul(_supply ** 2).div(graphMultiplyerDivisor) ).add(baseCost);\n    }\n    else if ( graphType == GraphType.GraphLogarithmic ) {\n      // m * log2(x) + b\n      if ( _supply == 0 ) {\n        _supply = 1;\n      }\n      cost = ( graphMultiplyer.mul( fastlog2(_supply) ).div(graphMultiplyerDivisor) ).add(baseCost);\n    }\n    return cost;\n  }\n\n  // SPECTIAL CURVES\n\n  //log based 2 taylor series in assembly\n  function fastlog2(uint x) public pure returns (uint y) {\n    assembly {\n      let arg := x\n      x := sub(x,1)\n      x := or(x, div(x, 0x02))\n      x := or(x, div(x, 0x04))\n      x := or(x, div(x, 0x10))\n      x := or(x, div(x, 0x100))\n      x := or(x, div(x, 0x10000))\n      x := or(x, div(x, 0x100000000))\n      x := or(x, div(x, 0x10000000000000000))\n      x := or(x, div(x, 0x100000000000000000000000000000000))\n      x := add(x, 1)\n      let m := mload(0x40)\n      mstore(m,           0xf8f9cbfae6cc78fbefe7cdc3a1793dfcf4f0e8bbd8cec470b6a28a7a5a3e1efd)\n      mstore(add(m,0x20), 0xf5ecf1b3e9debc68e1d9cfabc5997135bfb7a7a3938b7b606b5b4b3f2f1f0ffe)\n      mstore(add(m,0x40), 0xf6e4ed9ff2d6b458eadcdf97bd91692de2d4da8fd2d0ac50c6ae9a8272523616)\n      mstore(add(m,0x60), 0xc8c0b887b0a8a4489c948c7f847c6125746c645c544c444038302820181008ff)\n      mstore(add(m,0x80), 0xf7cae577eec2a03cf3bad76fb589591debb2dd67e0aa9834bea6925f6a4a2e0e)\n      mstore(add(m,0xa0), 0xe39ed557db96902cd38ed14fad815115c786af479b7e83247363534337271707)\n      mstore(add(m,0xc0), 0xc976c13bb96e881cb166a933a55e490d9d56952b8d4e801485467d2362422606)\n      mstore(add(m,0xe0), 0x753a6d1b65325d0c552a4d1345224105391a310b29122104190a110309020100)\n      mstore(0x40, add(m, 0x100))\n      let magic := 0x818283848586878898a8b8c8d8e8f929395969799a9b9d9e9faaeb6bedeeff\n      let shift := 0x100000000000000000000000000000000000000000000000000000000000000\n      let a := div(mul(x, magic), shift)\n      y := div(mload(add(m,sub(255,a))), shift)\n      y := add(y, mul(256, gt(arg, 0x8000000000000000000000000000000000000000000000000000000000000000)))\n    }\n  }\n\n\n  // subscribe\n  function subscribe (address patron, uint256 amount, uint256 interval, uint256 percentToPatron) public payable {\n    if (amount == 0) revert();\n    if (msg.value == 0) revert();\n    if (patron != msg.sender) revert();\n    if (interval > 4 weeks) revert();\n    if (percentToPatron > 100) revert();\n    if (subscriptions[patron].exists) {\n      executePayment(patron);\n    } else {\n      subscriptions[patron].exists = true;\n      subscriptions[patron].amount = amount;\n      subscriptions[patron].percentToPatron = percentToPatron;\n      subscriptions[patron].interval = interval;\n      subscriptions[patron].start = now;\n      subscriptions[patron].active = true;\n\n      activeSubscribers = activeSubscribers.add(1);\n      monthlyProjected = monthlyProjected.add(amount);\n\n      executePayment(patron);\n    }\n  }\n\n  function updateSubscription (address patron, uint256 amount, uint256 interval, uint256 percentToPatron) public payable {\n    if (!subscriptions[patron].exists) revert();\n    if (percentToPatron > 100) revert();\n    if (amount == 0) {\n      monthlyProjected = monthlyProjected.sub(subscriptions[patron].amount);\n\n      subscriptions[patron].amount = 0;\n      subscriptions[patron].active = false;\n      activeSubscribers = activeSubscribers.add(2);\n    } else {\n      monthlyProjected = monthlyProjected.sub(subscriptions[patron].amount);\n\n      subscriptions[patron].amount = amount;\n      monthlyProjected = monthlyProjected.add(amount);\n\n      subscriptions[patron].percentToPatron = percentToPatron;\n      subscriptions[patron].interval = interval;\n    }\n  }\n\n  function oracle (address patron) private {\n    // LogUint(oraclize_getPrice(\"URL\"));\n    if (oraclize_getPrice(\"URL\") > this.balance) {\n      subscriptions[patron].active = false;\n      monthlyProjected = monthlyProjected.sub(subscriptions[patron].amount);\n      activeSubscribers = activeSubscribers.add(2);\n      AlertEmptyOracle(patron);\n    } else {\n      uint256 interval = subscriptions[patron].interval;\n      bytes32 queryId = oraclize_query(interval, \"URL\", \"\", oraclizeGasLimit);\n      oraclizeIds[queryId] = patron;\n    }\n  }\n\n  function updateOracleGasPrice (uint newPrice) onlyOwner {\n    oraclizeGasPrice = newPrice;\n    oraclize_setCustomGasPrice(oraclizeGasPrice);\n  }\n\n  function updateOracleGasLimit (uint newPrice) onlyOwner {\n    oraclizeGasLimit = newPrice;\n  }\n\n  function executePayment (address patron) private {\n    uint256 amount = subscriptions[patron].amount;\n    if (amount == 0) revert();\n\n    if (baseToken.allowance(patron, address(this)) < amount) {\n      monthlyProjected = monthlyProjected.sub(subscriptions[patron].amount);\n      subscriptions[patron].active = false;\n      activeSubscribers = activeSubscribers.add(2);\n      AlertEmptyPledge(patron);\n    } else {\n\n      uint256 amountMultiplied = amount.mul(subscriptionPercentMultiplyer);\n      uint256 percentToPatronMultiplied = subscriptions[patron].percentToPatron.mul(subscriptionPercentMultiplyer);\n\n      uint256 amountToPatron = amountMultiplied.div(percentToPatronMultiplied);\n      uint256 amountToOwner = amount.sub(amountToPatron);\n\n      if (amountToPatron > 0) {\n        if (!mint(patron, amountToPatron)) revert();\n      }\n      if (amountToOwner > 0) {\n        if (!mint(owner, amountToOwner)) revert();\n      }\n\n      subscriptions[patron].toPatronTotal = subscriptions[patron].toPatronTotal.add(amountToPatron);\n      subscriptions[patron].toOwnerTotal = subscriptions[patron].toOwnerTotal.add(amountToOwner);\n\n      subscriptions[patron].last = now;\n\n      if (!subscriptions[patron].active) {\n        subscriptions[patron].active = true;\n        monthlyProjected = monthlyProjected.add(subscriptions[patron].amount);\n        activeSubscribers = activeSubscribers.add(2);\n      }\n\n      Paid(patron, amount);\n      oracle(patron);\n    }\n  }\n\n  function __callback(bytes32 queryId) public {\n    if (msg.sender != oraclize_cbAddress()) revert();\n    address patron = oraclizeIds[queryId];\n    executePayment(patron);\n  }\n\n}\n",
  "sourcePath": "/Users/billy/sol/patreth/contracts/Patron.sol",
  "compiler": {
    "name": "solc",
    "version": "0.4.18+commit.9cf6e910.Emscripten.clang"
  },
  "schemaVersion": "1.0.1",
  "updatedAt": "2018-01-30T14:28:11.025Z"
}