{
  "contractName": "Patron",
  "abi": [
    {
      "constant": true,
      "inputs": [],
      "name": "name",
      "outputs": [
        {
          "name": "",
          "type": "string"
        }
      ],
      "payable": false,
      "stateMutability": "view",
      "type": "function"
    },
    {
      "constant": false,
      "inputs": [
        {
          "name": "_spender",
          "type": "address"
        },
        {
          "name": "_value",
          "type": "uint256"
        }
      ],
      "name": "approve",
      "outputs": [
        {
          "name": "",
          "type": "bool"
        }
      ],
      "payable": false,
      "stateMutability": "nonpayable",
      "type": "function"
    },
    {
      "constant": true,
      "inputs": [],
      "name": "totalSupply",
      "outputs": [
        {
          "name": "",
          "type": "uint256"
        }
      ],
      "payable": false,
      "stateMutability": "view",
      "type": "function"
    },
    {
      "constant": false,
      "inputs": [
        {
          "name": "_from",
          "type": "address"
        },
        {
          "name": "_to",
          "type": "address"
        },
        {
          "name": "_value",
          "type": "uint256"
        }
      ],
      "name": "transferFrom",
      "outputs": [
        {
          "name": "",
          "type": "bool"
        }
      ],
      "payable": false,
      "stateMutability": "nonpayable",
      "type": "function"
    },
    {
      "constant": false,
      "inputs": [
        {
          "name": "myid",
          "type": "bytes32"
        },
        {
          "name": "result",
          "type": "string"
        }
      ],
      "name": "__callback",
      "outputs": [],
      "payable": false,
      "stateMutability": "nonpayable",
      "type": "function"
    },
    {
      "constant": false,
      "inputs": [
        {
          "name": "newPrice",
          "type": "uint256"
        }
      ],
      "name": "updateOracleGasPrice",
      "outputs": [],
      "payable": false,
      "stateMutability": "nonpayable",
      "type": "function"
    },
    {
      "constant": true,
      "inputs": [],
      "name": "INITIAL_SUPPLY",
      "outputs": [
        {
          "name": "",
          "type": "uint256"
        }
      ],
      "payable": false,
      "stateMutability": "view",
      "type": "function"
    },
    {
      "constant": true,
      "inputs": [],
      "name": "decimals",
      "outputs": [
        {
          "name": "",
          "type": "uint8"
        }
      ],
      "payable": false,
      "stateMutability": "view",
      "type": "function"
    },
    {
      "constant": false,
      "inputs": [
        {
          "name": "patron",
          "type": "address"
        },
        {
          "name": "amount",
          "type": "uint256"
        }
      ],
      "name": "unmint",
      "outputs": [
        {
          "name": "",
          "type": "bool"
        }
      ],
      "payable": false,
      "stateMutability": "nonpayable",
      "type": "function"
    },
    {
      "constant": false,
      "inputs": [
        {
          "name": "myid",
          "type": "bytes32"
        },
        {
          "name": "result",
          "type": "string"
        },
        {
          "name": "proof",
          "type": "bytes"
        }
      ],
      "name": "__callback",
      "outputs": [],
      "payable": false,
      "stateMutability": "nonpayable",
      "type": "function"
    },
    {
      "constant": true,
      "inputs": [],
      "name": "costPerToken",
      "outputs": [
        {
          "name": "",
          "type": "uint256"
        }
      ],
      "payable": false,
      "stateMutability": "view",
      "type": "function"
    },
    {
      "constant": false,
      "inputs": [
        {
          "name": "patron",
          "type": "address"
        },
        {
          "name": "amount",
          "type": "uint256"
        }
      ],
      "name": "mint",
      "outputs": [
        {
          "name": "",
          "type": "bool"
        }
      ],
      "payable": false,
      "stateMutability": "nonpayable",
      "type": "function"
    },
    {
      "constant": false,
      "inputs": [
        {
          "name": "amount",
          "type": "uint256"
        }
      ],
      "name": "calculateMintTokenPerToken",
      "outputs": [
        {
          "name": "totalMinted",
          "type": "uint256"
        },
        {
          "name": "totalCost",
          "type": "uint256"
        }
      ],
      "payable": false,
      "stateMutability": "nonpayable",
      "type": "function"
    },
    {
      "constant": false,
      "inputs": [
        {
          "name": "patron",
          "type": "address"
        },
        {
          "name": "amount",
          "type": "uint256"
        },
        {
          "name": "interval",
          "type": "uint256"
        },
        {
          "name": "percentToPatron",
          "type": "uint256"
        }
      ],
      "name": "subscribe",
      "outputs": [],
      "payable": true,
      "stateMutability": "payable",
      "type": "function"
    },
    {
      "constant": true,
      "inputs": [],
      "name": "oraclizeGasLimit",
      "outputs": [
        {
          "name": "",
          "type": "uint256"
        }
      ],
      "payable": false,
      "stateMutability": "view",
      "type": "function"
    },
    {
      "constant": false,
      "inputs": [
        {
          "name": "_spender",
          "type": "address"
        },
        {
          "name": "_subtractedValue",
          "type": "uint256"
        }
      ],
      "name": "decreaseApproval",
      "outputs": [
        {
          "name": "success",
          "type": "bool"
        }
      ],
      "payable": false,
      "stateMutability": "nonpayable",
      "type": "function"
    },
    {
      "constant": true,
      "inputs": [
        {
          "name": "_owner",
          "type": "address"
        }
      ],
      "name": "balanceOf",
      "outputs": [
        {
          "name": "balance",
          "type": "uint256"
        }
      ],
      "payable": false,
      "stateMutability": "view",
      "type": "function"
    },
    {
      "constant": false,
      "inputs": [
        {
          "name": "patron",
          "type": "address"
        },
        {
          "name": "amount",
          "type": "uint256"
        },
        {
          "name": "interval",
          "type": "uint256"
        },
        {
          "name": "percentToPatron",
          "type": "uint256"
        }
      ],
      "name": "updateSubscription",
      "outputs": [],
      "payable": true,
      "stateMutability": "payable",
      "type": "function"
    },
    {
      "constant": true,
      "inputs": [],
      "name": "graphMultiplyer",
      "outputs": [
        {
          "name": "",
          "type": "uint256"
        }
      ],
      "payable": false,
      "stateMutability": "view",
      "type": "function"
    },
    {
      "constant": true,
      "inputs": [],
      "name": "owner",
      "outputs": [
        {
          "name": "",
          "type": "address"
        }
      ],
      "payable": false,
      "stateMutability": "view",
      "type": "function"
    },
    {
      "constant": true,
      "inputs": [],
      "name": "totalEverMinted",
      "outputs": [
        {
          "name": "",
          "type": "uint256"
        }
      ],
      "payable": false,
      "stateMutability": "view",
      "type": "function"
    },
    {
      "constant": true,
      "inputs": [],
      "name": "baseCost",
      "outputs": [
        {
          "name": "",
          "type": "uint256"
        }
      ],
      "payable": false,
      "stateMutability": "view",
      "type": "function"
    },
    {
      "constant": false,
      "inputs": [
        {
          "name": "newPrice",
          "type": "uint256"
        }
      ],
      "name": "updateOracleGasLimit",
      "outputs": [],
      "payable": false,
      "stateMutability": "nonpayable",
      "type": "function"
    },
    {
      "constant": true,
      "inputs": [],
      "name": "symbol",
      "outputs": [
        {
          "name": "",
          "type": "string"
        }
      ],
      "payable": false,
      "stateMutability": "view",
      "type": "function"
    },
    {
      "constant": true,
      "inputs": [],
      "name": "poolBalance",
      "outputs": [
        {
          "name": "",
          "type": "uint256"
        }
      ],
      "payable": false,
      "stateMutability": "view",
      "type": "function"
    },
    {
      "constant": true,
      "inputs": [
        {
          "name": "amount",
          "type": "uint256"
        }
      ],
      "name": "calculateUnmintTokenPerToken",
      "outputs": [
        {
          "name": "totalUnminted",
          "type": "uint256"
        },
        {
          "name": "totalCost",
          "type": "uint256"
        }
      ],
      "payable": false,
      "stateMutability": "view",
      "type": "function"
    },
    {
      "constant": false,
      "inputs": [
        {
          "name": "_to",
          "type": "address"
        },
        {
          "name": "_value",
          "type": "uint256"
        }
      ],
      "name": "transfer",
      "outputs": [
        {
          "name": "",
          "type": "bool"
        }
      ],
      "payable": false,
      "stateMutability": "nonpayable",
      "type": "function"
    },
    {
      "constant": true,
      "inputs": [],
      "name": "baseToken",
      "outputs": [
        {
          "name": "",
          "type": "address"
        }
      ],
      "payable": false,
      "stateMutability": "view",
      "type": "function"
    },
    {
      "constant": true,
      "inputs": [],
      "name": "oraclizeGasPrice",
      "outputs": [
        {
          "name": "",
          "type": "uint256"
        }
      ],
      "payable": false,
      "stateMutability": "view",
      "type": "function"
    },
    {
      "constant": false,
      "inputs": [
        {
          "name": "_spender",
          "type": "address"
        },
        {
          "name": "_addedValue",
          "type": "uint256"
        }
      ],
      "name": "increaseApproval",
      "outputs": [
        {
          "name": "success",
          "type": "bool"
        }
      ],
      "payable": false,
      "stateMutability": "nonpayable",
      "type": "function"
    },
    {
      "constant": false,
      "inputs": [
        {
          "name": "queryId",
          "type": "bytes32"
        }
      ],
      "name": "__callback",
      "outputs": [],
      "payable": false,
      "stateMutability": "nonpayable",
      "type": "function"
    },
    {
      "constant": true,
      "inputs": [],
      "name": "totalEverWithdrawn",
      "outputs": [
        {
          "name": "",
          "type": "uint256"
        }
      ],
      "payable": false,
      "stateMutability": "view",
      "type": "function"
    },
    {
      "constant": true,
      "inputs": [
        {
          "name": "_owner",
          "type": "address"
        },
        {
          "name": "_spender",
          "type": "address"
        }
      ],
      "name": "allowance",
      "outputs": [
        {
          "name": "remaining",
          "type": "uint256"
        }
      ],
      "payable": false,
      "stateMutability": "view",
      "type": "function"
    },
    {
      "constant": true,
      "inputs": [
        {
          "name": "x",
          "type": "uint256"
        }
      ],
      "name": "fastlog2",
      "outputs": [
        {
          "name": "y",
          "type": "uint256"
        }
      ],
      "payable": false,
      "stateMutability": "pure",
      "type": "function"
    },
    {
      "constant": false,
      "inputs": [
        {
          "name": "newOwner",
          "type": "address"
        }
      ],
      "name": "transferOwnership",
      "outputs": [],
      "payable": false,
      "stateMutability": "nonpayable",
      "type": "function"
    },
    {
      "inputs": [
        {
          "name": "_name",
          "type": "string"
        },
        {
          "name": "_symbol",
          "type": "string"
        },
        {
          "name": "_baseToken",
          "type": "address"
        },
        {
          "name": "_graphType",
          "type": "uint256"
        },
        {
          "name": "_graphMultiplyer",
          "type": "uint256"
        }
      ],
      "payable": true,
      "stateMutability": "payable",
      "type": "constructor"
    },
    {
      "anonymous": false,
      "inputs": [
        {
          "indexed": false,
          "name": "number",
          "type": "uint256"
        }
      ],
      "name": "LogUint",
      "type": "event"
    },
    {
      "anonymous": false,
      "inputs": [
        {
          "indexed": false,
          "name": "patron",
          "type": "address"
        },
        {
          "indexed": false,
          "name": "amount",
          "type": "uint256"
        }
      ],
      "name": "Paid",
      "type": "event"
    },
    {
      "anonymous": false,
      "inputs": [
        {
          "indexed": false,
          "name": "patron",
          "type": "address"
        }
      ],
      "name": "AlertEmptyPledge",
      "type": "event"
    },
    {
      "anonymous": false,
      "inputs": [
        {
          "indexed": false,
          "name": "patron",
          "type": "address"
        }
      ],
      "name": "AlertEmptyOracle",
      "type": "event"
    },
    {
      "anonymous": false,
      "inputs": [
        {
          "indexed": false,
          "name": "costOfTokenUpdate",
          "type": "uint256"
        }
      ],
      "name": "LogCostOfTokenUpdate",
      "type": "event"
    },
    {
      "anonymous": false,
      "inputs": [
        {
          "indexed": false,
          "name": "totalMinted",
          "type": "uint256"
        },
        {
          "indexed": false,
          "name": "totalCost",
          "type": "uint256"
        }
      ],
      "name": "LogMint",
      "type": "event"
    },
    {
      "anonymous": false,
      "inputs": [
        {
          "indexed": false,
          "name": "totalMinted",
          "type": "uint256"
        },
        {
          "indexed": false,
          "name": "totalCost",
          "type": "uint256"
        }
      ],
      "name": "LogUnmint",
      "type": "event"
    },
    {
      "anonymous": false,
      "inputs": [
        {
          "indexed": true,
          "name": "previousOwner",
          "type": "address"
        },
        {
          "indexed": true,
          "name": "newOwner",
          "type": "address"
        }
      ],
      "name": "OwnershipTransferred",
      "type": "event"
    },
    {
      "anonymous": false,
      "inputs": [
        {
          "indexed": true,
          "name": "owner",
          "type": "address"
        },
        {
          "indexed": true,
          "name": "spender",
          "type": "address"
        },
        {
          "indexed": false,
          "name": "value",
          "type": "uint256"
        }
      ],
      "name": "Approval",
      "type": "event"
    },
    {
      "anonymous": false,
      "inputs": [
        {
          "indexed": true,
          "name": "from",
          "type": "address"
        },
        {
          "indexed": true,
          "name": "to",
          "type": "address"
        },
        {
          "indexed": false,
          "name": "value",
          "type": "uint256"
        }
      ],
      "name": "Transfer",
      "type": "event"
    }
  ],
  "bytecode": "0x606060405262030d40600c5563ee6b2800600d556103e8601255655af3107a4000601455600060155560405162004f1138038062004f118339810160405280805182019190602001805182019190602001805190602001909190805190602001909190805190602001909190505033600860006101000a81548173ffffffffffffffffffffffffffffffffffffffff021916908373ffffffffffffffffffffffffffffffffffffffff1602179055508460099080519060200190620000c6929190620006dd565b5083600a9080519060200190620000df929190620006dd565b5082600b60006101000a81548173ffffffffffffffffffffffffffffffffffffffff021916908373ffffffffffffffffffffffffffffffffffffffff160217905550600282141562000156576002601a60006101000a81548160ff021916908360028111156200014b57fe5b0217905550620001b2565b60018214156200018b576001601a60006101000a81548160ff021916908360028111156200018057fe5b0217905550620001b1565b6000601a60006101000a81548160ff02191690836002811115620001ab57fe5b02179055505b5b80601981905550620001d96000620002396401000000000262002f54176401000000009004565b736f485c8bf6fc43ea212e93bbf8ce046c7f1cb475600360006101000a81548173ffffffffffffffffffffffffffffffffffffffff021916908373ffffffffffffffffffffffffffffffffffffffff16021790555050505050506200078c565b62000258816200029a6401000000000262002f9f176401000000009004565b6015819055507f6107240b152f88c02cc96226ebe928f44aa7767097ec63deb754607d21162c9d6015546040518082815260200191505060405180910390a150565b6000806000905060006002811115620002af57fe5b601a60009054906101000a900460ff166002811115620002cb57fe5b141562000323576200031b601454620002fe856019546200045c6401000000000262003c53179091906401000000009004565b620004926401000000000262002b0a179091906401000000009004565b905062000453565b600160028111156200033157fe5b601a60009054906101000a900460ff1660028111156200034d57fe5b1415620003a857620003a0601454620003836002860a6019546200045c6401000000000262003c53179091906401000000009004565b620004926401000000000262002b0a179091906401000000009004565b905062000452565b600280811115620003b557fe5b601a60009054906101000a900460ff166002811115620003d157fe5b141562000451576000831415620003e757600192505b6200044e601454620004316200041186620004b1640100000000026200276d176401000000009004565b6019546200045c6401000000000262003c53179091906401000000009004565b620004926401000000000262002b0a179091906401000000009004565b90505b5b5b80915050919050565b600080828402905060008414806200047f57508284828115156200047c57fe5b04145b15156200048857fe5b8091505092915050565b6000808284019050838110151515620004a757fe5b8091505092915050565b60008160018303925060028304831792506004830483179250601083048317925061010083048317925062010000830483179250640100000000830483179250680100000000000000008304831792507001000000000000000000000000000000008304831792506001830192506040517ff8f9cbfae6cc78fbefe7cdc3a1793dfcf4f0e8bbd8cec470b6a28a7a5a3e1efd81527ff5ecf1b3e9debc68e1d9cfabc5997135bfb7a7a3938b7b606b5b4b3f2f1f0ffe60208201527ff6e4ed9ff2d6b458eadcdf97bd91692de2d4da8fd2d0ac50c6ae9a827252361660408201527fc8c0b887b0a8a4489c948c7f847c6125746c645c544c444038302820181008ff60608201527ff7cae577eec2a03cf3bad76fb589591debb2dd67e0aa9834bea6925f6a4a2e0e60808201527fe39ed557db96902cd38ed14fad815115c786af479b7e8324736353433727170760a08201527fc976c13bb96e881cb166a933a55e490d9d56952b8d4e801485467d236242260660c08201527f753a6d1b65325d0c552a4d1345224105391a310b29122104190a11030902010060e082015261010081016040527e818283848586878898a8b8c8d8e8f929395969799a9b9d9e9faaeb6bedeeff7f01000000000000000000000000000000000000000000000000000000000000008082870204818160ff038501510495507f8000000000000000000000000000000000000000000000000000000000000000851161010002860195505050505050919050565b828054600181600116156101000203166002900490600052602060002090601f016020900481019282601f106200072057805160ff191683800117855562000751565b8280016001018555821562000751579182015b828111156200075057825182559160200191906001019062000733565b5b50905062000760919062000764565b5090565b6200078991905b80821115620007855760008160009055506001016200076b565b5090565b90565b614775806200079c6000396000f3006060604052600436106101b7576000357c0100000000000000000000000000000000000000000000000000000000900463ffffffff16806306fdde03146101bc578063095ea7b31461024a57806318160ddd146102a457806323b872dd146102cd57806327dc297e146103465780632c51114e146103b05780632ff2e9dc146103d3578063313ce567146103fc5780633537c2581461042b57806338bbfa50146104855780633ba523c71461053257806340c10f191461055b57806343d58c4d146105b55780634907cd0f146105f357806350b9c4281461063c578063661884631461066557806370a08231146106bf57806385e4452a1461070c57806387288e67146107555780638da5cb5b1461077e578063924808b4146107d357806393822557146107fc57806393a3eaab1461082557806395d89b411461084857806396365d44146108d65780639cebf470146108ff578063a9059cbb1461093d578063c55dae6314610997578063ce507401146109ec578063d73dd62314610a15578063dab23f7c14610a6f578063db222e9814610a96578063dd62ed3e14610abf578063e7a858dd14610b2b578063f2fde38b14610b62575b600080fd5b34156101c757600080fd5b6101cf610b9b565b6040518080602001828103825283818151815260200191508051906020019080838360005b8381101561020f5780820151818401526020810190506101f4565b50505050905090810190601f16801561023c5780820380516001836020036101000a031916815260200191505b509250505060405180910390f35b341561025557600080fd5b61028a600480803573ffffffffffffffffffffffffffffffffffffffff16906020019091908035906020019091905050610c39565b604051808215151515815260200191505060405180910390f35b34156102af57600080fd5b6102b7610d2b565b6040518082815260200191505060405180910390f35b34156102d857600080fd5b61032c600480803573ffffffffffffffffffffffffffffffffffffffff1690602001909190803573ffffffffffffffffffffffffffffffffffffffff16906020019091908035906020019091905050610d31565b604051808215151515815260200191505060405180910390f35b341561035157600080fd5b6103ae60048080356000191690602001909190803590602001908201803590602001908080601f0160208091040260200160405190810160405280939291908181526020018383808284378201915050505050509190505061101d565b005b34156103bb57600080fd5b6103d1600480803590602001909190505061104f565b005b34156103de57600080fd5b6103e66110c0565b6040518082815260200191505060405180910390f35b341561040757600080fd5b61040f6110c5565b604051808260ff1660ff16815260200191505060405180910390f35b341561043657600080fd5b61046b600480803573ffffffffffffffffffffffffffffffffffffffff169060200190919080359060200190919050506110ca565b604051808215151515815260200191505060405180910390f35b341561049057600080fd5b61053060048080356000191690602001909190803590602001908201803590602001908080601f0160208091040260200160405190810160405280939291908181526020018383808284378201915050505050509190803590602001908201803590602001908080601f01602080910402602001604051908101604052809392919081815260200183838082843782019150505050505091905050611416565b005b341561053d57600080fd5b61054561141b565b6040518082815260200191505060405180910390f35b341561056657600080fd5b61059b600480803573ffffffffffffffffffffffffffffffffffffffff16906020019091908035906020019091905050611421565b604051808215151515815260200191505060405180910390f35b34156105c057600080fd5b6105d66004808035906020019091905050611721565b604051808381526020018281526020019250505060405180910390f35b61063a600480803573ffffffffffffffffffffffffffffffffffffffff169060200190919080359060200190919080359060200190919080359060200190919050506117d0565b005b341561064757600080fd5b61064f611ac0565b6040518082815260200191505060405180910390f35b341561067057600080fd5b6106a5600480803573ffffffffffffffffffffffffffffffffffffffff16906020019091908035906020019091905050611ac6565b604051808215151515815260200191505060405180910390f35b34156106ca57600080fd5b6106f6600480803573ffffffffffffffffffffffffffffffffffffffff16906020019091905050611d57565b6040518082815260200191505060405180910390f35b610753600480803573ffffffffffffffffffffffffffffffffffffffff16906020019091908035906020019091908035906020019091908035906020019091905050611da0565b005b341561076057600080fd5b610768612087565b6040518082815260200191505060405180910390f35b341561078957600080fd5b61079161208d565b604051808273ffffffffffffffffffffffffffffffffffffffff1673ffffffffffffffffffffffffffffffffffffffff16815260200191505060405180910390f35b34156107de57600080fd5b6107e66120b3565b6040518082815260200191505060405180910390f35b341561080757600080fd5b61080f6120b9565b6040518082815260200191505060405180910390f35b341561083057600080fd5b61084660048080359060200190919050506120bf565b005b341561085357600080fd5b61085b612125565b6040518080602001828103825283818151815260200191508051906020019080838360005b8381101561089b578082015181840152602081019050610880565b50505050905090810190601f1680156108c85780820380516001836020036101000a031916815260200191505b509250505060405180910390f35b34156108e157600080fd5b6108e96121c3565b6040518082815260200191505060405180910390f35b341561090a57600080fd5b61092060048080359060200190919050506121c9565b604051808381526020018281526020019250505060405180910390f35b341561094857600080fd5b61097d600480803573ffffffffffffffffffffffffffffffffffffffff16906020019091908035906020019091905050612254565b604051808215151515815260200191505060405180910390f35b34156109a257600080fd5b6109aa61242a565b604051808273ffffffffffffffffffffffffffffffffffffffff1673ffffffffffffffffffffffffffffffffffffffff16815260200191505060405180910390f35b34156109f757600080fd5b6109ff612450565b6040518082815260200191505060405180910390f35b3415610a2057600080fd5b610a55600480803573ffffffffffffffffffffffffffffffffffffffff16906020019091908035906020019091905050612456565b604051808215151515815260200191505060405180910390f35b3415610a7a57600080fd5b610a94600480803560001916906020019091905050612652565b005b3415610aa157600080fd5b610aa96126e0565b6040518082815260200191505060405180910390f35b3415610aca57600080fd5b610b15600480803573ffffffffffffffffffffffffffffffffffffffff1690602001909190803573ffffffffffffffffffffffffffffffffffffffff169060200190919050506126e6565b6040518082815260200191505060405180910390f35b3415610b3657600080fd5b610b4c600480803590602001909190505061276d565b6040518082815260200191505060405180910390f35b3415610b6d57600080fd5b610b99600480803573ffffffffffffffffffffffffffffffffffffffff16906020019091905050612999565b005b60098054600181600116156101000203166002900480601f016020809104026020016040519081016040528092919081815260200182805460018160011615610100020316600290048015610c315780601f10610c0657610100808354040283529160200191610c31565b820191906000526020600020905b815481529060010190602001808311610c1457829003601f168201915b505050505081565b600081600260003373ffffffffffffffffffffffffffffffffffffffff1673ffffffffffffffffffffffffffffffffffffffff16815260200190815260200160002060008573ffffffffffffffffffffffffffffffffffffffff1673ffffffffffffffffffffffffffffffffffffffff168152602001908152602001600020819055508273ffffffffffffffffffffffffffffffffffffffff163373ffffffffffffffffffffffffffffffffffffffff167f8c5be1e5ebec7d5bd14f71427d1e84f3dd0314c0f7b2291e5b200ac8c7c3b925846040518082815260200191505060405180910390a36001905092915050565b60005481565b600080600073ffffffffffffffffffffffffffffffffffffffff168473ffffffffffffffffffffffffffffffffffffffff1614151515610d7057600080fd5b600260008673ffffffffffffffffffffffffffffffffffffffff1673ffffffffffffffffffffffffffffffffffffffff16815260200190815260200160002060003373ffffffffffffffffffffffffffffffffffffffff1673ffffffffffffffffffffffffffffffffffffffff168152602001908152602001600020549050610e4183600160008873ffffffffffffffffffffffffffffffffffffffff1673ffffffffffffffffffffffffffffffffffffffff16815260200190815260200160002054612af190919063ffffffff16565b600160008773ffffffffffffffffffffffffffffffffffffffff1673ffffffffffffffffffffffffffffffffffffffff16815260200190815260200160002081905550610ed683600160008773ffffffffffffffffffffffffffffffffffffffff1673ffffffffffffffffffffffffffffffffffffffff16815260200190815260200160002054612b0a90919063ffffffff16565b600160008673ffffffffffffffffffffffffffffffffffffffff1673ffffffffffffffffffffffffffffffffffffffff16815260200190815260200160002081905550610f2c8382612af190919063ffffffff16565b600260008773ffffffffffffffffffffffffffffffffffffffff1673ffffffffffffffffffffffffffffffffffffffff16815260200190815260200160002060003373ffffffffffffffffffffffffffffffffffffffff1673ffffffffffffffffffffffffffffffffffffffff168152602001908152602001600020819055508373ffffffffffffffffffffffffffffffffffffffff168573ffffffffffffffffffffffffffffffffffffffff167fddf252ad1be2c89b69c2b068fc378daa952ba7f163c4a11628f55a4df523b3ef856040518082815260200191505060405180910390a360019150509392505050565b61104b828260006040518059106110315750595b9080825280601f01601f1916602001820160405250611416565b5050565b600860009054906101000a900473ffffffffffffffffffffffffffffffffffffffff1673ffffffffffffffffffffffffffffffffffffffff163373ffffffffffffffffffffffffffffffffffffffff161415156110ab57600080fd5b80600d819055506110bd600d54612b28565b50565b600081565b601281565b60008060008473ffffffffffffffffffffffffffffffffffffffff163373ffffffffffffffffffffffffffffffffffffffff161415801561113e575061110e612d3a565b73ffffffffffffffffffffffffffffffffffffffff163373ffffffffffffffffffffffffffffffffffffffff1614155b1561114857600080fd5b600084141561115657600080fd5b600160008673ffffffffffffffffffffffffffffffffffffffff1673ffffffffffffffffffffffffffffffffffffffff168152602001908152602001600020548411156111a257600080fd5b6111ab846121c9565b8092508193505050600b60009054906101000a900473ffffffffffffffffffffffffffffffffffffffff1673ffffffffffffffffffffffffffffffffffffffff166323b872dd3087846000604051602001526040518463ffffffff167c0100000000000000000000000000000000000000000000000000000000028152600401808473ffffffffffffffffffffffffffffffffffffffff1673ffffffffffffffffffffffffffffffffffffffff1681526020018373ffffffffffffffffffffffffffffffffffffffff1673ffffffffffffffffffffffffffffffffffffffff1681526020018281526020019350505050602060405180830381600087803b15156112b457600080fd5b6102c65a03f115156112c557600080fd5b5050506040518051905015156112da57600080fd5b6112ef82601654612af190919063ffffffff16565b60168190555061130a82600054612af190919063ffffffff16565b60008190555061136282600160008873ffffffffffffffffffffffffffffffffffffffff1673ffffffffffffffffffffffffffffffffffffffff16815260200190815260200160002054612af190919063ffffffff16565b600160008773ffffffffffffffffffffffffffffffffffffffff1673ffffffffffffffffffffffffffffffffffffffff168152602001908152602001600020819055506113ba81601854612af190919063ffffffff16565b6018819055506113cb600054612f54565b7f8266e83f1305b5f57d0ea003de4b98085863677f5635419f4e08b60f9a3404798282604051808381526020018281526020019250505060405180910390a160019250505092915050565b505050565b60155481565b60008060008473ffffffffffffffffffffffffffffffffffffffff163373ffffffffffffffffffffffffffffffffffffffff16141580156114955750611465612d3a565b73ffffffffffffffffffffffffffffffffffffffff163373ffffffffffffffffffffffffffffffffffffffff1614155b1561149f57600080fd5b60008414156114ad57600080fd5b6114b684611721565b8092508193505050600b60009054906101000a900473ffffffffffffffffffffffffffffffffffffffff1673ffffffffffffffffffffffffffffffffffffffff166323b872dd8630846000604051602001526040518463ffffffff167c0100000000000000000000000000000000000000000000000000000000028152600401808473ffffffffffffffffffffffffffffffffffffffff1673ffffffffffffffffffffffffffffffffffffffff1681526020018373ffffffffffffffffffffffffffffffffffffffff1673ffffffffffffffffffffffffffffffffffffffff1681526020018281526020019350505050602060405180830381600087803b15156115bf57600080fd5b6102c65a03f115156115d057600080fd5b5050506040518051905015156115e557600080fd5b6115fa82601654612b0a90919063ffffffff16565b60168190555061161582600054612b0a90919063ffffffff16565b60008190555061166d82600160008873ffffffffffffffffffffffffffffffffffffffff1673ffffffffffffffffffffffffffffffffffffffff16815260200190815260200160002054612b0a90919063ffffffff16565b600160008773ffffffffffffffffffffffffffffffffffffffff1673ffffffffffffffffffffffffffffffffffffffff168152602001908152602001600020819055506116c581601854612b0a90919063ffffffff16565b6018819055506116d6600054612f54565b7fe7360c0fa1984a85874443100f5b25dd4f84192659660eb199f6c96e11defbcb8282604051808381526020018281526020019250505060405180910390a160019250505092915050565b6000806000806015549150600090505b848310156117c3578461174d8385612b0a90919063ffffffff16565b1115156117a3576117678284612b0a90919063ffffffff16565b925061177d600185612b0a90919063ffffffff16565b935061179c61179782600054612b0a90919063ffffffff16565b612f9f565b91506117a8565b6117c3565b6117bc600182612b0a90919063ffffffff16565b9050611731565b8383935093505050915091565b60008314156117de57600080fd5b60003414156117ec57600080fd5b3373ffffffffffffffffffffffffffffffffffffffff168473ffffffffffffffffffffffffffffffffffffffff1614151561182657600080fd5b6224ea0082111561183657600080fd5b606481111561184457600080fd5b600e60008573ffffffffffffffffffffffffffffffffffffffff1673ffffffffffffffffffffffffffffffffffffffff16815260200190815260200160002060000160009054906101000a900460ff16156118a7576118a2846130df565b611aba565b6001600e60008673ffffffffffffffffffffffffffffffffffffffff1673ffffffffffffffffffffffffffffffffffffffff16815260200190815260200160002060000160006101000a81548160ff02191690831515021790555082600e60008673ffffffffffffffffffffffffffffffffffffffff1673ffffffffffffffffffffffffffffffffffffffff1681526020019081526020016000206002018190555080600e60008673ffffffffffffffffffffffffffffffffffffffff1673ffffffffffffffffffffffffffffffffffffffff1681526020019081526020016000206003018190555081600e60008673ffffffffffffffffffffffffffffffffffffffff1673ffffffffffffffffffffffffffffffffffffffff1681526020019081526020016000206006018190555042600e60008673ffffffffffffffffffffffffffffffffffffffff1673ffffffffffffffffffffffffffffffffffffffff168152602001908152602001600020600701819055506001600e60008673ffffffffffffffffffffffffffffffffffffffff1673ffffffffffffffffffffffffffffffffffffffff16815260200190815260200160002060000160016101000a81548160ff021916908315150217905550611a8f6001600f54612b0a90919063ffffffff16565b600f81905550611aaa83601054612b0a90919063ffffffff16565b601081905550611ab9846130df565b5b50505050565b600c5481565b600080600260003373ffffffffffffffffffffffffffffffffffffffff1673ffffffffffffffffffffffffffffffffffffffff16815260200190815260200160002060008573ffffffffffffffffffffffffffffffffffffffff1673ffffffffffffffffffffffffffffffffffffffff16815260200190815260200160002054905080831115611bd7576000600260003373ffffffffffffffffffffffffffffffffffffffff1673ffffffffffffffffffffffffffffffffffffffff16815260200190815260200160002060008673ffffffffffffffffffffffffffffffffffffffff1673ffffffffffffffffffffffffffffffffffffffff16815260200190815260200160002081905550611c6b565b611bea8382612af190919063ffffffff16565b600260003373ffffffffffffffffffffffffffffffffffffffff1673ffffffffffffffffffffffffffffffffffffffff16815260200190815260200160002060008673ffffffffffffffffffffffffffffffffffffffff1673ffffffffffffffffffffffffffffffffffffffff168152602001908152602001600020819055505b8373ffffffffffffffffffffffffffffffffffffffff163373ffffffffffffffffffffffffffffffffffffffff167f8c5be1e5ebec7d5bd14f71427d1e84f3dd0314c0f7b2291e5b200ac8c7c3b925600260003373ffffffffffffffffffffffffffffffffffffffff1673ffffffffffffffffffffffffffffffffffffffff16815260200190815260200160002060008873ffffffffffffffffffffffffffffffffffffffff1673ffffffffffffffffffffffffffffffffffffffff168152602001908152602001600020546040518082815260200191505060405180910390a3600191505092915050565b6000600160008373ffffffffffffffffffffffffffffffffffffffff1673ffffffffffffffffffffffffffffffffffffffff168152602001908152602001600020549050919050565b600e60008573ffffffffffffffffffffffffffffffffffffffff1673ffffffffffffffffffffffffffffffffffffffff16815260200190815260200160002060000160009054906101000a900460ff161515611dfb57600080fd5b6064811115611e0957600080fd5b6000831415611f3357611e69600e60008673ffffffffffffffffffffffffffffffffffffffff1673ffffffffffffffffffffffffffffffffffffffff16815260200190815260200160002060020154601054612af190919063ffffffff16565b6010819055506000600e60008673ffffffffffffffffffffffffffffffffffffffff1673ffffffffffffffffffffffffffffffffffffffff168152602001908152602001600020600201819055506000600e60008673ffffffffffffffffffffffffffffffffffffffff1673ffffffffffffffffffffffffffffffffffffffff16815260200190815260200160002060000160016101000a81548160ff021916908315150217905550611f286002600f54612b0a90919063ffffffff16565b600f81905550612081565b611f8a600e60008673ffffffffffffffffffffffffffffffffffffffff1673ffffffffffffffffffffffffffffffffffffffff16815260200190815260200160002060020154601054612af190919063ffffffff16565b60108190555082600e60008673ffffffffffffffffffffffffffffffffffffffff1673ffffffffffffffffffffffffffffffffffffffff16815260200190815260200160002060020181905550611fec83601054612b0a90919063ffffffff16565b60108190555080600e60008673ffffffffffffffffffffffffffffffffffffffff1673ffffffffffffffffffffffffffffffffffffffff1681526020019081526020016000206003018190555081600e60008673ffffffffffffffffffffffffffffffffffffffff1673ffffffffffffffffffffffffffffffffffffffff168152602001908152602001600020600601819055505b50505050565b60195481565b600860009054906101000a900473ffffffffffffffffffffffffffffffffffffffff1681565b60165481565b60145481565b600860009054906101000a900473ffffffffffffffffffffffffffffffffffffffff1673ffffffffffffffffffffffffffffffffffffffff163373ffffffffffffffffffffffffffffffffffffffff1614151561211b57600080fd5b80600c8190555050565b600a8054600181600116156101000203166002900480601f0160208091040260200160405190810160405280929190818152602001828054600181600116156101000203166002900480156121bb5780601f10612190576101008083540402835291602001916121bb565b820191906000526020600020905b81548152906001019060200180831161219e57829003601f168201915b505050505081565b60185481565b6000806000806015549150600090505b8484111515612247576121f58284612b0a90919063ffffffff16565b925061220b600185612b0a90919063ffffffff16565b935061222a61222582600054612af190919063ffffffff16565b612f9f565b9150612240600182612b0a90919063ffffffff16565b90506121d9565b8383935093505050915091565b60008073ffffffffffffffffffffffffffffffffffffffff168373ffffffffffffffffffffffffffffffffffffffff161415151561229157600080fd5b6122e382600160003373ffffffffffffffffffffffffffffffffffffffff1673ffffffffffffffffffffffffffffffffffffffff16815260200190815260200160002054612af190919063ffffffff16565b600160003373ffffffffffffffffffffffffffffffffffffffff1673ffffffffffffffffffffffffffffffffffffffff1681526020019081526020016000208190555061237882600160008673ffffffffffffffffffffffffffffffffffffffff1673ffffffffffffffffffffffffffffffffffffffff16815260200190815260200160002054612b0a90919063ffffffff16565b600160008573ffffffffffffffffffffffffffffffffffffffff1673ffffffffffffffffffffffffffffffffffffffff168152602001908152602001600020819055508273ffffffffffffffffffffffffffffffffffffffff163373ffffffffffffffffffffffffffffffffffffffff167fddf252ad1be2c89b69c2b068fc378daa952ba7f163c4a11628f55a4df523b3ef846040518082815260200191505060405180910390a36001905092915050565b600b60009054906101000a900473ffffffffffffffffffffffffffffffffffffffff1681565b600d5481565b60006124e782600260003373ffffffffffffffffffffffffffffffffffffffff1673ffffffffffffffffffffffffffffffffffffffff16815260200190815260200160002060008673ffffffffffffffffffffffffffffffffffffffff1673ffffffffffffffffffffffffffffffffffffffff16815260200190815260200160002054612b0a90919063ffffffff16565b600260003373ffffffffffffffffffffffffffffffffffffffff1673ffffffffffffffffffffffffffffffffffffffff16815260200190815260200160002060008573ffffffffffffffffffffffffffffffffffffffff1673ffffffffffffffffffffffffffffffffffffffff168152602001908152602001600020819055508273ffffffffffffffffffffffffffffffffffffffff163373ffffffffffffffffffffffffffffffffffffffff167f8c5be1e5ebec7d5bd14f71427d1e84f3dd0314c0f7b2291e5b200ac8c7c3b925600260003373ffffffffffffffffffffffffffffffffffffffff1673ffffffffffffffffffffffffffffffffffffffff16815260200190815260200160002060008773ffffffffffffffffffffffffffffffffffffffff1673ffffffffffffffffffffffffffffffffffffffff168152602001908152602001600020546040518082815260200191505060405180910390a36001905092915050565b600061265c612d3a565b73ffffffffffffffffffffffffffffffffffffffff163373ffffffffffffffffffffffffffffffffffffffff1614151561269557600080fd5b60136000836000191660001916815260200190815260200160002060009054906101000a900473ffffffffffffffffffffffffffffffffffffffff1690506126dc816130df565b5050565b60175481565b6000600260008473ffffffffffffffffffffffffffffffffffffffff1673ffffffffffffffffffffffffffffffffffffffff16815260200190815260200160002060008373ffffffffffffffffffffffffffffffffffffffff1673ffffffffffffffffffffffffffffffffffffffff16815260200190815260200160002054905092915050565b60008160018303925060028304831792506004830483179250601083048317925061010083048317925062010000830483179250640100000000830483179250680100000000000000008304831792507001000000000000000000000000000000008304831792506001830192506040517ff8f9cbfae6cc78fbefe7cdc3a1793dfcf4f0e8bbd8cec470b6a28a7a5a3e1efd81527ff5ecf1b3e9debc68e1d9cfabc5997135bfb7a7a3938b7b606b5b4b3f2f1f0ffe60208201527ff6e4ed9ff2d6b458eadcdf97bd91692de2d4da8fd2d0ac50c6ae9a827252361660408201527fc8c0b887b0a8a4489c948c7f847c6125746c645c544c444038302820181008ff60608201527ff7cae577eec2a03cf3bad76fb589591debb2dd67e0aa9834bea6925f6a4a2e0e60808201527fe39ed557db96902cd38ed14fad815115c786af479b7e8324736353433727170760a08201527fc976c13bb96e881cb166a933a55e490d9d56952b8d4e801485467d236242260660c08201527f753a6d1b65325d0c552a4d1345224105391a310b29122104190a11030902010060e082015261010081016040527e818283848586878898a8b8c8d8e8f929395969799a9b9d9e9faaeb6bedeeff7f01000000000000000000000000000000000000000000000000000000000000008082870204818160ff038501510495507f8000000000000000000000000000000000000000000000000000000000000000851161010002860195505050505050919050565b600860009054906101000a900473ffffffffffffffffffffffffffffffffffffffff1673ffffffffffffffffffffffffffffffffffffffff163373ffffffffffffffffffffffffffffffffffffffff161415156129f557600080fd5b600073ffffffffffffffffffffffffffffffffffffffff168173ffffffffffffffffffffffffffffffffffffffff1614151515612a3157600080fd5b8073ffffffffffffffffffffffffffffffffffffffff16600860009054906101000a900473ffffffffffffffffffffffffffffffffffffffff1673ffffffffffffffffffffffffffffffffffffffff167f8be0079c531659141344cd1fd0a4f28419497f9722a3daafe3b4186f6b6457e060405160405180910390a380600860006101000a81548173ffffffffffffffffffffffffffffffffffffffff021916908373ffffffffffffffffffffffffffffffffffffffff16021790555050565b6000828211151515612aff57fe5b818303905092915050565b6000808284019050838110151515612b1e57fe5b8091505092915050565b6000600360009054906101000a900473ffffffffffffffffffffffffffffffffffffffff1673ffffffffffffffffffffffffffffffffffffffff161480612b9957506000612b97600360009054906101000a900473ffffffffffffffffffffffffffffffffffffffff166137b0565b145b15612baa57612ba860006137bb565b505b600360009054906101000a900473ffffffffffffffffffffffffffffffffffffffff1673ffffffffffffffffffffffffffffffffffffffff166338cc48316000604051602001526040518163ffffffff167c0100000000000000000000000000000000000000000000000000000000028152600401602060405180830381600087803b1515612c3857600080fd5b6102c65a03f11515612c4957600080fd5b50505060405180519050600460006101000a81548173ffffffffffffffffffffffffffffffffffffffff021916908373ffffffffffffffffffffffffffffffffffffffff160217905550600460009054906101000a900473ffffffffffffffffffffffffffffffffffffffff1673ffffffffffffffffffffffffffffffffffffffff1663ca6ad1e4826040518263ffffffff167c010000000000000000000000000000000000000000000000000000000002815260040180828152602001915050600060405180830381600087803b1515612d2357600080fd5b6102c65a03f11515612d3457600080fd5b50505050565b600080600360009054906101000a900473ffffffffffffffffffffffffffffffffffffffff1673ffffffffffffffffffffffffffffffffffffffff161480612dac57506000612daa600360009054906101000a900473ffffffffffffffffffffffffffffffffffffffff166137b0565b145b15612dbd57612dbb60006137bb565b505b600360009054906101000a900473ffffffffffffffffffffffffffffffffffffffff1673ffffffffffffffffffffffffffffffffffffffff166338cc48316000604051602001526040518163ffffffff167c0100000000000000000000000000000000000000000000000000000000028152600401602060405180830381600087803b1515612e4b57600080fd5b6102c65a03f11515612e5c57600080fd5b50505060405180519050600460006101000a81548173ffffffffffffffffffffffffffffffffffffffff021916908373ffffffffffffffffffffffffffffffffffffffff160217905550600460009054906101000a900473ffffffffffffffffffffffffffffffffffffffff1673ffffffffffffffffffffffffffffffffffffffff1663c281d19e6000604051602001526040518163ffffffff167c0100000000000000000000000000000000000000000000000000000000028152600401602060405180830381600087803b1515612f3457600080fd5b6102c65a03f11515612f4557600080fd5b50505060405180519050905090565b612f5d81612f9f565b6015819055507f6107240b152f88c02cc96226ebe928f44aa7767097ec63deb754607d21162c9d6015546040518082815260200191505060405180910390a150565b6000806000905060006002811115612fb357fe5b601a60009054906101000a900460ff166002811115612fce57fe5b141561300457612ffd601454612fef85601954613c5390919063ffffffff16565b612b0a90919063ffffffff16565b90506130d6565b6001600281111561301157fe5b601a60009054906101000a900460ff16600281111561302c57fe5b14156130655761305e6014546130506002860a601954613c5390919063ffffffff16565b612b0a90919063ffffffff16565b90506130d5565b60028081111561307157fe5b601a60009054906101000a900460ff16600281111561308c57fe5b14156130d45760008314156130a057600192505b6130d16014546130c36130b28661276d565b601954613c5390919063ffffffff16565b612b0a90919063ffffffff16565b90505b5b5b80915050919050565b6000806000806000600e60008773ffffffffffffffffffffffffffffffffffffffff1673ffffffffffffffffffffffffffffffffffffffff168152602001908152602001600020600201549450600085141561313a57600080fd5b84600b60009054906101000a900473ffffffffffffffffffffffffffffffffffffffff1673ffffffffffffffffffffffffffffffffffffffff1663dd62ed3e88306000604051602001526040518363ffffffff167c0100000000000000000000000000000000000000000000000000000000028152600401808373ffffffffffffffffffffffffffffffffffffffff1673ffffffffffffffffffffffffffffffffffffffff1681526020018273ffffffffffffffffffffffffffffffffffffffff1673ffffffffffffffffffffffffffffffffffffffff16815260200192505050602060405180830381600087803b151561323457600080fd5b6102c65a03f1151561324557600080fd5b505050604051805190501015613391576132ac600e60008873ffffffffffffffffffffffffffffffffffffffff1673ffffffffffffffffffffffffffffffffffffffff16815260200190815260200160002060020154601054612af190919063ffffffff16565b6010819055506000600e60008873ffffffffffffffffffffffffffffffffffffffff1673ffffffffffffffffffffffffffffffffffffffff16815260200190815260200160002060000160016101000a81548160ff0219169083151502179055506133236002600f54612b0a90919063ffffffff16565b600f819055507fc36312e417227e43b5137e72ded3ad9810ddf4447e9590ba2b433ce90cab9fb786604051808273ffffffffffffffffffffffffffffffffffffffff1673ffffffffffffffffffffffffffffffffffffffff16815260200191505060405180910390a16137a8565b6133a660125486613c5390919063ffffffff16565b93506133ff601254600e60008973ffffffffffffffffffffffffffffffffffffffff1673ffffffffffffffffffffffffffffffffffffffff16815260200190815260200160002060030154613c5390919063ffffffff16565b92506134148385613c8690919063ffffffff16565b91506134298286612af190919063ffffffff16565b9050600082111561344a5761343e8683611421565b151561344957600080fd5b5b600081111561348b5761347f600860009054906101000a900473ffffffffffffffffffffffffffffffffffffffff1682611421565b151561348a57600080fd5b5b6134e082600e60008973ffffffffffffffffffffffffffffffffffffffff1673ffffffffffffffffffffffffffffffffffffffff16815260200190815260200160002060040154612b0a90919063ffffffff16565b600e60008873ffffffffffffffffffffffffffffffffffffffff1673ffffffffffffffffffffffffffffffffffffffff1681526020019081526020016000206004018190555061357b81600e60008973ffffffffffffffffffffffffffffffffffffffff1673ffffffffffffffffffffffffffffffffffffffff16815260200190815260200160002060050154612b0a90919063ffffffff16565b600e60008873ffffffffffffffffffffffffffffffffffffffff1673ffffffffffffffffffffffffffffffffffffffff1681526020019081526020016000206005018190555042600e60008873ffffffffffffffffffffffffffffffffffffffff1673ffffffffffffffffffffffffffffffffffffffff16815260200190815260200160002060080181905550600e60008773ffffffffffffffffffffffffffffffffffffffff1673ffffffffffffffffffffffffffffffffffffffff16815260200190815260200160002060000160019054906101000a900460ff161515613733576001600e60008873ffffffffffffffffffffffffffffffffffffffff1673ffffffffffffffffffffffffffffffffffffffff16815260200190815260200160002060000160016101000a81548160ff021916908315150217905550613710600e60008873ffffffffffffffffffffffffffffffffffffffff1673ffffffffffffffffffffffffffffffffffffffff16815260200190815260200160002060020154601054612b0a90919063ffffffff16565b60108190555061372c6002600f54612b0a90919063ffffffff16565b600f819055505b7f737c69225d647e5994eab1a6c301bf6d9232beb2759ae1e27a8966b4732bc4898686604051808373ffffffffffffffffffffffffffffffffffffffff1673ffffffffffffffffffffffffffffffffffffffff1681526020018281526020019250505060405180910390a16137a786613ca1565b5b505050505050565b6000813b9050919050565b6000806137db731d3b2638a7cc9f2cb3d298a3da7a90b67e5506ed6137b0565b111561387d57731d3b2638a7cc9f2cb3d298a3da7a90b67e5506ed600360006101000a81548173ffffffffffffffffffffffffffffffffffffffff021916908373ffffffffffffffffffffffffffffffffffffffff1602179055506138746040805190810160405280600b81526020017f6574685f6d61696e6e6574000000000000000000000000000000000000000000815250613faa565b60019050613c4e565b600061389c73c03a2615d5efaf5f49f60b7bb6583eaec212fdf16137b0565b111561393e5773c03a2615d5efaf5f49f60b7bb6583eaec212fdf1600360006101000a81548173ffffffffffffffffffffffffffffffffffffffff021916908373ffffffffffffffffffffffffffffffffffffffff1602179055506139356040805190810160405280600c81526020017f6574685f726f707374656e330000000000000000000000000000000000000000815250613faa565b60019050613c4e565b600061395d73b7a07bcf2ba2f2703b24c0691b5278999c59ac7e6137b0565b11156139ff5773b7a07bcf2ba2f2703b24c0691b5278999c59ac7e600360006101000a81548173ffffffffffffffffffffffffffffffffffffffff021916908373ffffffffffffffffffffffffffffffffffffffff1602179055506139f66040805190810160405280600981526020017f6574685f6b6f76616e0000000000000000000000000000000000000000000000815250613faa565b60019050613c4e565b6000613a1e73146500cfd35b22e4a392fe0adc06de1a1368ed486137b0565b1115613ac05773146500cfd35b22e4a392fe0adc06de1a1368ed48600360006101000a81548173ffffffffffffffffffffffffffffffffffffffff021916908373ffffffffffffffffffffffffffffffffffffffff160217905550613ab76040805190810160405280600b81526020017f6574685f72696e6b656279000000000000000000000000000000000000000000815250613faa565b60019050613c4e565b6000613adf736f485c8bf6fc43ea212e93bbf8ce046c7f1cb4756137b0565b1115613b4357736f485c8bf6fc43ea212e93bbf8ce046c7f1cb475600360006101000a81548173ffffffffffffffffffffffffffffffffffffffff021916908373ffffffffffffffffffffffffffffffffffffffff16021790555060019050613c4e565b6000613b627320e12a1f859b3feae5fb2a0a32c18f5a65555bbf6137b0565b1115613bc6577320e12a1f859b3feae5fb2a0a32c18f5a65555bbf600360006101000a81548173ffffffffffffffffffffffffffffffffffffffff021916908373ffffffffffffffffffffffffffffffffffffffff16021790555060019050613c4e565b6000613be57351efaf4c8b3c9afbd5ab9f4bbc82784ab6ef8faa6137b0565b1115613c49577351efaf4c8b3c9afbd5ab9f4bbc82784ab6ef8faa600360006101000a81548173ffffffffffffffffffffffffffffffffffffffff021916908373ffffffffffffffffffffffffffffffffffffffff16021790555060019050613c4e565b600090505b919050565b60008082840290506000841480613c745750828482811515613c7157fe5b04145b1515613c7c57fe5b8091505092915050565b6000808284811515613c9457fe5b0490508091505092915050565b6000807f0ac68d08c5119b8cdb4058edbf0d4168f208ec3935d26a8f1f0d92eb9d4de8bf613d036040805190810160405280600381526020017f55524c0000000000000000000000000000000000000000000000000000000000815250613fc4565b6040518082815260200191505060405180910390a13073ffffffffffffffffffffffffffffffffffffffff1631613d6e6040805190810160405280600381526020017f55524c0000000000000000000000000000000000000000000000000000000000815250613fc4565b1115613eb0576000600e60008573ffffffffffffffffffffffffffffffffffffffff1673ffffffffffffffffffffffffffffffffffffffff16815260200190815260200160002060000160016101000a81548160ff021916908315150217905550613e26600e60008573ffffffffffffffffffffffffffffffffffffffff1673ffffffffffffffffffffffffffffffffffffffff16815260200190815260200160002060020154601054612af190919063ffffffff16565b601081905550613e426002600f54612b0a90919063ffffffff16565b600f819055507fb10231f33db4fec56f59c6d6715b0c4cbf2586c2d743cad823185d6cfce5570683604051808273ffffffffffffffffffffffffffffffffffffffff1673ffffffffffffffffffffffffffffffffffffffff16815260200191505060405180910390a1613fa5565b600e60008473ffffffffffffffffffffffffffffffffffffffff1673ffffffffffffffffffffffffffffffffffffffff168152602001908152602001600020600601549150613f48826040805190810160405280600381526020017f55524c00000000000000000000000000000000000000000000000000000000008152506020604051908101604052806000815250600c54614250565b90508260136000836000191660001916815260200190815260200160002060006101000a81548173ffffffffffffffffffffffffffffffffffffffff021916908373ffffffffffffffffffffffffffffffffffffffff1602179055505b505050565b8060059080519060200190613fc09291906146a4565b5050565b600080600360009054906101000a900473ffffffffffffffffffffffffffffffffffffffff1673ffffffffffffffffffffffffffffffffffffffff16148061403657506000614034600360009054906101000a900473ffffffffffffffffffffffffffffffffffffffff166137b0565b145b156140475761404560006137bb565b505b600360009054906101000a900473ffffffffffffffffffffffffffffffffffffffff1673ffffffffffffffffffffffffffffffffffffffff166338cc48316000604051602001526040518163ffffffff167c0100000000000000000000000000000000000000000000000000000000028152600401602060405180830381600087803b15156140d557600080fd5b6102c65a03f115156140e657600080fd5b50505060405180519050600460006101000a81548173ffffffffffffffffffffffffffffffffffffffff021916908373ffffffffffffffffffffffffffffffffffffffff160217905550600460009054906101000a900473ffffffffffffffffffffffffffffffffffffffff1673ffffffffffffffffffffffffffffffffffffffff1663524f3889836000604051602001526040518263ffffffff167c01000000000000000000000000000000000000000000000000000000000281526004018080602001828103825283818151815260200191508051906020019080838360005b838110156141e35780820151818401526020810190506141c8565b50505050905090810190601f1680156142105780820380516001836020036101000a031916815260200191505b5092505050602060405180830381600087803b151561422e57600080fd5b6102c65a03f1151561423f57600080fd5b505050604051805190509050919050565b6000806000600360009054906101000a900473ffffffffffffffffffffffffffffffffffffffff1673ffffffffffffffffffffffffffffffffffffffff1614806142c4575060006142c2600360009054906101000a900473ffffffffffffffffffffffffffffffffffffffff166137b0565b145b156142d5576142d360006137bb565b505b600360009054906101000a900473ffffffffffffffffffffffffffffffffffffffff1673ffffffffffffffffffffffffffffffffffffffff166338cc48316000604051602001526040518163ffffffff167c0100000000000000000000000000000000000000000000000000000000028152600401602060405180830381600087803b151561436357600080fd5b6102c65a03f1151561437457600080fd5b50505060405180519050600460006101000a81548173ffffffffffffffffffffffffffffffffffffffff021916908373ffffffffffffffffffffffffffffffffffffffff160217905550600460009054906101000a900473ffffffffffffffffffffffffffffffffffffffff1673ffffffffffffffffffffffffffffffffffffffff16632ef3accc86856000604051602001526040518363ffffffff167c01000000000000000000000000000000000000000000000000000000000281526004018080602001838152602001828103825284818151815260200191508051906020019080838360005b8381101561447857808201518184015260208101905061445d565b50505050905090810190601f1680156144a55780820380516001836020036101000a031916815260200191505b509350505050602060405180830381600087803b15156144c457600080fd5b6102c65a03f115156144d557600080fd5b505050604051805190509050823a02670de0b6b3a764000001811115614501576000600102915061469b565b600460009054906101000a900473ffffffffffffffffffffffffffffffffffffffff1673ffffffffffffffffffffffffffffffffffffffff1663c51be90f82888888886000604051602001526040518663ffffffff167c0100000000000000000000000000000000000000000000000000000000028152600401808581526020018060200180602001848152602001838103835286818151815260200191508051906020019080838360005b838110156145c85780820151818401526020810190506145ad565b50505050905090810190601f1680156145f55780820380516001836020036101000a031916815260200191505b50838103825285818151815260200191508051906020019080838360005b8381101561462e578082015181840152602081019050614613565b50505050905090810190601f16801561465b5780820380516001836020036101000a031916815260200191505b5096505050505050506020604051808303818588803b151561467c57600080fd5b6125ee5a03f1151561468d57600080fd5b505050506040518051905091505b50949350505050565b828054600181600116156101000203166002900490600052602060002090601f016020900481019282601f106146e557805160ff1916838001178555614713565b82800160010185558215614713579182015b828111156147125782518255916020019190600101906146f7565b5b5090506147209190614724565b5090565b61474691905b8082111561474257600081600090555060010161472a565b5090565b905600a165627a7a72305820ebb27fdec8a50043b0f1ba55d8e62773f2d1fb19956e57f049e72eabf7cc9c530029",
  "source": "pragma solidity ^0.4.17;\n/**\n * The Patron contract does this and that...\n */\n\n import 'zeppelin/contracts/token/StandardToken.sol';\n import 'zeppelin/contracts/ownership/Ownable.sol';\n import 'oraclize/contracts/usingOraclize.sol';\n\n contract Patron is StandardToken, usingOraclize, Ownable {\n\n  string public name ;\n  string public symbol;\n  uint8 public constant decimals = 18;\n  uint256 public constant INITIAL_SUPPLY = 0;\n\n  StandardToken public baseToken;\n\n  uint256 public oraclizeGasLimit = 200000;\n  uint256 public oraclizeGasPrice = 4000000000;\n  mapping (address => Subscription) subscriptions;\n\n  uint256 activeSubscribers;\n  uint256 monthlyProjected;\n\n  address[] subscriptionKeys;\n  uint256 subscriptionPercentMultiplyer = 1000;\n  struct Subscription {\n    bool exists;\n    bool active;\n    bytes32 lastQueryId;\n    uint256 amount;\n    uint256 percentToPatron; //  max 100\n\n    uint256 toPatronTotal;\n    uint256 toOwnerTotal;\n    uint256 interval;\n    uint256 start;\n    uint256 last;\n  }\n  mapping (bytes32 => address) oraclizeIds;\n\n\n  uint256 public baseCost = (10**14); // .0001 baseToken\n  uint256 public costPerToken = 0;\n  uint256 public totalEverMinted;\n  uint256 public totalEverWithdrawn;\n  uint256 public poolBalance;\n  uint256 public graphMultiplyer;\n  enum GraphType { GraphLinear, GraphExponential, GraphLogarithmic }\n  GraphType graphType;\n\n\n  /* events */\n  event LogUint(uint number);\n  event Paid(address patron, uint256 amount);\n  event AlertEmptyPledge(address patron);\n  event AlertEmptyOracle(address patron);\n  event LogCostOfTokenUpdate(uint costOfTokenUpdate);\n  event LogMint(uint256 totalMinted, uint256 totalCost);\n  event LogUnmint(uint256 totalMinted, uint256 totalCost);\n\n  function Patron (string _name, string _symbol, address _baseToken, uint256 _graphType, uint256 _graphMultiplyer) payable {\n    name = _name;\n    symbol = _symbol;\n\n    baseToken = StandardToken(_baseToken);\n\n    if (_graphType == 2) {\n      graphType = GraphType.GraphLogarithmic;\n    } else if (_graphType == 1) {\n      graphType = GraphType.GraphExponential;\n    } else {\n      graphType = GraphType.GraphLinear;\n    }\n\n    graphMultiplyer =_graphMultiplyer;\n    updateCostOfToken(0);\n    OAR = OraclizeAddrResolverI(0x6f485C8BF6fc43eA212E93BBF8ce046C7f1cb475);\n  }\n\n  function mint(address patron, uint256 amount) public returns (bool) {\n    if (msg.sender != patron && msg.sender != oraclize_cbAddress()) revert();\n    if (amount == 0) revert();\n\n    uint256 totalMinted;\n    uint256 totalCost;\n\n    (totalMinted, totalCost) = calculateMintTokenPerToken(amount);\n\n    if (!baseToken.transferFrom(patron, address(this), totalCost)) revert();\n\n    totalEverMinted = totalEverMinted.add(totalMinted);\n    totalSupply = totalSupply.add(totalMinted);\n    balances[patron] = balances[patron].add(totalMinted);\n    poolBalance = poolBalance.add(totalCost);\n\n    updateCostOfToken(totalSupply);\n\n    LogMint(totalMinted, totalCost);\n    return true;\n  }\n\n  function calculateMintTokenPerToken (uint256 amount) public returns (uint256 totalMinted, uint256 totalCost) {\n    // uint256 totalMinted = 0;\n    // uint256 totalCost = 0;\n    //for loop to determine cost at each point.\n    uint256 tmpCostPerToken = costPerToken;\n    for(uint i = 0; totalCost < amount; i = i.add(1)) {\n      if(totalCost.add(tmpCostPerToken) <= amount) {\n        totalCost = totalCost.add(tmpCostPerToken);\n        totalMinted = totalMinted.add(1);\n        tmpCostPerToken = currentCostOfToken(totalSupply.add(i));\n      } else {\n        break;\n      }\n    }\n    return (totalMinted, totalCost);\n  }\n\n  // sell\n  function unmint (address patron, uint256 amount) public returns(bool){\n    if (msg.sender != patron && msg.sender != oraclize_cbAddress()) revert();\n    if (amount == 0) revert();\n    if (amount > balances[patron]) revert();\n\n    uint256 totalUnminted;\n    uint256 totalCost;\n\n    (totalUnminted, totalCost) = calculateUnmintTokenPerToken(amount);\n\n    if (!baseToken.transferFrom(address(this), patron, totalCost)) revert();\n\n    totalEverMinted = totalEverMinted.sub(totalUnminted);\n    totalSupply = totalSupply.sub(totalUnminted);\n    balances[patron] = balances[patron].sub(totalUnminted);\n    poolBalance = poolBalance.sub(totalCost);\n    \n    updateCostOfToken(totalSupply);\n\n    LogUnmint(totalUnminted, totalCost);\n    return true;\n  }\n\n  function calculateUnmintTokenPerToken (uint256 amount) public constant returns (uint256 totalUnminted, uint256 totalCost) {\n    // uint256 totalUnminted = 0;\n    // uint256 totalCost = 0;\n    //for loop to determine cost at each point.\n    uint256 tmpCostPerToken = costPerToken;\n    for(uint i = 0; totalUnminted <= amount; i = i.add(1)) {\n      totalCost = totalCost.add(tmpCostPerToken);\n      totalUnminted = totalUnminted.add(1);\n      tmpCostPerToken = currentCostOfToken(totalSupply.sub(i));\n    }\n    return (totalUnminted, totalCost);\n  }\n\n  function updateCostOfToken(uint256 _supply) internal {\n    costPerToken = currentCostOfToken(_supply);\n    LogCostOfTokenUpdate(costPerToken);\n  }\n\n  function currentCostOfToken(uint256 _supply) internal constant returns (uint _cost) {\n    uint cost = 0;\n\n    if ( graphType == GraphType.GraphLinear ) {\n      // mx + b\n      cost = ( graphMultiplyer.mul(_supply) ).add(baseCost);\n    }\n    else if ( graphType == GraphType.GraphExponential ) {\n      // mx^2 + b\n      cost = ( graphMultiplyer.mul(_supply ** 2) ).add(baseCost);\n    }\n    else if ( graphType == GraphType.GraphLogarithmic ) {\n      // m * log2(x) + b\n      if ( _supply == 0 ) {\n        _supply = 1;\n      }\n      cost = ( graphMultiplyer.mul( fastlog2(_supply) ) ).add(baseCost);\n    }\n    return cost;\n  }\n\n  // SPECTIAL CURVES\n\n  //log based 2 taylor series in assembly\n  function fastlog2(uint x) public pure returns (uint y) {\n    assembly {\n      let arg := x\n      x := sub(x,1)\n      x := or(x, div(x, 0x02))\n      x := or(x, div(x, 0x04))\n      x := or(x, div(x, 0x10))\n      x := or(x, div(x, 0x100))\n      x := or(x, div(x, 0x10000))\n      x := or(x, div(x, 0x100000000))\n      x := or(x, div(x, 0x10000000000000000))\n      x := or(x, div(x, 0x100000000000000000000000000000000))\n      x := add(x, 1)\n      let m := mload(0x40)\n      mstore(m,           0xf8f9cbfae6cc78fbefe7cdc3a1793dfcf4f0e8bbd8cec470b6a28a7a5a3e1efd)\n      mstore(add(m,0x20), 0xf5ecf1b3e9debc68e1d9cfabc5997135bfb7a7a3938b7b606b5b4b3f2f1f0ffe)\n      mstore(add(m,0x40), 0xf6e4ed9ff2d6b458eadcdf97bd91692de2d4da8fd2d0ac50c6ae9a8272523616)\n      mstore(add(m,0x60), 0xc8c0b887b0a8a4489c948c7f847c6125746c645c544c444038302820181008ff)\n      mstore(add(m,0x80), 0xf7cae577eec2a03cf3bad76fb589591debb2dd67e0aa9834bea6925f6a4a2e0e)\n      mstore(add(m,0xa0), 0xe39ed557db96902cd38ed14fad815115c786af479b7e83247363534337271707)\n      mstore(add(m,0xc0), 0xc976c13bb96e881cb166a933a55e490d9d56952b8d4e801485467d2362422606)\n      mstore(add(m,0xe0), 0x753a6d1b65325d0c552a4d1345224105391a310b29122104190a110309020100)\n      mstore(0x40, add(m, 0x100))\n      let magic := 0x818283848586878898a8b8c8d8e8f929395969799a9b9d9e9faaeb6bedeeff\n      let shift := 0x100000000000000000000000000000000000000000000000000000000000000\n      let a := div(mul(x, magic), shift)\n      y := div(mload(add(m,sub(255,a))), shift)\n      y := add(y, mul(256, gt(arg, 0x8000000000000000000000000000000000000000000000000000000000000000)))\n    }\n  }\n\n\n  // subscribe\n  function subscribe (address patron, uint256 amount, uint256 interval, uint256 percentToPatron) public payable {\n    if (amount == 0) revert();\n    if (msg.value == 0) revert();\n    if (patron != msg.sender) revert();\n    if (interval > 4 weeks) revert();\n    if (percentToPatron > 100) revert();\n    if (subscriptions[patron].exists) {\n      executePayment(patron);\n    } else {\n      subscriptions[patron].exists = true;\n      subscriptions[patron].amount = amount;\n      subscriptions[patron].percentToPatron = percentToPatron;\n      subscriptions[patron].interval = interval;\n      subscriptions[patron].start = now;\n      subscriptions[patron].active = true;\n\n      activeSubscribers = activeSubscribers.add(1);\n      monthlyProjected = monthlyProjected.add(amount);\n\n      executePayment(patron);\n    }\n  }\n\n  function updateSubscription (address patron, uint256 amount, uint256 interval, uint256 percentToPatron) public payable {\n    if (!subscriptions[patron].exists) revert();\n    if (percentToPatron > 100) revert();\n    if (amount == 0) {\n      monthlyProjected = monthlyProjected.sub(subscriptions[patron].amount);\n\n      subscriptions[patron].amount = 0;\n      subscriptions[patron].active = false;\n      activeSubscribers = activeSubscribers.add(2);\n    } else {\n      monthlyProjected = monthlyProjected.sub(subscriptions[patron].amount);\n\n      subscriptions[patron].amount = amount;\n      monthlyProjected = monthlyProjected.add(amount);\n\n      subscriptions[patron].percentToPatron = percentToPatron;\n      subscriptions[patron].interval = interval;\n    }\n  }\n\n  function oracle (address patron) private {\n    LogUint(oraclize_getPrice(\"URL\"));\n    if (oraclize_getPrice(\"URL\") > this.balance) {\n      subscriptions[patron].active = false;\n      monthlyProjected = monthlyProjected.sub(subscriptions[patron].amount);\n      activeSubscribers = activeSubscribers.add(2);\n      AlertEmptyOracle(patron);\n    } else {\n      uint256 interval = subscriptions[patron].interval;\n      bytes32 queryId = oraclize_query(interval, \"URL\", \"\", oraclizeGasLimit);\n      oraclizeIds[queryId] = patron;\n    }\n  }\n\n  function updateOracleGasPrice (uint newPrice) onlyOwner {\n    oraclizeGasPrice = newPrice;\n    oraclize_setCustomGasPrice(oraclizeGasPrice);\n  }\n\n  function updateOracleGasLimit (uint newPrice) onlyOwner {\n    oraclizeGasLimit = newPrice;\n  }\n\n  function executePayment (address patron) private {\n    uint256 amount = subscriptions[patron].amount;\n    if (amount == 0) revert();\n\n    if (baseToken.allowance(patron, address(this)) < amount) {\n      monthlyProjected = monthlyProjected.sub(subscriptions[patron].amount);\n      subscriptions[patron].active = false;\n      activeSubscribers = activeSubscribers.add(2);\n      AlertEmptyPledge(patron);\n    } else {\n\n      uint256 amountMultiplied = amount.mul(subscriptionPercentMultiplyer);\n      uint256 percentToPatronMultiplied = subscriptions[patron].percentToPatron.mul(subscriptionPercentMultiplyer);\n\n      uint256 amountToPatron = amountMultiplied.div(percentToPatronMultiplied);\n      uint256 amountToOwner = amount.sub(amountToPatron);\n\n      if (amountToPatron > 0) {\n        if (!mint(patron, amountToPatron)) revert();\n      }\n      if (amountToOwner > 0) {\n        if (!mint(owner, amountToOwner)) revert();\n      }\n\n      subscriptions[patron].toPatronTotal = subscriptions[patron].toPatronTotal.add(amountToPatron);\n      subscriptions[patron].toOwnerTotal = subscriptions[patron].toOwnerTotal.add(amountToOwner);\n\n      subscriptions[patron].last = now;\n\n      if (!subscriptions[patron].active) {\n        subscriptions[patron].active = true;\n        monthlyProjected = monthlyProjected.add(subscriptions[patron].amount);\n        activeSubscribers = activeSubscribers.add(2);\n      }\n\n      Paid(patron, amount);\n      oracle(patron);\n    }\n  }\n\n  function __callback(bytes32 queryId) public {\n    if (msg.sender != oraclize_cbAddress()) revert();\n    address patron = oraclizeIds[queryId];\n    executePayment(patron);\n  }\n\n}\n",
  "sourcePath": "/Users/billy/sol/patreth/contracts/Patron.sol",
  "compiler": {
    "name": "solc",
    "version": "0.4.18+commit.9cf6e910.Emscripten.clang"
  },
  "schemaVersion": "1.0.1",
  "updatedAt": "2018-01-30T10:24:42.644Z"
}